:020000040800F2
:10000000E0290020A10100088F340008052E000817
:100010008D340008AD0900081145000800000000FB
:10002000000000000000000000000000813B00080C
:10003000810C00080000000055360008C93B00088C
:10004000BB010008BB010008BB010008BB010008A0
:10005000BB010008BB010008BB010008BB01000890
:10006000BB010008BB010008BB010008BB01000880
:10007000BB010008BB010008BB010008BB01000870
:10008000A10B0008BB010008BB010008BB01000870
:10009000BB010008BB010008BB010008BB01000850
:1000A000BB010008BB010008BB010008BB01000840
:1000B000BB010008BB010008BB010008BB01000830
:1000C000BB010008BB010008BB010008BB01000820
:1000D000BB010008F944000805450008BB01000801
:1000E000BB010008BB010008BB010008BB01000800
:1000F000BB010008BB010008BB010008BB010008F0
:10010000BB010008BB010008BB010008BB010008DF
:10011000BB010008BB010008BB010008BB010008CF
:10012000AD0B0008BB010008B90B0008C50B0008A7
:10013000BB010008BB010008BB010008BB010008AF
:10014000BB010008BB010008BB010008BB0100089F
:10015000BB010008BB010008D10B0008BB0100086F
:10016000BB010008BB010008BB010008BB0100087F
:10017000BB010008BB010008BB0100080000000033
:10018000BB010008BB010008DFF810D000F01AFB2B
:1001900000480047CD530008AFF30080E02900205D
:1001A0000648804706480047FEE7FEE7FEE7FEE711
:1001B000FEE7FEE7FEE7FEE7FEE7FEE7653C000838
:1001C000890100082DE9F05F0546002092469B4614
:1001D00088460646814640241BE02846414647465D
:1001E000224600F069FA53465A46C01A914110D38C
:1001F00011461846224600F016F82D1A67EB010842
:100200004F4622460120002100F00DF817EB0009AF
:100210004E41201EA4F10104DFDC484631462A4647
:100220004346BDE8F09F202A04DB203A00FA02F1A1
:10023000002070479140C2F1200320FA03F31943D4
:1002400090407047202A06DBCB17203A41FA02F093
:1002500043EAE07306E041FA02F3D040C2F1200223
:10026000914008431946704710B5431A934209D28A
:100270008318881803E010F8011D03F8011D521EB1
:10028000F9D210BD40EA01039B0703D009E008C979
:10029000121F08C0042AFAD203E011F8013B00F84B
:1002A000013B521EF9D210BDD2B201E000F8012B81
:1002B000491EFBD270470022F6E710B513460A46E6
:1002C00004461946FFF7F0FF204610BD421C10F807
:1002D000011B0029FBD1801A70472DE9FE4F804693
:1002E00081EA0300C00F0C46009021F0004123F08A
:1002F0000045B8EB0200A94105D240462146904690
:100300001C460B46024623F00040104347D0270D01
:10031000C7F30A00C3F30A510290401A0190402823
:100320006BDAC3F3130040F4801B0098924620B1AF
:100330000023D2EB030A63EB0B0B01985946C0F183
:1003400040025046FFF76FFF06460D46504659469D
:10035000019AFFF777FF10EB08006141002487EA5C
:10036000115284EAE7731A4340D0009A62B3019AAB
:10037000012A4FEA075215DC001B61EB02014FF026
:10038000004202EA0752CDE90042001C41F580110B
:1003900032462B4600F0AFF903B0BDE8F08F40467F
:1003A0002146F9E7001B61EB0201001C41F58013B7
:1003B00000185B412018A2F5001747EB030140EA43
:1003C000D570B6196D4111E06D084FEA360645EA61
:1003D000C0754FEA0752001B61EB0201001C41F59A
:1003E000801149084FEA30000019514132462B462E
:1003F00003B0BDE8F04F00F06FB900980122400053
:100400000023D0EB020263EBE073009821464FEA31
:10041000E074B8EB000061EB0401E9E783F000430E
:100420005BE781F0004158E72DE9FE4F81EA0304C4
:1004300004F0004421F0004100944FF0000B23F041
:10044000004350EA01045ED052EA03045BD0C3F3D8
:100450000A54C1F30A552C44A4F2F3340194A0FBCE
:100460000254C1F3130141F48011C3F3130343F4A5
:10047000801301FB024400FB034E840A970A44EAFE
:10048000815447EA8357A4FB076802958D0A05FB50
:1004900007854FEA932C04FB0C542705029D4FEA75
:1004A000065847EA1637B5EB08056EEB070C870EC2
:1004B000920E47EA811742EA8312A7FB0201B6EBCC
:1004C0000B0164EB00042B0D43EA0C335E1844EB84
:1004D0001C50DA465146E7FB0201C5F313044FEA0C
:1004E0000B3343EA14534FEA0432019C43EA0603F8
:1004F000A4F10C040294009CCDE900B400F0FBF8D8
:1005000003B0BDE8F08F00200146F9E72DE9F04D7A
:1005100081EA030404F0004B21F0004514464FF03B
:10052000000A23F0004150EA050220D054EA0102FB
:100530001DD0C5F30A570246C5F31303C1F31300D8
:10054000C1F30A5640F4801543F48013A7EB060864
:10055000101BD64608F2FD3873EB050002D308F1F4
:10056000010801E092185B41B8F1000F03DA0020A6
:100570000146BDE8F08D00204FF480110646844608
:100580000EE0171B73EB050705D3121B63EB050386
:1005900006434CEA010C49084FEA300092185B41CF
:1005A00050EA0107EDD152EA030012D082EA0400BA
:1005B00083EA0501084305D0101BAB4106D2012296
:1005C000002306E000224FF0004302E06FF001023A
:1005D00053101AEB06004CEB085110EB0A0041EBEC
:1005E0000B01BDE8F04D00F077B80EB540F2334195
:1005F00002910021CDE900110A460B4600F07BF87C
:1006000003B000BDC1F30A5210B5C1F3130140F2AB
:10061000FF3341F480119A4201DA002010BD40F20C
:1006200033439A42A2F2334203DC524200F044F8D0
:1006300010BD904010BD00F0004230F000400AD0E4
:10064000C10D01F56071C0F3160042EA0151C20804
:1006500040071143704700200146704730B5041E23
:1006600071F1000404DB4FF00044404264EB0101EF
:10067000141E73F1000405DB1C464FF00043524288
:1006800063EB0403994208BF904230BD30B50B467E
:10069000014600202022012409E021FA02F59D42B2
:1006A00005D303FA02F5491B04FA02F52844151E86
:1006B000A2F10102F1DC30BD202A04DB203A21FA4C
:1006C00002F00021704721FA02F3D040C2F120026B
:1006D000914008431946704710B5141E73F1000489
:1006E00008DA401C41F1000192185B411A4301D124
:1006F00020F0010010BD2DE9F04D92469B4611B14E
:10070000B1FA81F202E0B0FA80F220329046FFF7AF
:100710008AFD04460F4640EA0A0041EA0B015346AF
:100720005A46084313D0114653EA010019D0C8F1C4
:1007300040025046FFF7C0FF05460E465046594658
:100740004246FFF770FD084305D0012004E0204633
:100750003946BDE8F08D0020054346EAE0762C439B
:1007600037430A986305E40AA0EB08000022FD0A5B
:1007700044EA47540A3002D500200146E9E7010562
:1007800010196941DDE9084500196941BDE8F04DDE
:10079000A2E7C1F30A52C1F3130140F2FF3341F45F
:1007A00080119A4202DA00200146704740F233433A
:1007B0009A42A2F2334202DC5242FFF77DBFFFF7BA
:1007C00032BD0000064C074D06E0E06840F0010332
:1007D00094E8070098471034AC42F6D3FFF7D8FCF2
:1007E00080600008A060000810B5094C0122A088B4
:1007F00081B2206801F0F2F8012004F0AFFDA0887A
:10080000002281B22068BDE8104001F0E7B8000086
:100810006C000020464910B54A6822F440324A6014
:100820004A6843681A434A6001684A6822F4807241
:100830004A6001684A68036942EA03224A60016823
:100840004A6822F040724A6001684A6883681A4325
:100850004A6001688A6822F400628A6001688A68D6
:10086000C3681A438A60816A6FF07062D14201687E
:100870008A6822F070628A6001688A680CD0836A94
:100880001A438A6001688A6822F040528A600168CF
:100890008A68C36A1A4301E022F040528A60016804
:1008A0008A6822F002028A6001688A68037E42EA4E
:1008B00043028A6090F82010002901684A680FD02E
:1008C00042F400624A6001684A6822F460424A6069
:1008D00001684A68174C436A04EB43331A4301E04A
:1008E00022F400624A600168CA6A22F47002CA6295
:1008F0000168CA6A838B104C04EB03531A43CA6223
:1009000001688A6822F400728A6001688A6890F837
:10091000303042EA43228A6001688A6822F48062A9
:100920008A6001688A68406942EA8020886010BD58
:100930000023014000E0FFFF0000F0FF887010225C
:1009400042EA10204870002008707047704700008D
:1009500010B500280BD000F00DF80549086081B2F1
:10096000002003F053FEBDE81040FFF73DBF10BD6F
:10097000C40000200C4910B54860142801D800209C
:1009800010BD1438C10D400240F25642801841F1AA
:10099000000152000023FFF715FCB0F5806FEFD384
:1009A00040F2FF3010BD0000C4000020FEE7000050
:1009B000042805D203490A180121002003F0AABD2A
:1009C000704700002800002010B5846B204600F01E
:1009D0002DFC0120207110BD10B5846B204600F065
:1009E000FBFB0120207110BD10B5846B206940F025
:1009F00004002061204600F01BFC0120207110BD86
:100A000010B5846B206940F004002061204600F09E
:100A1000E5FB0120207110BD10B5806B00F007FCD4
:100A200010BD10B5806B00F0D8FB10BD2DE9F0476C
:100A30005FEA00092DED048B82B07DD040F6E440E2
:100A4000C2EB0232C1EB0131B2FBF0F7B1FBF0F6C1
:100A5000B74201D9B81B00E00020BC198046B4F5AC
:100A6000805F01D340F6FF74DFED3B0ADFED3C8A87
:100A70009FED3C9A20EE200ADFED380ADFF8E8A06F
:100A8000002580EE208A00BF00EE105AB8EE400A22
:100A9000C0EE280AB0EE480A00EE890A03F072FEA2
:100AA00000EE906A4146F8EE600A20EE200ABDEEA4
:100AB000C00A10EE100A3844404500DA0846A04249
:100AC00000DD20462AF815006D1C782DDCD3C9EB1B
:100AD0000910C40001F0BCF92449096811F4E05F71
:100AE00000D04000002C31D0B0FBF4F000B9012060
:100AF0001F490024401E4C60C1E9024008468C6139
:100B000001F00AFC08B100F0BCF8194801F08EFCB5
:100B100015480021F03000F061FC134A78230021D1
:100B200002F1F000009400F0E9FB08B100F0A9F830
:100B30000F4801F03FFC00E008E0002806D002B0BA
:100B4000BDEC048BBDE8F04700F09BB802B0BDECF3
:100B5000048BBDE8F0870000DB0F49400000344300
:100B60000000F042DB0FC94040020020083802407C
:100B700088040020FFF75ABF10B54CF25031002016
:100B800003F05AFD40F2FF31002003F03FFD002149
:100B9000084603F06FFDBDE81040FFF725BE0000DA
:100BA000014800F09FBC000044030020014800F011
:100BB00099BC000080010020014800F093BC0000B7
:100BC00060050020014800F08DBC0000E00100201D
:100BD000014800F087BC0000C00500200168182310
:100BE000CAB2103AB2FBF3F2054B6FF30901032AC4
:100BF0009B5CC36500D9091D8165084670470000EC
:100C00004060000810B5014600208B698A6A4FF0E9
:100C1000C07453B1B3F5005F15D072B1012A0CD086
:100C2000022A0AD0032A09D104E01AB1012A06D007
:100C3000022A03D1C96AC90100D5012010BDC96AC1
:100C4000A142FAD010BD002AF7D0012AF2D0022A20
:100C5000F3D0032AF3D010BD30B50468256825F41D
:100C600080252560046863608368402B036803D097
:100C700099600068C26030BD9A600068C16030BD94
:100C8000704772B6FEE7000010B5044651EC100B39
:100C9000FFF7B8FCFFF7A9FC9FED071B53EC112BE6
:100CA000FFF7C2FBFFF7AEFCE070010AA170010C78
:100CB0006170000E207010BD95D626E80B2E2140E5
:100CC0001FB501208DF800000648019003208DF823
:100CD000080004480221001D0390684602F0A4FCAD
:100CE0001FBD0000B4000020A0F1640240F655339F
:100CF0009A4220D2B1F57A7F1DD3B1F5FA6F1AD896
:100D000064223238B0FBF2F080B21E2800D31D20DE
:100D1000A1F57A7189B23231B1FBF2F189B20B29B6
:100D200000D30A2100EB400202EBC000084480B26D
:100D3000B0F5A57F01D300207047024901EBC00048
:100D4000C0887047F055000878B50024009490F8EA
:100D50003C20012A19D0012280F83C200A68072390
:100D60000568092A13D9EE680A3A02EB4202934059
:100D70009E43EE600B788A680A3B03EB43039A407C
:100D80000368DD682A43DA6010E0022078BD2E692E
:100D900002EB420293409E432E610B788A6803EB7C
:100DA00043039A4003681D692A431A614A681F2356
:100DB000072A13D205686E6B521E02EB8202934023
:100DC0009E436E630B790A885B1E92B203EB83032A
:100DD0009A4003685D6B2A435A6327E005680D2A31
:100DE00012D22E6BD21F02EB820293409E432E63DF
:100DF0000B790A88DB1F92B203EB83039A400368E6
:100E00001D6B2A431A6311E0EE6A0D3A02EB82026F
:100E100093409E43EE620B790A880D3B92B203EB3E
:100E200083039A400368DD6A2A43DA62164B056839
:100E3000144A9D4206D10D68122D03D1556845F420
:100E40008005556005689D4218D10B68102B01D0B4
:100E5000112B13D1536843F4000353600968102920
:100E60000CD10A490A4A0968B1FBF2F101EB810190
:100E7000490000E0491E00910029FBD180F83C4068
:100E8000002078BD00230140002001402000002008
:100E900040420F000068C06C704770B504004FF00E
:100EA000000503D0206C002610B107E0012070BDC2
:100EB000204600F01DF8666484F83C60206CC00693
:100EC00010D4206C20F4885040F0020020642046AA
:100ED000FFF7A0FC6664206C20F0020040F00100E7
:100EE000206400E0012584F83C60284670BD0000C5
:100EF0002DE9F04387B0064614216846FFF7DBF979
:100F00003748DFF8D8C01438356800243449032343
:100F1000344A07154FF400684FF40059654529D14C
:100F20000D6845F480750D60096801F480710591C4
:100F3000016841F0010101600068694600F00100AC
:100F4000059001208DE81900104600F04FFC274D58
:100F5000254805F10C0CC5E90004AC608CE8900351
:100F6000EC612C6228466C6230E0B563AE6307B07A
:100F7000BDE8F083DFF878C06545F8D10D6845F429
:100F800000750D60096801F400710591016841F078
:100F9000010101600068694600F00100059002202F
:100FA0008DE81900104600F021FC104D0E48603508
:100FB000483028604FF00070C5E9010405F10C0CC1
:100FC00028468CE89003EC612C626C6200F05AFBBE
:100FD0000028CAD0FFF755FEC7E7000000200140F7
:100FE00044380240000002401064024080010020AA
:100FF000002101402DE9F041044600680D4681685A
:101000004FF0000749050BD58068C00508D5206C56
:1010100040F02000206484F83C700120BDE8F0819D
:1010200000F0E2FC064613E0681C11D025B100F088
:10103000DBFC801BA8420BD920680068800707D41E
:10104000206C40F00400206484F83C700320E5E745
:10105000206800688007E7D521686FF012000860FB
:10106000206C40F4007020642068816811F0405FBB
:1010700013D1217E89B9C16A11F4700F02D0806842
:1010800040050AD4206C20F480702064206CC004D9
:1010900003D4206C40F0010020640020BEE7000073
:1010A00018B50021009190F83C20012A07D00122B8
:1010B00080F83C2002689368DB0702D011E0022030
:1010C00018BD936843F0010393602E4A2E4B1268BB
:1010D000B2FBF3F202EB420200E0521E0092002A41
:1010E000FBD102689368DB0742D0036C40F20164D5
:1010F000A34343F48073036453685B0505D5036C15
:1011000023F4005343F480530364036CDB0404D5DD
:10111000436C23F00603436400E0416480F83C1014
:101120001A496FF02203136049680068CA0618491B
:1011300006D0884224D1816811F0405F13D01FE0AF
:101140008842F8D0134A904203D1D1F80423D20642
:10115000F1D0114A904213D1D1F8041301F01F01CC
:101160001029E8D30CE0816841F08041816007E0FC
:10117000016C41F010010164416C41F001014164D6
:10118000002018BD2000002040420F000023014035
:1011900000200140002101400022014090F83C1055
:1011A00001290CD0012180F83C1001688A6822F0E6
:1011B00001028A6001688968C90702D007E002203D
:1011C0007047016C21F4885141F001010164002154
:1011D00080F83C100846704770477047704770B5FC
:1011E00000B3F9B14379012B1ED0012646710223C9
:1011F000037105682C6802F0100340F6FE729A40F5
:101200009443D1E900210A439A4022432A600168AD
:101210000A68C0249C40A2430A6006710021417103
:10122000084670BD012070BD022070BD7047704738
:10123000704770B5040003D02079002510B105E097
:10124000012070BD6571204600F008F80220207171
:10125000256101202071002070BD000070B586B0AE
:10126000054614216846FFF726F81F49286888427A
:1012700037D11E480026016841F000510160006826
:1012800000F00050059019481038016841F0010144
:1012900001600068694600F0010005901020009090
:1012A0000320CDE90106124800F0A0FA124C1148C3
:1012B00020604FF0606060604020C4E902060001D9
:1012C0002061400060618000A0614011C4E9070610
:1012D0002046666200F0D6F908B1FFF7D2FCAC6098
:1012E000A56306B070BD00000074004040380240A5
:1012F0000000024088600240440300202DE9F041D4
:101300000400069817460D461BD0617901291BD0B1
:101310000126667102212171C5B1E2682949D163B4
:10132000E26829491164E2682849D16421680A68A1
:1013300042F080520A6040B32268042828D01C3250
:1013400027E00120BDE8F0810220FBE7A2682049E8
:10135000D163A2681F491164A2681F49D164216842
:101360000A6842F480520A6020B12268042804D03E
:10137000103203E02268083200E00C322068016875
:1013800041F400510160A06809E02268143200E0D5
:1013900018322068016841F000510160E068394668
:1013A00000F0DAF90021617120B1216941F00401F6
:1013B0002161C7E721680A6805F010039E403243A7
:1013C0000A60BFE7D9090008230A0008010A0008DB
:1013D000C9090008190A0008E909000870B50400E5
:1013E0001BD02068036801F010024FF4805595402F
:1013F000AB43036020680368012505FA02F29343BA
:10140000036061B1E06800F012F82068016821F023
:10141000005101602571002070BD012070BDA068E1
:1014200000F005F82068016821F40051F1E72DE98A
:10143000F0410446876D00F0D7FA064694F835006F
:101440000025022806D08020606584F834500120F1
:10145000BDE8F0812068016821F016010160206874
:10146000416921F080014161206C08B9A06C20B174
:101470002068016821F0080101602068016821F0FE
:10148000010101600CE000F0AFFA801B052807D9CC
:1014900020206065032084F8350084F83450D7E7B5
:1014A00020680068C007EED194F85C103F208840A7
:1014B000B860012084F8350084F834500020C7E774
:1014C00090F83510022903D0802141650120704732
:1014D000052180F835100068016821F001010160E4
:1014E000002070472DE9F84304464FF00009CDF87D
:1014F000009063484FF41651A56D0068B0FBF1F7FA
:101500002E6894F85C10082000FA01F131420FD0E7
:1015100021680A6852070BD50A6822F004020A60A3
:1015200094F85C108840A860606D40F00100606530
:1015300094F85C104FF0010808FA01F0304208D02E
:1015400021684969090604D5A860606D40F0020071
:10155000606594F85C1004208840304208D021680F
:101560000968890704D5A860606D40F004006065D3
:1015700094F85C1010208840304218D02168096827
:10158000090714D5A86020680168490304D50068DC
:10159000000308D5A16C07E00168C90503D4016800
:1015A00021F008010160216C09B12046884794F8B8
:1015B0005C1020208840304231D021680968C9067B
:1015C0002DD5A86094F8350005282068016806D05C
:1015D000490347D5006800031DD4616C1CE021F06D
:1015E000160101602068416921F080014161206C91
:1015F00008B9A06C20B12068016821F008010160E1
:1016000094F85C103F208840A86084F8358084F806
:101610003490216D1FE0E16B09B120468847606D71
:1016200000282BD0606DC00714D0052084F8350049
:101630002068016821F0010101600098401C0090C1
:10164000B84203D820680068C007F6D184F8358016
:1016500084F83490E16C002910D001B02046BDE838
:10166000F04308470168C905D5D4016821F010018D
:10167000016084F8358084F83490CCE7BDE8F883C5
:10168000200000202DE9F041044600F0ADF90646A7
:101690005CB1022084F83500002584F834502068BD
:1016A000016821F0010101600DE00120BDE8F08139
:1016B00000F09AF9801B052805D9202060650320D9
:1016C00084F83500F2E720680068C007F0D122688E
:1016D000116820480140D4E901031843D4E90336D6
:1016E0003343184363691843A3691843E3691843F4
:1016F000236A18430843616A042903D1D4E90B1310
:1017000019430843106020684069666A20F00701A9
:1017100030460E43012704280CD1A06A0643E06A34
:1017200040B12046FFF76EFA20B14020606584F892
:101730003570BAE7206846612046FFF74FFA94F803
:101740005C203F2191408160656584F83570002000
:10175000ACE700003F8010F02DE9F0410446866DB3
:1017600090F83400002501280DD0012084F83400C1
:1017700094F835700020012F07D084F8340002253A
:101780002846BDE8F0810220FBE7022784F8357087
:1017900060652046FFF760FA94F85C103F208840AF
:1017A000B0602068016841F016010160206C20B132
:1017B0002068016841F0080101602068016841F07B
:1017C00001010160DCE7000070B5044600F00CF98F
:1017D0000546601C02D004480078044400F004F977
:1017E000401BA042FAD370BD140000202DE9F84F31
:1017F000DFF8BCA10022012503264FF00F090AF1F2
:10180000040BAAF1040E00BF0B6805FA02F4234092
:10181000A34270D10F7907F00307012F01D0022FE7
:1018200016D187684FEA420806FA08FC27EA0C0737
:10183000D1F80CC00CFA08FC4CEA070CC0F808C040
:101840004768A7430C79C4F3001494403C434460B8
:101850000C79E443A4070AD0C4684FEA420C06FAA4
:101860000CF7BC438F6807FA0CF72743C7600C7965
:1018700004F00304022C12D1D40800EB840CDCF831
:1018800020405707FF0E09FA07F824EA0804D1F8A8
:10189000108008FA07F848EA0408CCF820800468A9
:1018A0004FEA420C06FA0CF7BC430F7907F0030726
:1018B00007FA0CF7274307604C6814F4403F70D0D8
:1018C0003C4C276847F480472760246822F00307D0
:1018D00004F480440094384C07EB040CDCF808480E
:1018E00097074FEA177809FA08F7BC43334FB84215
:1018F00002D1002724E054E0314FB84201D1012742
:101900001EE0304FB84201D1022719E02E4FB842F5
:1019100001D1032714E02D4FB84201D104270FE075
:101920002B4FB84201D105270AE02A4FB84201D116
:10193000062705E0284FB84201D1072700E0082715
:1019400007FA08F72743CCF80878DAF8004057463A
:10195000D1F804C09C435FEACC2C00D51C433C600A
:10196000DBF800405F46D1F804C09C435FEA8C2C52
:1019700000D51C433C60DEF800407746D1F804C037
:101980009C435FEA8C3C00D51C433C60084F083FF9
:101990003C68D1F804C09C435FEACC3C00D51C43B2
:1019A0003C60521C102AFFF42FAFBDE8F88F0000F6
:1019B000083C014044380240003001400000024031
:1019C0000004024000080240000C024000100240E7
:1019D0000014024000180240001C02400AB181615C
:1019E00070470904FBE70000014880687047000069
:1019F0001400002070B5040025D094F83D000025A7
:101A000020B984F83C50204600F0B8F8242084F82F
:101A10003D002068016821F0010101602068016833
:101A200041F4004101602068016821F40041016037
:101A300000F00EFA4D4A6168914201D84C4900E02D
:101A40004C49884201D2012070BD4B492368B0FB4C
:101A5000F1F15E6826F03F060E435E6063689342D4
:101A600006D94FF4967359434FF47A73B1FBF3F1EF
:101A70002368491C1E6A26F03F06314319626168DB
:101A8000914210D84900401EB0FBF1F2521CC2F343
:101A90000B02042A01D2042022E0B0FBF1F0401C2A
:101AA000C0F30B001CE0A268F2B301EBC10303EB2F
:101AB0000116431EB3FBF6F35B1C43F480431B0586
:101AC00049D092B301EBC10202EB0111401EB0FB01
:101AD000F1F0401CC0F30B0040F4804040F40040A3
:101AE0002168CA694CF6FF739A431043C861D4E970
:101AF000071001432068026822F0C0021143016010
:101B0000D4E9030101432068826848F2FF339A4315
:101B100011438160D4E9050108432168CA6822F0B5
:101B2000FF021043C86001E00EE016E02068016883
:101B300041F0010101602564202084F83D00256307
:101B400084F83E50002070BD01EB4106431EB3FBFC
:101B5000F6F35B1CB3E70120C2E701EB4101401E35
:101B6000B0FBF1F0401CC0F30B00B7E7A08601000A
:101B700080841E0000093D0040420F0010B586B071
:101B8000044614216846FEF796FB144920688842F3
:101B900021D113480021026842F00202026000686D
:101BA00000F0020005904FF4406000901220CDE953
:101BB0000101032003900420049069460948FFF7BF
:101BC00015FE07481030016841F48001016000688B
:101BD00000F48000059006B010BD000000580040E1
:101BE0003038024000040240024881680278114403
:101BF00081607047140000200B4810B5016841F463
:101C000000710160016841F480610160016841F484
:101C100080710160032000F06FF80F2000F006F8DB
:101C200000F024F8002010BD003C024070B50D4DBE
:101C300004464FF47A712878B1FBF0F00A4909683C
:101C4000B1FBF0F000F00CFB48B9102C07D20022D9
:101C50002146501E00F030F800206C6070BD01205D
:101C600070BD000014000020200000200A4808B5C4
:101C7000016841F480410160006800F480400090F8
:101C80000548001F016841F080510160006800F0C4
:101C90008050009008BD000044380240002809DB55
:101CA00000F01F02012191404009800000F1E02076
:101CB000C0F8001170470000F0B40E4B1B680C46D2
:101CC000C3F30223C3F10705042D00D90425191D10
:101CD000072901D2002300E0DB1E012606FA05F1E8
:101CE000491E214099409E40761E16403143F0BC6B
:101CF00002F037BD0CED00E0064900F0070208686D
:101D00004FF6FF03184040EA0220034A10430860E0
:101D1000704700000CED00E00000FA052DE9F047E7
:101D20000E46050065D0DFF81481D8F80000F7B240
:101D300000F00700B04207D288F80070D8F8000021
:101D400000F00700B04254D128683D4C810712D5FD
:101D5000400703D5206840F4E05020602878000751
:101D600003D5206840F4604020602068A96820F016
:101D7000F000084320602878C0072DD030496868FB
:101D80000839012812D0022813D0032811D009687D
:101D9000890700292DDA216821F003010143216020
:101DA000FFF722FE814641F2883A0EE00968890376
:101DB000EFE709688901ECE7FFF716FEA0EB0901E0
:101DC000514502D90320BDE8F0872068696800F01A
:101DD0000C00B0EB810FEFD1D8F80010404601F0B5
:101DE0000701B14207D90770006800F00700B04250
:101DF00001D00120E7E72878400705D52068E96889
:101E000020F4E050084320602878000706D52068B9
:101E1000296920F4604040EAC100206000F038F8F1
:101E20002168084AC1F30311515CC84006490860A3
:101E300006480068FFF7FAFE0020C4E7003C0240B5
:101E400008380240486000082000002018000020E8
:101E50000448054900680968044AC1F38221515CBD
:101E6000C840704720000020083802405860000831
:101E70000448054900680968044AC1F34231515CCD
:101E8000C840704720000020083802405860000811
:101E9000154810B5006810F00C02144813D014490E
:101EA000042A0FD0082A0ED10F4C241F2268236861
:101EB00002F03F025B0207D52068C0F38810A0FB48
:101EC000010106E0084610BD2168C1F38811A1FB9D
:101ED00000010023FEF776F92168C1F30141491C96
:101EE0004900B0FBF1F010BD083802400024F400B6
:101EF00040787D012DE9F84F04006ED02078DFF89E
:101F00004C93C007A9F104054AD009F10400016807
:101F1000C1F38101012908D00068C0F381000228C3
:101F20000AD1D9F80000400206D52868800337D5C9
:101F300060680028E1D033E06068B0F5803F10D0E1
:101F4000B0F5A02F286810D020F4803028602868D1
:101F500020F4802028606068A8B1FFF745FD0646A0
:101F60000DE0286840F48030F4E740F480202860D9
:101F7000F7E700BFFFF738FD801B642873D8286897
:101F80008003F7D50CE0FFF72FFD064605E000BF04
:101F9000FFF72AFD801B6428F0D828688003F7D457
:101FA0002078DFF8AC8280074FF0000A3ED5A748C2
:101FB000001D016811F00C0F08D00068C0F381000B
:101FC00002280BD1D9F80000400207D42868800706
:101FD00016D5E068012800D112E033E1E068B8B11D
:101FE0000120C8F80000FFF7FFFC064605E000BF2F
:101FF000FFF7FAFC801B0228C0D828688007F7D5B5
:102000002868216920F0F80040EAC10028600DE04E
:10201000C8F800A0FFF7E8FC064604E0FFF7E4FC80
:10202000801B02281FD828688007F7D42078000773
:1020300022D5864F87486169703771B101210160EF
:10204000FFF7D2FC064604E0FFF7CEFC801B022817
:1020500009D838688007F7D50EE0C0F800A0FFF770
:10206000C3FC064605E082E0FFF7BEFC801B0228A9
:102070007DD838688007F7D42078400768D5DFF826
:10208000CCB100270BF13C0BDBF80000C0000BD4F7
:10209000DBF8001041F08051CBF80010DBF80000B5
:1020A000012700F0805000906B4E3068C00510D4BE
:1020B000306840F480703060FFF796FC009005E0D7
:1020C000FFF792FC0099401A022850D83068C005EA
:1020D000F6D55E4EA0686C3601280FD00528306812
:1020E00010D020F001003060306820F00400306033
:1020F000A068B8B1FFF778FC00900FE0306840F0BE
:102100000100F4E740F004003060F7E7FFF76CFCF3
:102110000099411A41F28830814266D830688007C0
:10212000F4D50EE0FFF760FC009007E0FFF75CFCE1
:102130000099411A41F28830814256D830688007B0
:10214000F4D42FB1DBF8001021F08051CBF800104F
:10215000A069C8B33D49091D0968C1F3810102297D
:102160004AD00228504607D0C8F8600000E03CE0A2
:10217000FFF73AFC04463BE04746C8F86000FFF72B
:1021800033FC064605E000BFFFF72EFC801B02284B
:102190002BD828688001F7D4D4E907010843A16A45
:1021A0002E4A490802EB0141626A41EA8211084362
:1021B00094F82C1040EA0161C9F80010012038663B
:1021C000FFF712FC044606E03EE000BFFFF70CFC00
:1021D000001B022809D828688001F7D534E000BF29
:1021E000FFF702FC001B022802D90320BDE8F88F8C
:1021F00028688001F4D427E00128F7D0D9F800003E
:10220000E26900F4800191421CD1226A00F03F0192
:10221000914217D147F6C071626A0140B1EB821F4B
:1022200010D1A26A4FF0FF3300F4403103EB5202A9
:10223000B1EB024F06D194F82C1000F07060B0EBB7
:10224000016F01D00120D1E70020CFE70438024020
:1022500000004742800E4742007000400000FFFF30
:1022600010B5401EB0F1807F01D3012010BD4FF0AA
:10227000E02460610F21601702F073FA0020A06172
:1022800007202061002010BD70B590F83C20012A85
:1022900032D0012480F83C40022280F83D200368BF
:1022A0005A689D6822F070060A6832435A60134BE0
:1022B00002689A4214D0B2F1804F11D0104B9A426A
:1022C0000ED0104B9A420BD00F4B9A4208D00F4BB6
:1022D0009A4205D00E4B9A4202D00E4B9A4204D13C
:1022E000496825F080031943916080F83D40002142
:1022F00080F83C10084670BD022070BD000001400F
:102300000004004000080040000C004000040140B0
:10231000004001400018004010B5040003D094F8BC
:102320003D0010B107E0012010BD002084F83C0002
:10233000204600F01FF8022084F83D00211D20688F
:1023400001F098FC012084F8460084F83E0084F8EF
:102350003F0084F8400084F8410084F8420084F88B
:10236000430084F8440084F8450084F83D000020D0
:1023700010BD000008B50C4A01680C48914207D115
:10238000016841F002010160006800F0020009E00C
:10239000074A914207D1016841F0100101600068CD
:1023A00000F01000009008BD0004004040380240DA
:1023B0000010004090F83D10012901D00120704725
:1023C000022180F83D1000681149884214D0B0F114
:1023D000804F11D00F4988420ED00F4988420BD050
:1023E0000E49884208D00E49884205D00D498842DE
:1023F00002D00D49884204D1816801F00701062905
:1024000003D0016841F00101016000207047000025
:10241000000001400004004000080040000C0040A3
:1024200000040140004001400018004001680A6AB1
:1024300041F211131A4207D10A6A9B101A4203D1C2
:102440000A6822F001020A60012180F83D10002094
:10245000704770B5044690F83C000025012817D05D
:10246000012684F83C60022084F83D0020688268E0
:1024700022F0770222F47F4282600868502838D028
:102480000DDC20284FD005DC90B3102811D14AE094
:10249000022070BD302846D040280AD13BE0602899
:1024A0002FD070280DD0B0F5805F03D0B0F5005F5D
:1024B00012D0012584F83D60002084F83C002846B5
:1024C00070BDCB68D1E90121206801F048FC20688B
:1024D000816841F0770109E0CB68D1E901212068EA
:1024E00001F03DFC2068816841F480418160E1E7B2
:1024F00019E0CA684968206801F006FD502120688B
:1025000006E0CA684968206801F00FFD6021206874
:1025100001F02FFCCEE7CA684968206801F0F4FC9E
:1025200040212068F4E7226801461046F0E70000E9
:1025300010B586B0044614216846FDF7BCFE20683D
:10254000B0F1804F15D10C480021026842F0010221
:102550000260006800F00100059020200090022039
:10256000CDE901010120CDE9031069460348FFF7D9
:102570003DF906B010BD00003038024000000240B6
:1025800070B5044690F83C0000260D4601280FD097
:10259000012084F83C006AB1042A1DD0082A2FD0FB
:1025A0000C2A3FD00126002084F83C00304670BD44
:1025B000022070BD206801F0E5FB2068816941F0D0
:1025C000080181612068816921F00401816120682E
:1025D00081692A69114311E0206801F003FC206839
:1025E000816941F4006181612068816921F4806121
:1025F0008161206881692A6941EA02218161D2E70B
:10260000206801F025FC2068C16941F00801C16122
:102610002068C16921F00401C1612068C1692A698B
:10262000114311E0206801F047FC2068C16941F4C2
:102630000061C1612068C16921F48061C1612068C5
:10264000C1692A6941EA0221C161ACE710B5040001
:1026500003D094F83D0010B107E0012010BD002028
:1026600084F83C00204600F01FF8022084F83D006A
:10267000211D206801F0FEFA012084F8460084F84C
:102680003E0084F83F0084F8400084F8410084F85C
:10269000420084F8430084F8440084F8450084F83C
:1026A0003D00002010BD000008B50068B0F1804F6B
:1026B00008D10548016841F001010160006800F09F
:1026C0000100009008BD00004038024010B50446EB
:1026D000022249B104290ED0082913D094F84100F0
:1026E000012816D0012010BD94F83E000128F9D130
:1026F00084F83E200FE094F83F000128F2D184F8DE
:102700003F2008E094F840000128EBD184F84020F5
:1027100001E084F841200122206801F013FB1649F2
:102720002068164A884201D0904203D1436C43F49A
:10273000004343642068884213D0B0F1804F10D02A
:102740000F4988420DD00F4988420AD00E4988426D
:1027500007D0904205D00D49884202D00C498842EA
:1027600004D1816801F00701062903D0016841F016
:1027700001010160002010BD000001400004014083
:102780000004004000080040000C004000400140F0
:102790000018004038B5044690F84200202801D0C7
:1027A000022038BD51B14AB101202063002060638E
:1027B000204601F0FDFD216B012901D0012038BD2B
:1027C00021680A684968009121680C3151E8002F9E
:1027D00042F0100241E80023002BF5D138BD000083
:1027E0002DE9F0410C460068104988421BD1104F7A
:1027F00046158CB1B4420FD8A7F2022522463946BD
:10280000A81CFDF731FD2C80B44205D22819C4F56F
:102810000071801CFDF74FFD32463946BDE8F0419E
:102820000448FFF7B7BFBDE8F08100000010014089
:10283000320A0020D004002070470000F8B501687B
:1028400004460868CA684B6910F00F0F4FF0000586
:1028500059D003F0010602F49077374365D0C107E1
:1028600005D0D10503D5616C41F0010161644107D8
:1028700005D5D90703D0616C41F00201616481077D
:1028800005D5D90703D0616C41F0040161640107EB
:1028900007D502F02001314303D0616C41F00801FB
:1028A0006164616C00293AD0800604D5900602D597
:1028B000204601F096FC20684069616CC0F38010EE
:1028C000090700D460B3204601F056FC2068406937
:1028D000400621D52068143050E8001F21F0400147
:1028E00040E80012002AF5D1E06BA8B172490165F9
:1028F000E06BFEF7E5FD002811D0E06B016D01B043
:10290000BDE8F040084783060FD593060DD5204655
:10291000BDE8F84001F065BC2046FFF78DFFF8BD2B
:102920002046FFF789FF6564F8BD266B2023012E42
:102930007ED1C6067CD5D6067AD508684868009050
:1029400048694FF0020640064DD5E26B10684068BA
:102950004FF480770004000C3AD0A18D814237D922
:10296000E085D069B8422DD020680C3050E8001FB7
:1029700021F4807140E80012002AF5D1206814305B
:1029800050E8001F21F0010140E80012002AF5D1B3
:102990002068143050E8001F21F0400140E8001288
:1029A000002AF5D184F84230256320680C3050E8C5
:1029B000001F21F0100140E80012002AF5D1E06B61
:1029C000FEF735FD6663A08DE18D401A81B206E009
:1029D000A18D8142A8D1D069B842A5D166632046B5
:1029E000FFF7FEFEF8BDA08DE18D401A81B2E08DAB
:1029F0000028F7D00029F5D020680C3050E8002FCF
:102A000022F4907240E80027002FF5D1206814309E
:102A100050E8002F22F0010240E80027002FF5D1F6
:102A200084F84230256320680C3050E8002F00E025
:102A300006E022F0100240E80023002BF3D1CDE79E
:102A400005062BD5150629D594F841002128C9D1B2
:102A5000A068B0F5805F01D12069B0B1206A411C47
:102A60002162216800784860E08C401E0004000C60
:102A7000E084B7D12068C16821F08001C16020687E
:102A8000C16841F04001C160F8BD206A0088C0F310
:102A900008004860206A801C2062E5E74006F3D504
:102AA0005006F1D5CA68204622F04002CA6084F878
:102AB000413000F077F9F8BD7D40000870B50400A2
:102AC00004D094F84100002510B106E0012070BD4B
:102AD00084F84050204600F023F8242084F8410078
:102AE0002068C16821F40051C160204601F0DAFB82
:102AF0002068016921F4904101612068416921F059
:102B00002A0141612068C16841F40051C1606564D7
:102B1000202084F8410084F842006563002070BDE5
:102B20002DE9F04186B0064614216846FDF7C3FB47
:102B3000DFF80CC131684348022203230727424DC6
:102B40000024614553D13F491431D1F800C04CF005
:102B5000100CC1F800C0096801F01001059101686E
:102B600041F0010101600068694600F00100059034
:102B700058028DE81500CDE903372846FEF736FEEA
:102B8000334D32484FF000672860C5E901744FF4B7
:102B90008068C5E903486C61AC61EC612C62284631
:102BA0006C62FEF76FFD08B1FEF76BF8F563AE637C
:102BB000274D264860357830E5E802074020A5E833
:102BC0001101234845F814496030AC61EC612C6276
:102BD0006C62FEF757FD08B1FEF753F8B5630022AB
:102BE00011462520AE63FFF767F8252023E0194E34
:102BF000B14222D1134910310E6846F400360E60FE
:102C0000096801F400310591016841F0010101609A
:102C10000068694600F0010005900C208DE8150061
:102C2000CDE903372846FEF7E1FD002211462620B4
:102C3000FFF742F82620FFF731F806B0BDE8F08133
:102C40000010014030380240000002404064024061
:102C5000600500200044004090F84230202B01D055
:102C60000220704721B11AB10023036301F0F0BBC9
:102C7000012070470068124988421FD172B611487E
:102C8000017811488288B2F5806F0AD24388821D8C
:102C900099544188491CC1F3090141808188491C2C
:102CA0008180808862B6042803D306490120C91EAA
:102CB0008870012203490548FFF7CEBF7047000026
:102CC00000440040C3000020320C00201805002002
:102CD00070472DE9F843044690F84100984616469F
:102CE0000D46202802D00220BDE8F88385B17EB1D0
:102CF00000206064212084F84100FEF775FEA68460
:102D00008146E684A0682027B0F5805F02D003E00A
:102D10000120E9E7206910B12E4600250EE00026CB
:102D20000CE08021204601F0AEFBA8B9C6B116F830
:102D3000010B21684860E08C401EE084E08C4B462B
:102D40004FF00002CDF800800028EAD14FF040019A
:102D5000204601F098FB40B184F841700320C3E79E
:102D600035F8020BC0F30800E3E784F84170002057
:102D7000BAE790F84130202B01D00220704779B19A
:102D800072B101628284C28400214164212180F8F1
:102D900041100068C16841F08001C16000207047A7
:102DA000012070470068064B0021064A984201D175
:102DB00011707047044B9842FBD15170704700006E
:102DC00000100140C00000200044004070B5050024
:102DD0000C464FF0FF3606D02CB10846FDF776FAC8
:102DE000B0F57B7F01D9304670BD22462946BDE84B
:102DF000704001A001F016B925732E7478743D223D
:102E000025732200FEE70000304810B58188006875
:102E100089B20022FEF7E2FD2C4801221830818899
:102E2000006889B2FEF7DAFD284800221030818858
:102E3000006889B2FEF7D2FD244800222030818844
:102E4000006889B2FEF7CAFD204800222830818838
:102E5000006889B2FEF7C2FD1C480022303081882C
:102E6000006889B2FEF7BAFD184800223830818820
:102E7000006889B2FEF7B2FD144800224030818814
:102E8000006889B2FEF7AAFD104800222038818828
:102E9000006889B2FEF7A2FD0C480022183881882C
:102EA000006889B2FEF79AFD084800221038818830
:102EB000006889B2FEF792FD044808380022818834
:102EC0000068BDE8104089B2FEF788BD4C000020C4
:102ED00010B50D4C0022A08881B22068FEF77EFD5F
:102EE000012002F03BFAA088012281B22068FEF79F
:102EF00075FD1E2002F032FAA088002281B22068FF
:102F0000BDE81040FEF76ABD540000201CB528A0A3
:102F10000068009027A000680190FFF775FFFFF799
:102F2000D7FF6A460321012001F0F4FA032101AA28
:102F3000084601F0EFFA204CA08981B2032001F08D
:102F400099FB208881B2002001F094FBA08881B217
:102F5000012001F08FFB208981B2022001F08AFB61
:102F6000164C0020216801F067FB0120616801F028
:102F700063FB0220A16801F05FFB0320E16801F020
:102F80005BFB1034A08981B2032001F03FFB208855
:102F900081B2002001F03AFBA08881B2012001F04B
:102FA00035FB208981B2022001F030FB1CBD0000FE
:102FB000D300000000030000200600209400002041
:102FC00070B5164C002220212046FEF707FD002296
:102FD00040212046FEF702FD114D00224FF4005122
:102FE0002846FEF7FBFC002201212846FEF7F6FCEE
:102FF000002208212046FEF7F1FC00221021204685
:10300000FEF7ECFC012202212846FEF7E7FC2046F1
:10301000BDE8704001220421FEF7E0BC0010024030
:10302000000802407FB500241548009401940294E2
:103030001249039401604FF48031C0E90114046126
:10304000047680F820400903C1620125C56149105A
:10305000C460816280F830404561FDF71EFF08B111
:10306000FDF70FFECDE90045694605480294FDF7DE
:103070006BFE002801D0FDF704FE7FBD002001405B
:10308000F00000207FB500241548009401940294BC
:103090001249039401604FF48031C0E901140461C6
:1030A000047680F820400903C1620125C5614910FA
:1030B000C460816280F830404561FDF7EEFE08B1E2
:1030C000FDF7DFFD0095CDE9015469460448FDF7A1
:1030D0003BFE002801D0FDF7D4FD7FBD002101405B
:1030E000380100201CB500200D49009001900B48CC
:1030F00008600846FEF79DF808B1FDF7C2FD042000
:10310000009002200190002269460548FEF767F80A
:10311000002801D0FDF7B5FD1CBD00000074004083
:10312000300300201D4808B5016841F480010160AA
:10313000016801F480010091016841F4001101600F
:103140000068002200F40010009011461020FEF7E5
:10315000B3FD1020FEF7A2FD002211463820FEF735
:10316000ABFD3820FEF79AFD002211463A20FEF70B
:10317000A3FD3A20FEF792FD002211463B20FEF708
:103180009BFD3B20FEF78AFD002211464620FEF7FC
:1031900093FDBDE808404620FEF780BD3038024070
:1031A0002DE9F04F87B014216846FDF784F83F48B9
:1031B0000024016841F010010160016801F0100174
:1031C0000591016841F004010160016801F004010A
:1031D0000591016841F080010160016801F0800102
:1031E0000591016841F001010160016801F00101F0
:1031F0000591016841F002010160016801F00201DE
:103200000591016841F0080101600068DFF8A080C5
:1032100000F00800059000227E214046FEF7DEFB0C
:10322000DFF8909042F21306002231464846FEF73E
:10323000D5FBDFF884A040F2FB3700223946504628
:10324000FEF7CCFBDFF874B00022F91E5846FEF7FB
:10325000C5FB01224FF440415846FEF7BFFB7E20DC
:1032600000900125CDE90154694640460394FEF7DC
:10327000BDFA0096CDE90154694648460394FEF72D
:10328000B5FA0097CDE90154694650460394FEF71C
:10329000ADFA4CF2F8300090CDE901546946584639
:1032A0000394FEF7A3FA07B0BDE8F08F3038024070
:1032B000001002400008024000040240000C0240DE
:1032C0000D4810B50B4901600C49416000214FF4D5
:1032D00080428160C0E9031241618161C161016284
:1032E000FEF788FB002803D0BDE81040FDF7C9BCFD
:1032F00010BD000000580040A4030020A08601007B
:1033000010B58AB0002407941C2168460894FCF785
:10331000D2FF16484FF08041C0E9001440F2572117
:10332000C0E9024104618461FFF790F908B1FDF73B
:10333000A8FC079407A90D480894FEF7A5FF08B15B
:10334000FDF79FFC602000904FF49670CDE90104DA
:103350000022694605480494FFF712F908B1FDF709
:1033600090FC0248FFF7E4F80AB010BDF803002013
:1033700010B586B000241748009401940294039479
:1033800004941349059401600921C0E9011440F235
:10339000A311C0E903148461FEF7BEFF08B1FDF775
:1033A00070FC4FF48050009069460A48FFF751F8CE
:1033B00008B1FDF766FC2020CDE9040404A9054806
:1033C000FEF762FF002801D0FDF75BFC06B010BDE0
:1033D00000040040400400201CB500240E48009466
:1033E0000C490194C0E900145321C0E902418461F1
:1033F000FEF792FF08B1FDF744FC2020CDE9000460
:1034000069460548FEF740FF002801D0FDF739FC6A
:103410001CBD000000100040880400200C4810B5BE
:103420000A4901604FF4E1314160002181600C22C2
:10343000C160C0E904128161C161FFF73FFB002850
:1034400003D0BDE81040FDF71CBC10BD00100140CA
:10345000D00400200C4810B50A4901604FF4E13156
:103460004160002181600C22C160C0E904128161C9
:10347000C161FFF723FB002803D0BDE81040FDF732
:1034800000BC10BD0044004018050020FEE7FEE728
:10349000F0B500281FD004291DD30278552A1AD16F
:1034A000461816F8012CFF2A15D12E4A2C4B042958
:1034B000157803D000240122891E12E0002D0AD0C5
:1034C000596809B142780A70022D04D3D9680029DD
:1034D00001D080780860F0BD875C521C3C44E4B2A7
:1034E00092B28A42F8DB16F8022CA242F3D10122F2
:1034F000002431E08A42EEDA13F83460012E04D061
:10350000022E0AD0032E25D112E003EBC407865CFD
:103510007F68521C92B23E701CE0961C8E42DADC30
:10352000024403EBC40712887F6852BA3A8010E065
:10353000161D8E42CFDC0244178892F802C07FBA73
:103540003F04D27847EA0C27174303EBC4025268C2
:103550001760B2B2641CE4B2AC42CBD3F0BD000041
:1035600030060020BC00002070B500F055FD0100C1
:1035700052D02B4C6288C2F5807080B2814200D359
:103580000146284E89B3B01800F022FD6188084436
:103590003EE0002580B204E0715D552904D06D1C29
:1035A000ADB28542F8D30BE055B1421B71191D48ED
:1035B000FCF75AFE6088401B80B2608004282BD341
:1035C0000320628804E0315CFF290FD0401C80B2E8
:1035D0009042F8D3B2F5807F1ED1FF22711C1148B2
:1035E000FCF742FEFF206080D3E712E00028F1D014
:1035F000401C85B229460B48FFF74AFF6088A84265
:103600000BD3421B71190748FCF72EFE6088401B44
:10361000608060880428BCD270BD0020608070BDCE
:10362000BC0000203007002010B50C4600280BD04D
:10363000002C09D0202C00D920240146E2000348A8
:10364000FCF712FE0248047010BD00003006002096
:10365000BC0000207047000010B50C46FCF7C5FF09
:103660009FED051B53EC112BFCF7DEFEFCF7CAFFA8
:103670006070000A207010BD012FC1166CC1464059
:10368000012807D0022807D0032807D0042807D034
:1036900004A0704705A0704706A0704708A07047B7
:1036A0000AA07047554E4B4E4F574E004C4F575047
:1036B00041535300484947485041535300000000CC
:1036C00042414E44504153530000000042414E4499
:1036D00053544F50000000002DE9F0410D00074603
:1036E0004FF0000605D0002418E03846FDF7D8FC5E
:1036F00010B10020BDE8F08114213846FDF77AFCB6
:103700000028384602D0FDF749FDF2E7FDF7C2FB7D
:1037100006443846FDF742FD641CA4B2AC42E4D333
:10372000B6FBF5F080B2E5E72DE9F04F2DED088B03
:10373000050083B04FF00000044602904FF6FF7979
:10374000019023D0D248FEF735FE40F2FF31002031
:1037500000F05CFF0021084600F08CFFFDF744F804
:10376000DFF830B30026ABF6BE3AC820A6FB0070E7
:1037700007F57A774AF826703946002000F05CFF9A
:10378000FDF732F8B7F57A7F06D009E0002003B0E4
:10379000BDEC088BBDE8F08F4FF4FA60FEF714F82B
:1037A0006420FEF711F84021BB48FFF795FFDFF8D2
:1037B000EC82402128F81600B948FFF78DFF2BF85E
:1037C000160038F81600A04202D90446CDE9016778
:1037D000484500D28146761CB6B24FF4FA78464589
:1037E000C3D90CB340F2F511AEA000F07DFFB6A036
:1037F00000F07AFF00269FEDBC8ADFEDBC8AA74867
:1038000030F8160000EE100AF8EE400AB0EE680A32
:1038100000EE880A10EE100AFCF70DFF41EC100BC9
:10382000464505D1A7A004E0B1A000F05DFFADE7DB
:10383000B8A000905AF8261053EC102BB6A000F058
:1038400053FF761CB6B24645D9D9B7A000F04CFF5D
:10385000B6A000F049FF00269FEDBB8A30465946CE
:10386000DFEDBA8A9FEDBA9ADFEDBA9A9FEDBAAA58
:1038700031F8102000EE102AB8EE400A20EE280A97
:1038800020EE090A39EEC00A20EE0A0AB4EEC80A90
:10389000F1EE10FA02DDB0EE408A0646401C80B21E
:1038A0004045E5D99FEDAD0A0020F0EE00AA00BF2B
:1038B00031F81020B04200EE902AF8EE600A60EE77
:1038C000A80A60EE890A79EEE00A60EE8A0A01D958
:1038D00058EE2A0A401C80B2404530EE200AE7D953
:1038E000DFED9F0A5FF0000780EE20BA3BF817007B
:1038F000B74200EE100AB8EE400A20EE280A20EE89
:10390000090A39EEC00A20EE0A0A01D918EE2A0A7D
:1039100030EE4B0A10EE100AFCF78DFE41EC100B56
:10392000474501D167A000E07AA000905AF827101F
:1039300053EC102B78A000F0D7FE7F1CBFB2474598
:10394000D4D979A000F0D0FE86A000F0CDFE534A75
:10395000002301261188B2F8E803B2F8F421322CD2
:103960007ED300EE104AF8EE400A9FED830A20EE67
:10397000801A00EE901AF8EE601ADFED800AB4EEBD
:10398000E11AF1EE10FA10D201EE104AB8EE411A27
:1039900061EE201A01EE100AB8EE411AF4EEC11AD7
:1039A000F1EE10FA01DD6E706AE001EE104AB8EE39
:1039B000411A21EE201A00EE901AF8EE600AB4EED9
:1039C000E01AF1EE10FA10DD00EE904AF8EE600A0F
:1039D00060EE800A00EE100AB8EE400AF4EEC00A6B
:1039E000F1EE10FA01D2022047E0019FB6EE000A84
:1039F000BF1FB7F5F57F1FD200EE904AF8EE600AC0
:103A000020EE801A00EE901AF8EE600AB4EEE01A8A
:103A1000F1EE10FA10DD00EE904AF8EE600A20EEAA
:103A2000801A00EE900AF8EE600AB4EEE01AF1EEA9
:103A300010FA01DD032020E000EE901AF8EE600A93
:103A400020EE801A00EE902AF8EE600AB4EEE01A3A
:103A5000F1EE10FA13DD00EE900AF8EE600A00E0D5
:103A60000DE060EE800A00EE102AB8EE400AF4EE97
:103A7000C00AF1EE10FA02DD0420687000E06B70FD
:103A80002E700298A8602C83A5F81A9001207EE67B
:103A900040040020F6210020F00000200C1E002031
:103AA000380100205B53574545505D207461626CBE
:103AB0006520626567696E2C20706F696E74733D56
:103AC00025750D0A00000000416D706C6974756405
:103AD000652050726F66696C652028567070206D85
:103AE00056293A0D0A5B00004D154C3EDC68284013
:103AF0005B53574545505D206661696C3A2070659F
:103B0000616B206C6576656C206973207A65726FD5
:103B10000D0A00002C0000005B256C752C252E3250
:103B2000665D2573000000005D0D0A00506861733A
:103B3000652050726F66696C652028446567726500
:103B40006573293A0D0A5B0000C079C433335340D2
:103B500000008039713DEA3F0000C84200000000CB
:103B60000080FA435B53574545505D207461626C99
:103B70006520656E640D0A003333333F9A99993E90
:103B80007047000070B54FF480710E4C4D00012855
:103B90000ED0022812D0032812D101222046FDF7B0
:103BA0001DFF012229462046BDE87040FDF716BFE3
:103BB00000222046FDF712FF0022F3E70022EDE786
:103BC00070BD0000000C0240FEF70EB830B593B097
:103BD00030216846FCF76FFB14210CA8FCF76BFB47
:103BE0001E480025016841F080510160006800F026
:103BF000805011901A48016841F4804101600068CA
:103C0000022400F4804011900120009000040190F3
:103C10008001CDE90640192008904FF4A870CDE945
:103C2000090404200B906846FEF764F908B172B6E7
:103C3000FEE70CA90F2081E831004FF4A0500F904F
:103C40004FF48050109005210CA8FEF767F800286B
:103C500001D072B6FEE713B030BD0000403802401C
:103C6000007000400248016841F470010160704733
:103C700088ED00E0F0B50268274B284D284E294F0B
:103C8000294C4FF0804C984209D0604507D0A8429B
:103C900005D0B04203D0B84201D0A04204D122F0F6
:103CA000700E4A6842EA0E0298421BD0604519D055
:103CB000A84217D0B04215D0B84213D0A04211D0BC
:103CC0001A4DA8420ED01A4DA8420BD0194DA84249
:103CD00008D0194DA84205D0184DA84202D0184D61
:103CE000A84203D122F44075CA682A434D6922F0E4
:103CF00080022A438D68C5620D688562984201D0B2
:103D0000A04201D109690163016841F00401016029
:103D1000012141610260F0BD00000140000400404B
:103D200000080040000C0040000401400040014039
:103D3000004401400048014000180040001C0040C1
:103D40000020004010B501F01F030121046A9940D2
:103D50008C430462016A9A401143016210BD10B5A0
:103D6000846842EA032224F47F440A4322438260A7
:103D700010BD826822F070020A4342F007018160A0
:103D800070470000F0B5036A026A22F00102026285
:103D900042688469124E24F073050C682C4323F0AA
:103DA00002058B682B430D4DA84201D0B04205D1CE
:103DB00023F00807CB683B4323F00403A84201D05B
:103DC000B04205D14D6922F4407215438A692A43F5
:103DD00042608461496841630362F0BD00000140B4
:103DE00000040140F0B5026A036A23F01003036285
:103DF000436884690D6824F4E64444EA05248D6828
:103E000022F0200242EA05120F4D104EA84201D0C6
:103E1000B04206D1CF6822F0800242EA071222F0B7
:103E20004002A84201D0B04207D14D6923F440635B
:103E300043EA85038D6943EA8503436084614968E9
:103E400081630262F0BD00000000014000040140F7
:103E5000F0B5026A036A23F4807303624368C4699D
:103E600022F4007224F073050C68124E2C438D6806
:103E700042EA05220E4DA84201D0B04206D1CF68D9
:103E800022F4006242EA072222F48062A84201D0B2
:103E9000B04207D14D6923F4405343EA05138D69BD
:103EA00043EA05134360C4614968C1630262F0BD1F
:103EB000000001400004014030B5046A026A22F4A7
:103EC000805202624268C3690D6823F4E64343EA04
:103ED00005238D6824F4005444EA0534084DA842B3
:103EE00002D0084DA84204D14D6922F4804242EA32
:103EF00085124260C36149680164046230BD0000FC
:103F0000000001400004014010B5036A046A24F077
:103F100001040462846924F0F00444EA021423F0EA
:103F20000A020A438461026210BD10B5036A046A82
:103F300024F010040462846923F0A00324F4704484
:103F400044EA023243EA01118261016210BD0000BD
:103F50002DE9F041144E3078052802D00020BDE84C
:103F6000F081124C032012A725782070FFF70AFE7B
:103F700012A115A0FEF72AFF1448FFF7D5FB20B1C8
:103F800012484078FFF77CFB074639460EA0FEF743
:103F90001DFF28462570FFF7F5FDFCF7EDFD00201D
:103FA000307070600120DAE7B400002000000020CB
:103FB0005343414E5F4641494C0000005343414E3C
:103FC0004E494E470000000074390000D400002024
:103FD00070B5040007D031B172B60E4A908888429D
:103FE00003D2908802E0002070BD08460023951D92
:103FF00008E011884E5D491CE654C1F309015B1CC1
:1040000011809BB28342F4D39188091A918062B6E1
:1040100070BD0000320C002001488088704700000D
:10402000320C00200FB470B5104D687820B14FF0FD
:10403000FF3070BC5DF814FB05AB40F2FD310C485D
:10404000049A00F061FB041EF3DD094809A1204435
:1040500009880180FF21817001206870E01C82B214
:1040600003490548FEF785FE2046E2E7C000002030
:1040700038120020FFFFFF001805002010B5806BEC
:104080000021C185FEF7D8FB10BD70B5846B206898
:10409000406994F84110C0F3C0100025212904D1D3
:1040A00018B1E584204600F08EF82068406994F845
:1040B0004210C0F38010222904D118B1E5852046B2
:1040C00000F05AF8606C40F0100060642046FEF783
:1040D000B3FB70BD10B50146806B096809684FF0ED
:1040E0000002C9052ED4C28501680C3151E8003F99
:1040F00023F4807341E80034002CF5D101681431B9
:1041000051E8003F23F0010341E80034002CF5D1D1
:104110000168143151E8003F23F0400341E80034C6
:10412000002CF5D1202180F84210016B012909D122
:1041300001680C3151E8003F23F0100341E80034DE
:10414000002CF5D14263016B012902D0FEF792FDEC
:1041500010BD818DFEF744FB10BD10B5806B0121B1
:104160004163016B012902D0FEF7B2FD10BD818DC4
:104170004908FEF735FB10BD01680C3151E8002FEE
:1041800022F4907241E80023002BF5D1016814312C
:1041900051E8002F22F0010241E80023002BF5D165
:1041A000016B012909D101680C3151E8002F22F07F
:1041B000100241E80023002BF5D1202180F84210A5
:1041C00000210163704701680C3151E8002F22F093
:1041D000C00241E80023002BF5D1202180F84110D6
:1041E000704708B590F84210222901D0022008BD7E
:1041F00082684FF480539A4201D1016921B1816AEA
:104200009A421BD04AB10AE00268816A5268C2F33E
:1042100008020A80816A891C08E0026972B102689A
:10422000526802F07F020A70816A491C8162C18D66
:10423000491E0904090CC18503D01BE002685268BD
:10424000F1E70168CA6822F02002CA600168CA6802
:1042500022F48072CA6001684A6922F001024A6150
:10426000202180F8421000214163026B012A03D013
:10427000FEF700FD002008BD016301680C3151E824
:10428000002F22F0100241E80023002BF5D1016835
:104290000A68D20602D50A6849680091818DFEF746
:1042A0009FFAE7E770B5044600680169E26821F407
:1042B0004051114301612169A068E26908436169C5
:1042C000114308432168CA6849F20C639A430243C8
:1042D000CA6020684169A26921F4407111434161BB
:1042E00031492068884202D03049884202D1FDF726
:1042F000BFFD01E0FDF7ACFDE26900231921642553
:104300003226B2F5004F626828D0A0FB0101930F5E
:104310009200FBF757FF0146B0FBF5F06FF0180273
:10432000504301EB800006EB0010B0FBF5F000F00D
:10433000F002B1FBF5F002EB0012B1FBF5F06FF00B
:104340001803584301EB800006EB0010B0FBF5F0BA
:1043500000F00F0021681044886070BDA0FB0101CF
:1043600092185B41FBF72EFF0146B0FBF5F002010E
:10437000B1FBF5F06FF01803584301EB800006EB3A
:10438000C000B0FBF5F000F0F80002EB4002B1FB1A
:10439000F5F0584301EB800006EBC000B0FBF5F0F0
:1043A00000F00700D6E700000010014000140140B3
:1043B00038B581620446828500201346606422225B
:1043C00084F84220E56B1F4AEA63E56B1E4A2A64C3
:1043D000E56B1E4AEA64E26B10650A462168E06BF1
:1043E000091DFDF7B9F930B110206064202084F870
:1043F0004200012038BD20680168406800902069B3
:1044000048B120680C3050E8001F41F4807140E84A
:104410000012002AF5D12068143050E8001F41F046
:10442000010140E80012002AF5D12068143050E85C
:10443000001F41F0400140E80012002AF5D10020A1
:1044400038BD0000D54000085B4100088B400008E3
:1044500081628285C28500214164222180F8421058
:10446000016921B10168CA6842F48072CA600168BA
:104470004A6942F001024A610068C16841F02001C6
:10448000C160002070472DE9F843984617460D4655
:104490000446089E24E0701C22D0FDF7A5FAA0EB8C
:1044A0000800B0421AD8CEB12068C168490717D5B4
:1044B000802D15D0402D13D00168C94309070FD4B2
:1044C00001680025406800902046FFF755FE08204F
:1044D000606484F840500120BDE8F8830320FBE7C6
:1044E0002068006835EA000004D00020B842D2D02D
:1044F0000020F1E70120F9E70148FEF79FB900002D
:10450000D00400200148FEF799B9000018050020EA
:10451000FEE700002DE9F05F3B4C05468946A08888
:104520009346002681B232462068FDF757FA04F11F
:10453000080A0022BAF80410DAF8000089B2FDF780
:104540004DFAA4F13008A088002281B22068FDF75E
:1045500045FA2806B8F80410D8F8000089B201D549
:10456000012200E00022FDF739FAA088012281B281
:104570002068FDF733FA6806050E022000F0EEFE13
:10458000761CF6B2082EDED3A088002281B2206805
:10459000FDF724FA00252BE01BF805700026A08803
:1045A000002281B22068FDF719FA3806B8F8041025
:1045B000D8F8000089B201D5012200E00022FDF701
:1045C0000DFAA088012281B22068FDF707FA78066B
:1045D000070E022000F0C2FE761CF6B2082EDED3D3
:1045E000A088002281B22068FDF7F8F96D1CEDB2B9
:1045F0004D45D1D3BAF80410DAF80000BDE8F05FF9
:1046000089B20122FDF7EAB95C00002008B50A462C
:104610000346B1F5806F00D37222002000906946F6
:104620001046FCF78BF91846FCF7C2F96A460321DD
:104630000620FFF76FFF08BD38B504460B4A481E39
:10464000904200D30A49002000900846FBF7CDFFB6
:1046500041EC100B6846FCF717FB2046FCF7A8F965
:1046600004216A460846FFF755FF38BD0065CD1D99
:1046700052BF010038B50A460446B1F5B47F00D3F5
:1046800000220020009069461046FEF7E5FF204614
:10469000FCF78EF96A4602210520FFF73BFF38BD83
:1046A0000C4910B5002008800B49087048700B4970
:1046B0000880488088804FF40072A1F50071084896
:1046C000FEF768F804490122BDE81040C91C0548FE
:1046D000FEF7C2BA30080020C0000020320C0020D3
:1046E000D0040020180500200FB4054B10B503A915
:1046F000044A029800F0A4FA10BC5DF814FB000014
:10470000AD530008CC0000207CB50C001D461646B9
:10471000014601D0601E00E00020CDE90010064BEC
:104720006A462946304600F08BFA002C02D0009AE7
:10473000002111707CBD00004753000841000802B1
:1047400018BF04200A0E18BF40F001004FF07F424E
:1047500032EA010108BF40F00200012808BF05202D
:1047600070470907090E002804DB00F1E02080F8FB
:104770000014704700F00F0000F1E02080F8141DD5
:104780007047000000B510EE101A2DED028B81B0BD
:10479000524A6846B2EB410F2ED94FF0E640B0EBDB
:1047A000410F94BF00204FF0FF3000900098B0EE12
:1047B000408A00286ADB10F0010F4BD068EE080A2F
:1047C0009FED471A9FED470A00EE810A9FED461ABA
:1047D00010F0020F00EE801AB7EE000A00EE810A18
:1047E00002BF01B0BDEC028B00BD00BF01B0B1EE55
:1047F000400ABDEC028B00BD3C4B21F000429342CD
:1048000041D911F0004FDFED3A0A20EE201ADFED1A
:10481000390A19BF31EE601A71EE200A31EE201A02
:1048200071EE600ABDEEE01A11EE100A9FED321A29
:1048300000F0030000EEC10A9FED301A009000EE78
:10484000C10A9FED2F1A00EEC10A9FED2E1A00EE4D
:10485000C10AABE728EE080A9FED2B1ADFED2B0A01
:1048600010F0020F40EE410A9FED291A00EE201AC7
:1048700061EE000AB0EE480A08EE200AB6D101B097
:10488000BDEC028B00BD00F059F88FE718EE100A5E
:104890004000B0F17F4F0DD218EE100AFFF74EFF27
:1048A000042808BF00F042F8B0EE480A01B0BDECA1
:1048B000028B00BD09D1012000F0FAF801B0BDEC77
:1048C000028B5DF804EB00F029B801B0B0EE480AA5
:1048D000BDEC028B5DF804EB00F01CB8B61F927EB5
:1048E000B93AB2BACA9F2A3DDDFFFFBE490E49461A
:1048F00083F9223F0000004B0000C93F00A0FD39B2
:104900000020A2331A61342C336D4C39DA82083C12
:10491000A0AA2ABE30EE000A70470000DFED020AAE
:1049200080EEA00A70470000000000009FED020A20
:1049300020EE000A70470000000000102DE9F00191
:104940004FF07F42B2EB410F9FBF4FF0FF3101604C
:10495000BDE8F00170474FF0004242EA0123C1F385
:10496000C752783A551112F01F0C434CCCF1200677
:104970007C44C1F3C752A2F178024FEA621204EB01
:10498000820254F8254008BFD2E9015612D055687A
:1049900004FA0CF425FA06F73C43976805FA0CF57F
:1049A00027FA06F8D26807FA0CFCF24045EA080537
:1049B0004CEA0206A4FB034CA5FB0352A6FB0363CF
:1049C0001D449D4234BF012600261319334416B1FD
:1049D000934202D903E0934201D2012200E0002277
:1049E000624402F1200C9206DC0C42EA443200EEF2
:1049F000102A5B03DFED210AF8EEC01A00EE103A30
:104A00004FEA9C1C11F0004FB8EE400AC0F800C0FD
:104A100020EE201A00EE105ADFED190AB8EE400A17
:104A200020EE200A71EE810A70EE800A10EE902AC4
:104A300002F500626FF30B0200EE902A70EEE11AAD
:104A400031EEC11ADFED101A30EE411A9FED0D0A5A
:104A500020EE800A01EE210A9FED0C1A00EE810A79
:104A600004BFBDE8F0017047CCF180510160BDE8A2
:104A7000F001B1EE400A7047EC160000000000366D
:104A80000000802C22AAFD29DB0FC92F0000C92FAE
:104A900002E008C8121F08C1002AFAD17047704707
:104AA000002001E001C1121F002AFBD17047000065
:104AB0000149086070470000D00000202DE9FF5F29
:104AC00082B00021DDE90430020DDDF840B003437F
:104AD00018D044F61050A2F2FF3242431514119838
:104AE00001281FD0A5EB0B00401C5FEA000A4FF025
:104AF00000064E4FDFF83891B046504615D5CAF142
:104B0000000413E0119801244AA3012801D16FEA9F
:104B10000B010298119AC0E90031C0E9024206B0C7
:104B2000BDE8F09FCBF10000DFE704460021404ADA
:104B3000491842EB0450CDE9001012E0E00707D01D
:104B400032463B4640464946FBF76EFC8046894666
:104B500032463B4610461946FBF766FC06460F46B2
:104B60006410002CEAD1DDE90401DDE90023BAF18B
:104B7000000F06DAFBF758FC42464B46FBF754FCA5
:104B800005E0FBF7C3FC42464B46FBF7BFFC04467F
:104B90000E460022284BFBF761FD03D84FF0FF3093
:104BA000014607E00022254B20463146FBF795FBE6
:104BB000FBF7EFFD102409E0002C0ADB0A2200239A
:104BC000FBF700FB039B30321A55641E50EA0102CA
:104BD000F2D1641C039AC4F111031444119A012AFE
:104BE00003D0012208430DD10AE0084304D000207D
:104BF0004FF0110B119072E7A3EB0B056D1E0DE04A
:104C00005B4504DD4FF0000205F1010504E003DA25
:104C10004FF00002A5F10105002AECD0029811998D
:104C2000C0E90231C0E9004579E700000000144006
:104C30000000F03F300000000000F0430000E03FC3
:104C40002DE9FF4F95B09A46884606460025EEE1CD
:104C5000252877D100242746F94A0121039400E052
:104C6000044316F8013F203B01FA03F01042F7D14C
:104C700030782A2811D06FF02F033078A0F130025D
:104C8000092A16D8039A44F0020402EB820203EBCD
:104C900042021044761C0390EFE758F8042B03926D
:104CA000002A03DA504244F40054039044F0020412
:104CB000761C30782E2816D116F8010F44F0040423
:104CC0002A280DD06FF02F023078A0F13003092B85
:104CD00009D807EB870302EB4303C718761CF3E7F9
:104CE00058F8047B761C30786C280FD006DC4C28F2
:104CF00017D068280DD06A2814D104E0742810D089
:104D00007A280FD10DE044F400140AE044F4801432
:104D100001E044F440147278824202D104F5801418
:104D2000761C761C307866280BD013DC582877D098
:104D300009DC002875D04528F6D04628F4D047284D
:104D40001AD193E118E0632835D0642879D065281A
:104D500012D18BE1702873D008DC6728F1D0692864
:104D60006FD06E280DD06F2806D1ACE073282CD000
:104D7000752874D0782853D05246179990476D1CE7
:104D800054E1C4F30250022809D003280DD0D8F80A
:104D9000001004280DD00D6008F1040846E1D8F891
:104DA0000010EA17C1E90052F6E7D8F800100D80AC
:104DB000F2E70D70F0E718F8041B8DF800100020E2
:104DC0008DF80100EB46012003E058F804BB4FF0DA
:104DD000FF3061074FF0000102D40DE009F101013D
:104DE0008946B9420FDA8145F8DB1BF80910002922
:104DF000F4D108E009F1010189468142FADB1BF890
:104E000009100029F6D103985346A0EB0907214663
:104E10003846179A00F080FA284400EB090507E0AD
:104E200044E008E10DE01BF8010B5246179990474A
:104E3000B9F10109F7D2534621463846179AF2E0F4
:104E400039E00A21C4F302524FF0000B0091022A0C
:104E500006D058F8040BC117032A09D00AE023E052
:104E600008F1070020F00702F2E80201904605E091
:104E700000B2C117042A01D140B2C117002906DAD5
:104E80000A460021404261EB02012D2202E0220588
:104E900004D52B228DF80420012203E0E20701D083
:104EA0002022F7E7914657E00A2100E010214FF059
:104EB000000B00910BE010214FF0000B44F00404B4
:104EC0000827009103E008204FF0000B0090C4F386
:104ED0000252022A05D058F8040B0021032A08D0F8
:104EE00008E008F1070020F00702F2E8020190460E
:104EF00003E080B2042A00D1C0B24FF000092207BB
:104F00002AD53278702A07D0DDF800C08CF0100C5A
:104F10005CEA0B0C05D00EE040228DF80420012243
:104F200008E050EA010306D030238DF804308DF8F4
:104F3000052002229146009B83F0080353EA0B03ED
:104F40000AD150EA010201D1620705D530228DF85D
:104F500004204FF001097F1E3278582A04D039A26C
:104F60000C920CAA02920BE03BA2F9E75B46009A76
:104F7000FBF728F90C9B9B5C029A521E029213705D
:104F800050EA0102F2D1029804A9081A00F1200B9C
:104F9000600702D524F4803400E001275F4502DD7C
:104FA000A7EB0B0000E0002000EB0B010090039842
:104FB0004944401A0390E00306D453462146179A09
:104FC000039800F0A9F90544002706E001A852461D
:104FD000C05D179990476D1C7F1C4F45F6DBE003C1
:104FE0000CD553462146179A039800F095F90544CD
:104FF00004E030205246179990476D1C0099481ED6
:1050000000900029F5DC08E00298029952460078E9
:10501000491C0291179990476D1CBBF10001ABF13F
:10502000010BF1DC5BE100F065F90544761C30789A
:1050300000287FF40DAE19B02846BDE8F08F0000BF
:10504000092801003031323334353637383961625E
:105050006364656600000000303132333435363722
:10506000383941424344454600000000600700D4FF
:10507000062708F1070020F00700F0E80223804629
:1050800003F0004C5FEA0C0001D097A009E0200576
:1050900001D596A005E0E00701D095A001E0AFF2B0
:1050A0004C001390307823F0004365280CD006DCC8
:1050B000452809D046281DD047287FD13BE06628E7
:1050C00018D067287AD136E00021112F01DB11209A
:1050D00000E0781CCDE9000104A90CA8FFF7EEFC64
:1050E000DDE90D010C9A4FF0000B07F10109109258
:1050F00000914EE04FF000400097CDE9011004A967
:105100000CA8FFF7DBFCDDE90D020C9B0F994FF0BB
:10511000000B91461093009211B9791C00EB010924
:10512000B7EB090003D4C0F1FF3B07F10109A9EB7C
:105130000700019042E0012F00DA01270021112F22
:1051400001DD112000E03846CDE9000104A90CA8DA
:10515000FFF7B4FCDDE90D010C9A00914FF0000B54
:10516000B946109221070FD4009A4A4503DA9146B6
:1051700001E0A9F10109B9F1010F05DD109AA9F1CA
:105180000101515C3029F4D0B84202DA10F1040F69
:1051900003DA0121CDE9011010E0002803DC83448B
:1051A000A9EB000102E0411C494500DD8946A0EB66
:1051B0000B00401C01904FF000400290200705D4E6
:1051C0000198484502DB4FF0FF30019000208DF838
:1051D0004B0002980DF14B07B0F1004F25D0022093
:1051E0000C902B200D90029800280CDA404202907F
:1051F0002D200D9007E00A210298FBF747FA303185
:10520000029007F8011D0C99481E0C900029F2DC51
:1052100002980028EFD1791E0D980870307800F0C0
:10522000200040F0450007F8020D11A8C01BC01D6A
:1052300002901398007800B1012000EB0901019859
:1052400001EBE071029801440398401A401E03905C
:10525000E00306D453462146179A039800F05CF801
:1052600005441398007818B15246179990476D1C61
:10527000E00323D553462146179A039800F04CF8D3
:1052800005441BE0BBF1000F07DB0098584504DD27
:105290001098179910F80B0001E01799302052462A
:1052A000904701980BF1010B401E05F1010501909B
:1052B00004D12E205246179990476D1CB9F1000178
:1052C000A9F10109DEDC05E017F8010B5246179938
:1052D00090476D1C0299481E02900029F4DC534649
:1052E0002146179A03989EE62D0000002B0000002F
:1052F000200000002DE9F041044600251E46174617
:10530000880404D405E039462020B0476D1C641E93
:10531000F9D52846BDE8F0812DE9F0410446002585
:105320001E469046C80301D5302700E02027880498
:1053300004D505E041463846B0476D1C641EF9D5DA
:105340002846BDE8F0814A68002A06D00A68531C46
:105350000B6010704868401E4860704700EB4000CA
:105360008000401EFDD270470B48016841F08071FB
:1053700001600A4800214160016841F001010160BB
:10538000074808490068B0FBF1F1074800290160AF
:1053900001D1012101607047FCED00E0001000E048
:1053A0002000002040420F002400002038B50446B1
:1053B0008DF800004FF0FF33012269460248FDF7E7
:1053C00088FC204638BD0000D00400202DED028B63
:1053D000FCF712FCFEF7FAFBFDF7E2FEFDF7A2FE7A
:1053E000FEF71CF8FEF736F8FDF71CFEFDF74AFE47
:1053F000FDF7BEFFFDF764FFFDF774FEFDF7ECFF60
:10540000FDF77EFFFFF7B0FF00216A48FDF75EF968
:105410009FED698A4FF47A7840F272664CF2503709
:10542000B0EE480A3246444641463846FBF7A2FBF6
:1054300062A0FFF759F9FDF7C3FDFDF767FDFBF724
:105440009BFB694DAF602878FEF79CFBFFF728F9BE
:10545000FBF736FCFBF77AFA2146B0EE480A3246F3
:105460000846FBF7E3FA614C00262878FEF78AFB32
:10547000FEF77AF8FEF76CFD0028F6D128780128AF
:1054800002D0022832D038E02078042804D0012845
:105490001CD0022825D030E0606810F0FF0F03D048
:1054A000C0B2012802D00EE0022034E041460020C4
:1054B000FFF7C2F840F251110020FFF7A7F8FBF701
:1054C00093F9C5F8088026706660CEE76168002908
:1054D000F9D00020FFF7B0F8FBF786F96068A86004
:1054E000F1E760686860FBF733FAECE7207804289E
:1054F0000ED0012813D0022839D020780928B4D141
:10550000207910F0FF0FDED1FBF736FBAF60DAE752
:1055100020790128A9D12870FEF734FBD3E7A888A9
:10552000D4F804A081B25046FBF7DEFB5FEA000925
:105530000ED051460020FFF77FF849460020FFF7C4
:1055400065F8C5F808A0A5F80290C5E903A90BE025
:10555000EE602E616E8000210846FFF76DF8002195
:105560000846FFF753F8AE60FBF73EF9ABE761681A
:105570006960A8680028A6D089B2FBF7B5FB5FEA8E
:1055800000090BD001460020FFF740F8FBF72CF98B
:10559000A5F80290A868C5E9030994E70021084628
:1055A000FFF734F8FBF720F96E80A868C5E9030619
:1055B00089E70000F8030020000000005541525424
:1055C0003120726574617267657420746573743A12
:1055D0002048656C6C6F2066726F6D205553415288
:1055E00054310D0A0000000000000020B40000202B
:1055F00064000000E8035100640000004C045B00FC
:1056000064000000B0045D00640000001405670041
:10561000640000007805710064000000DC057B0078
:10562000640000004006850064000000A4068F00AE
:105630006400000008079100640000006C079B00F4
:1056400064000000D007A500C8000000E803510076
:10565000C80000004C045B00C8000000B0045D00FE
:10566000C800000014056700C8000000780571003C
:10567000C8000000DC057B00C80000004006850073
:10568000C8000000A4068F00C800000008079900A9
:10569000C80000006C07A300C8000000D007A500E8
:1056A0002C010000E80351002C0100004C045D00B7
:1056B0002C010000B00465002C01000014056F00EF
:1056C0002C010000780579002C010000DC05890020
:1056D0002C010000400690002C010000A406970059
:1056E0002C0100000807A4002C0100006C07AB008F
:1056F0002C010000D007B50090010000E80359001C
:10570000900100004C04630090010000B0046D00A3
:1057100090010000140577009001000078058100D9
:1057200090010000DC05910090010000400695000A
:1057300090010000A4069F00900100000807A90046
:10574000900100006C07B30090010000D007C30077
:10575000F4010000E8036100F40100004C04700053
:10576000F4010000B0047A00F40100001405810087
:10577000F401000078059100F4010000DC059D00B3
:10578000F40100004006A900F4010000A406AF00E7
:10579000F40100000807BD00F40100006C07C4001C
:1057A000F4010000D007CD0058020000E8036D00AE
:1057B000580200004C04770058020000B004830037
:1057C00058020000140590005802000078059E0061
:1057D00058020000DC05A800580200004006B30093
:1057E00058020000A406C000580200000807CE00BE
:1057F000580200006C07D30058020000D007E500F3
:10580000BC020000E8037600BC0200004C047D00EE
:10581000BC020000B0049300BC02000014059B0011
:10582000BC0200007805AE00BC020000DC05B90037
:10583000BC0200004006CB00BC020000A406D5005C
:10584000BC0200000807DE00BC0200006C07E90093
:10585000BC020000D007F30020030000E803800032
:10586000200300004C048F0020030000B004A000BF
:10587000200300001405A700200300007805BF00E6
:1058800020030000DC05C900200300004006CB0017
:1058900020030000A406E300200300000807F30033
:1058A000200300006C07F90020030000D0070A0164
:1058B00084030000E8038900840300004C049B007B
:1058C00084030000B004A300840300001405BA00A0
:1058D000840300007805C60084030000DC05D600C0
:1058E000840300004006E20084030000A406F100E7
:1058F000840300000807FE00840300006C07160103
:1059000084030000D0071F01E8030000E8039300B0
:10591000E80300004C04A800E8030000B004B40051
:10592000E80300001405C900E80300007805D4006E
:10593000E8030000DC05EC00E80300004006FB0083
:10594000E8030000A4060901E803000008071D01A0
:10595000E80300006C072C01E8030000D0073C01BD
:105960004C040000E8039A004C0400004C04B10011
:105970004C040000B004C2004C0400001405D50023
:105980004C0400007805E4004C040000DC05FF0036
:105990004C04000040060E014C040000A4061E0149
:1059A0004C040000080728014C0400006C0741016A
:1059B0004C040000D0075601B0040000E803B0001A
:1059C000B00400004C04B700B0040000B004D700DD
:1059D000B00400001405DD00B00400007805EB0001
:1059E000B0040000DC050901B004000040061B0102
:1059F000B0040000A4063A01B004000008073B010F
:105A0000B00400006C075B01B0040000D007720115
:105A100014050000E803B200140500004C04C700A0
:105A200014050000B004E500140500001405F5009D
:105A3000140500007805060114050000DC051C01B2
:105A40001405000040062A0114050000A4064B01BD
:105A50001405000008076001140500006C077101BF
:105A600014050000D0077E0178050000E803BA00A5
:105A7000780500004C04D50078050000B004F00063
:105A800078050000140502017805000078051D0165
:105A900078050000DC053A01780500004006430166
:105AA00078050000A40666017805000008076B0170
:105AB000780500006C07980178050000D007A80160
:105AC000DC050000E803C700DC0500004C04E90029
:105AD000DC050000B0040301DC050000140517011B
