:020000040800F2
:10000000082A0120A101000883390008F532000800
:1000100081390008890B0008C54A0008000000006B
:100020000000000000000000000000002D4100085A
:100030005D0E000800000000493B00087D410008FB
:10004000BB010008BB010008BB010008BB010008A0
:10005000BB010008BB010008BB010008BB01000890
:10006000BB010008BB010008BB010008BB01000880
:10007000BB010008BB010008BB010008BB01000870
:100080007D0D0008BB010008BB010008BB01000892
:10009000BB010008BB010008BB010008BB01000850
:1000A000BB010008BB010008BB010008BB01000840
:1000B000BB010008BB010008BB010008BB01000830
:1000C000BB010008BB010008BB010008BB01000820
:1000D000BB010008AD4A0008B94A0008BB0100088E
:1000E000BB010008BB010008BB010008BB01000800
:1000F000BB010008BB010008BB010008BB010008F0
:10010000BB010008BB010008BB010008BB010008DF
:10011000BB010008BB010008BB010008BB010008CF
:10012000890D0008BB010008950D0008A10D00080D
:10013000BB010008BB010008BB010008BB010008AF
:10014000BB010008BB010008BB010008BB0100089F
:10015000BB010008BB010008AD0D0008BB01000891
:10016000BB010008BB010008BB010008BB0100087F
:10017000BB010008BB010008BB0100080000000033
:10018000BB010008BB010008DFF810D000F09CFBA9
:1001900000480047616F0008AFF30080082A012083
:1001A0000648804706480047FEE7FEE7FEE7FEE711
:1001B000FEE7FEE7FEE7FEE7FEE7FEE7194200087E
:1001C000890100082DE9F05F0546002092469B4614
:1001D00088460646814640241BE02846414647465D
:1001E000224600F0B5FA53465A46C01A914110D340
:1001F00011461846224600F016F82D1A67EB010842
:100200004F4622460120002100F00DF817EB0009AF
:100210004E41201EA4F10104DFDC484631462A4647
:100220004346BDE8F09F202A04DB203A00FA02F1A1
:10023000002070479140C2F1200320FA03F31943D4
:1002400090407047202A06DBCB17203A41FA02F093
:1002500043EAE07306E041FA02F3D040C2F1200223
:10026000914008431946704710B5431A934209D28A
:100270008318881803E010F8011D03F8011D521EB1
:10028000F9D210BD40EA01039B0703D009E008C979
:10029000121F08C0042AFAD203E011F8013B00F84B
:1002A000013B521EF9D210BDD2B201E000F8012B81
:1002B000491EFBD270470022F6E710B513460A46E6
:1002C00004461946FFF7F0FF204610BD421C10F807
:1002D000011B0029FBD1801A70472DE9FE4F804693
:1002E00081EA0300C00F0C46009021F0004123F08A
:1002F0000045B8EB0200A94105D240462146904690
:100300001C460B46024623F00040104347D0270D01
:10031000C7F30A00C3F30A510290401A0190402823
:100320006BDAC3F3130040F4801B0098924620B1AF
:100330000023D2EB030A63EB0B0B01985946C0F183
:1003400040025046FFF76FFF06460D46504659469D
:10035000019AFFF777FF10EB08006141002487EA5C
:10036000115284EAE7731A4340D0009A62B3019AAB
:10037000012A4FEA075215DC001B61EB02014FF026
:10038000004202EA0752CDE90042001C41F580110B
:1003900032462B4600F032FA03B0BDE8F08F4046FB
:1003A0002146F9E7001B61EB0201001C41F58013B7
:1003B00000185B412018A2F5001747EB030140EA43
:1003C000D570B6196D4111E06D084FEA360645EA61
:1003D000C0754FEA0752001B61EB0201001C41F59A
:1003E000801149084FEA30000019514132462B462E
:1003F00003B0BDE8F04F00F0F2B9009801224000D0
:100400000023D0EB020263EBE073009821464FEA31
:10041000E074B8EB000061EB0401E9E783F000430E
:100420005BE781F0004158E72DE9FE4F81EA0304C4
:1004300004F0004421F0004100944FF0000B23F041
:10044000004350EA01045ED052EA03045BD0C3F3D8
:100450000A54C1F30A552C44A4F2F3340194A0FBCE
:100460000254C1F3130141F48011C3F3130343F4A5
:10047000801301FB024400FB034E840A970A44EAFE
:10048000815447EA8357A4FB076802958D0A05FB50
:1004900007854FEA932C04FB0C542705029D4FEA75
:1004A000065847EA1637B5EB08056EEB070C870EC2
:1004B000920E47EA811742EA8312A7FB0201B6EBCC
:1004C0000B0164EB00042B0D43EA0C335E1844EB84
:1004D0001C50DA465146E7FB0201C5F313044FEA0C
:1004E0000B3343EA14534FEA0432019C43EA0603F8
:1004F000A4F10C040294009CCDE900B400F07EF954
:1005000003B0BDE8F08F00200146F9E72DE9F04D7A
:1005100081EA030404F0004B21F0004514464FF03B
:10052000000A23F0004150EA050220D054EA0102FB
:100530001DD0C5F30A570246C5F31303C1F31300D8
:10054000C1F30A5640F4801543F48013A7EB060864
:10055000101BD64608F2FD3873EB050002D308F1F4
:10056000010801E092185B41B8F1000F03DA0020A6
:100570000146BDE8F08D00204FF480110646844608
:100580000EE0171B73EB050705D3121B63EB050386
:1005900006434CEA010C49084FEA300092185B41CF
:1005A00050EA0107EDD152EA030012D082EA0400BA
:1005B00083EA0501084305D0101BAB4106D2012296
:1005C000002306E000224FF0004302E06FF001023A
:1005D00053101AEB06004CEB085110EB0A0041EBEC
:1005E0000B01BDE8F04D00F0FAB80EB5C10F80EA7E
:1005F000E0700844CA07002140F233438DE80E0042
:100600000A460B4600F0FAF803B000BD0EB540F202
:10061000334102910021CDE900110A460B4600F05A
:10062000EDF803B000BD70B5C1F30A5201F000450A
:100630000024C1F3130140F2FF3341F480119A42C8
:1006400001DA002070BD40F233439A42A2F23342F5
:1006500003DC524200F07CF800E090402C43F1D0E3
:10066000404270BDC1F30A5210B5C1F3130140F20C
:10067000FF3341F480119A4201DA002010BD40F2AC
:1006800033439A42A2F2334203DC524200F060F854
:1006900010BD904010BD00F0004230F000400AD084
:1006A000C10D01F56071C0F3160042EA0151C208A4
:1006B00040071143704700200146704730B5041EC3
:1006C00071F1000404DB4FF00044404264EB01018F
:1006D000141E73F1000405DB1C464FF00043524228
:1006E00063EB0403994208BF904230BD01F0004320
:1006F00030B421F0004150EA010206D00A0DA2F503
:100700006072C1F31301002A02DC30BC0020704784
:10071000440F44EAC104C100E01830BC00EBC250F1
:1007200000F026B830B50B460146002020220124F7
:1007300009E021FA02F59D4205D303FA02F5491BAF
:1007400004FA02F52844151EA2F10102F1DC30BDC5
:10075000202A04DB203A21FA02F00021704721FA16
:1007600002F3D040C2F1200291400843194670477D
:100770000029A8BF7047401C490008BF20F00100B5
:10078000704710B4B0FA80FC00FA0CF050EA010493
:1007900004BF10BC704749B1CCF1200421FA04F425
:1007A00011FA0CF118BF012121430843A3EB0C01FE
:1007B000CB1D4FEA00614FEA102042BF002010BC61
:1007C000704700EBC35010440029A4BF10BC704711
:1007D000401C490008BF20F0010010BC704710B554
:1007E000141E73F1000408DA401C41F10001921854
:1007F0005B411A4301D120F0010010BD2DE9F04DFD
:1008000092469B4611B1B1FA81F202E0B0FA80F251
:1008100020329046FFF707FD04460F4640EA0A00E3
:1008200041EA0B0153465A46084313D0114653EA96
:10083000010019D0C8F140025046FFF789FF054674
:100840000E46504659464246FFF7EDFC084305D098
:10085000012004E020463946BDE8F08D0020054324
:1008600046EAE0762C4337430A986305E40AA0EB96
:1008700008000022FD0A44EA47540A3002D500204D
:100880000146E9E7010510196941DDE9084500194C
:100890006941BDE8F04DA2E7C1F30A52C1F313016B
:1008A00040F2FF3341F480119A4202DA00200146FF
:1008B000704740F233439A42A2F2334202DC524282
:1008C000FFF746BFFFF7AFBC064C074D06E0E068F8
:1008D00040F0010394E8070098471034AC42F6D387
:1008E000FFF756FC90DC0008B0DC000810B5094C9E
:1008F0000122A08881B2206801F0E8FA012006F008
:10090000A7FAA088002281B22068BDE8104001F05B
:10091000DDBA0000780000201FB500210090012002
:100920000291039101906946034800F081FB002881
:1009300001D000F094FA1FBD180100201FB500215E
:10094000009001200291039101906946034800F054
:100950006FFB002801D000F082FA1FBD600100206B
:1009600010B50146806B026C12F0500F05D0026C7E
:10097000D20626D500F023FC10BD016C41F40071B5
:10098000016401688A6812F0405F17D1027EAAB93B
:10099000CA6A12F4700F02D08A6852050ED44A68EF
:1009A00022F020024A60016C21F480710164016C24
:1009B000C90403D4016C41F00101016400F0DEFBC5
:1009C00010BD806BC26CBDE810400846104710B5E2
:1009D000806B40210164416C41F00401416400F0EE
:1009E000EEFB10BD10B5806B00F0E8FB10BD000001
:1009F000464910B54A6822F440324A604A68436862
:100A00001A434A6001684A6822F480724A600168A9
:100A10004A68036942EA03224A6001684A6822F090
:100A200040724A6001684A6883681A434A600168F4
:100A30008A6822F400628A6001688A68C3681A437F
:100A40008A60816A6FF07062D14201688A6822F020
:100A500070628A6001688A680CD0836A1A438A606F
:100A600001688A6822F040528A6001688A68C36A15
:100A70001A4301E022F040528A6001688A6822F03D
:100A800002028A6001688A68037E42EA43028A6041
:100A900090F82010002901684A680FD042F40062E3
:100AA0004A6001684A6822F460424A6001684A6804
:100AB000174C436A04EB43331A4301E022F400620B
:100AC0004A600168CA6A22F47002CA620168CA6A8E
:100AD000838B104C04EB03531A43CA6201688A6883
:100AE00022F400728A6001688A6890F8303042EA25
:100AF00043228A6001688A6822F480628A60016801
:100B00008A68406942EA8020886010BD0023014065
:100B100000E0FFFF0000F0FF8870102242EA102082
:100B200048700020087070477047000010B500281A
:100B30000BD000F00DF80549086081B2002004F0E8
:100B40003FF8BDE81040FFF7D1BE10BDD000002037
:100B50000C4910B54860142801D8002010BD143885
:100B6000C10D400240F25642801841F1000152008E
:100B70000023FFF727FBB0F5806FEFD340F2FF3083
:100B800010BD0000D0000020FEE70000042805D2C0
:100B900003490A180121002003F096BF70470000A6
:100BA0003400002010B5846B204600F0B7FD012012
:100BB000207110BD10B5846B204600F085FD01202A
:100BC000207110BD10B5846B206940F004002061D5
:100BD000204600F0A5FD0120207110BD10B5846BEA
:100BE000206940F004002061204600F06FFD0120E4
:100BF000207110BD10B5806B00F091FD10BD10B5D7
:100C0000806B00F062FD10BD2DE9F0475FEA00093E
:100C10002DED048B82B07DD040F6E440C2EB023271
:100C2000C1EB0131B2FBF0F7B1FBF0F6B74201D9ED
:100C3000B81B00E00020BC198046B4F5805F01D3EA
:100C400040F6FF74DFED3B0ADFED3C8A9FED3C9AF6
:100C500020EE200ADFED380ADFF8E8A0002580EE5C
:100C6000208A00BF00EE105AB8EE400AC0EE280AF3
:100C7000B0EE480A00EE890A04F0DAF800EE906A55
:100C80004146F8EE600A20EE200ABDEEC00A10EEE2
:100C9000100A3844404500DA0846A04200DD2046EC
:100CA0002AF815006D1C782DDCD3C9EB0910C4009F
:100CB00001F046FB2449096811F4E05F00D04000D0
:100CC000002C31D0B0FBF4F000B901201F49002402
:100CD000401E4C60C1E9024008468C6101F094FD61
:100CE00008B100F0BCF8194801F018FE15480021C1
:100CF000F03000F0EBFD134A7823002102F1F00000
:100D0000009400F073FD08B100F0A9F80F4801F05D
:100D1000C9FD00E008E0002806D002B0BDEC048B5D
:100D2000BDE8F04700F09BB802B0BDEC048BBDE815
:100D3000F0870000DB0F4940000034430000F04220
:100D4000DB0FC9406802002008380240B0040020D0
:100D5000FFF75ABF10B54CF25031002003F046FFA8
:100D600040F2FF31002003F02BFF0021084603F082
:100D70005BFFBDE81040FFF7B9BD0000014800F07F
:100D800029BE00006C030020014800F023BE0000D3
:100D9000A8010020014800F01DBE000088050020C9
:100DA000014800F017BE000008020020014800F0D2
:100DB00011BE0000E805002001681823CAB2103AED
:100DC000B2FBF3F2054B6FF30901032A9B5CC36589
:100DD00000D9091D81650846704700005C7D000848
:100DE00010B5014600208B698A6A4FF0C07453B178
:100DF000B3F5005F15D072B1012A0CD0022A0AD0D7
:100E0000032A09D104E01AB1012A06D0022A03D12B
:100E1000C96AC90100D5012010BDC96AA142FAD032
:100E200010BD002AF7D0012AF2D0022AF3D0032AFB
:100E3000F3D010BD30B50468256825F48025256001
:100E4000046863608368402B036803D0996000687E
:100E5000C26030BD9A600068C16030BD704772B634
:100E6000FEE7000010B502F0BFFE08490648086121
:100E7000074801F017FDBDE810404FF40062054936
:100E8000054800F021BB00003CDB0008D800002032
:100E900068040020088600201801002070B51F4C4F
:100EA0006078002839D0002060701D4B9FED1D1A1E
:100EB000DFED1D0A03F5804101F580424FF4006526
:100EC00033F8106000EE106A01EB8006B8EE400ABD
:100ED00020EE010A20EE200A86ED000A02EB8006D1
:100EE000401C86ED000AA842EADB1048216905F0A3
:100EF00025FA00F0F1FF6169401AB0F5FA7F05D9D3
:100F000000F0EAFF60610A4800F016F82A46BDE8E2
:100F100070400349074800F0D7BA70BDD8000020E0
:100F200008860020000080393333534008C6002073
:100F3000086600201801002010B5010015D091EDC1
:100F4000010A01220220430201EB8004D4ED000AD1
:100F5000F4EEC00AF1EE10FA02DDB0EE600A0246CD
:100F6000401C9842F0D3104610BD4FF0FF3010BD2A
:100F700010B5044651EC100BFFF774FBFFF746FB6E
:100F80009FED071B53EC112BFFF74EFAFFF76AFB9F
:100F9000E070010AA170010C6170000E207010BD9C
:100FA00095D626E80B2E21401FB501208DF80000B4
:100FB0000648019003208DF8080004480221001D16
:100FC0000390684602F0AAFD1FBD0000C00000208B
:100FD000A0F1640240F655339A4220D2B1F57A7FEF
:100FE0001DD3B1F5FA6F1AD864223238B0FBF2F093
:100FF00080B21E2800D31D20A1F57A7189B232314A
:10100000B1FBF2F189B20B2900D30A2100EB4002B7
:1010100002EBC000084480B2B0F5A57F01D30020E8
:101020007047024901EBC000C08870470C7300088C
:1010300078B50024009490F83C20012A19D00122B0
:1010400080F83C200A6807230568092A13D9EE684E
:101050000A3A02EB420293409E43EE600B788A68A4
:101060000A3B03EB43039A400368DD682A43DA60D6
:1010700010E0022078BD2E6902EB420293409E43AD
:101080002E610B788A6803EB43039A4003681D695D
:101090002A431A614A681F23072A13D205686E6B18
:1010A000521E02EB820293409E436E630B790A88C4
:1010B0005B1E92B203EB83039A4003685D6B2A4385
:1010C0005A6327E005680D2A12D22E6BD21F02EB5D
:1010D000820293409E432E630B790A88DB1F92B2F3
:1010E00003EB83039A4003681D6B2A431A6311E0E4
:1010F000EE6A0D3A02EB820293409E43EE620B7958
:101100000A880D3B92B203EB83039A400368DD6AC1
:101110002A43DA62164B0568144A9D4206D10D68CF
:10112000122D03D1556845F48005556005689D4230
:1011300018D10B68102B01D0112B13D1536843F435
:1011400000035360096810290CD10A490A4A09684A
:10115000B1FBF2F101EB8101490000E0491E009171
:101160000029FBD180F83C40002078BD00230140DD
:10117000002001402C00002040420F002DE9F041EA
:10118000064600680B4F01250B4CB84203D1304690
:1011900000F064FA65703068B84200D16571A571DD
:1011A0006079002803D0257000206071A071BDE82F
:1011B000F081000000200140D800002070477047F7
:1011C0000068C06C704770B504004FF0000503D094
:1011D000206C002610B107E0012070BD204600F011
:1011E0001DF8666484F83C60206CC00610D4206C46
:1011F00020F4885040F0020020642046FFF7F8FBFE
:101200006664206C20F0020040F00100206400E0E1
:10121000012584F83C60284670BD00002DE9F043AC
:1012200087B0064614216846FFF745F83748DFF8CF
:10123000D8C014383568002434490323344A0715CC
:101240004FF400684FF40059654529D10D6845F405
:1012500080750D60096801F480710591016841F0A5
:10126000010101600068694600F0010005908120DD
:101270008DE81900104600F031FD274D254805F195
:101280000C0CC5E90004AC608CE89003EC612C62A6
:1012900028466C6230E0B563AE6307B0BDE8F0830A
:1012A000DFF878C06545F8D10D6845F400750D602C
:1012B000096801F400710591016841F001010160C4
:1012C0000068694600F00100059042208DE8190091
:1012D000104600F003FD104D0E4860354830286080
:1012E0004FF00070C5E9010405F10C0C28468CE8AC
:1012F0009003EC612C626C6200F03CFC0028CAD0C8
:10130000FFF7ADFDC7E70000002001404438024070
:101310000000024010640240A801002000210140AA
:101320002DE9F041044600680D4681684FF0000742
:1013300049050BD58068C00508D5206C40F0200019
:10134000206484F83C700120BDE8F08100F0C4FD09
:10135000064613E0681C11D025B100F0BDFD801BCE
:10136000A8420BD920680068800707D4206C40F0A1
:101370000400206484F83C700320E5E720680068DE
:101380008007E7D521686FF012000860206C40F4F8
:10139000007020642068816811F0405F13D1217EC5
:1013A00089B9C16A11F4700F02D0806840050AD46F
:1013B000206C20F480702064206CC00403D4206C66
:1013C00040F0010020640020BEE7000018B50021B5
:1013D000009190F83C20012A07D0012280F83C209F
:1013E00002689368DB0702D011E0022018BD936801
:1013F00043F0010393602E4A2E4B1268B2FBF3F2C6
:1014000002EB420200E0521E0092002AFBD1026869
:101410009368DB0742D0036C40F20164A34343F4BA
:101420008073036453685B0505D5036C23F4005394
:1014300043F480530364036CDB0404D5436C23F052
:101440000603436400E0416480F83C101A496FF0E1
:101450002203136049680068CA06184906D088420A
:1014600024D1816811F0405F13D01FE08842F8D08A
:10147000134A904203D1D1F80423D206F1D0114A85
:10148000904213D1D1F8041301F01F011029E8D3C1
:101490000CE0816841F08041816007E0016C41F01F
:1014A00010010164416C41F001014164002018BD4C
:1014B0002C00002040420F0000230140002001408A
:1014C0000021014000220140F8B50E4600210446EB
:1014D000009190F83C0013460A46012807D00120ED
:1014E00084F83C0020688568ED0702D011E00220F6
:1014F000F8BD856845F0010585604048404D0068AD
:10150000B0FBF5F000EB400000E0401E009000282A
:10151000FBD120688568ED0503D5856825F48075C5
:10152000856020688568ED075DD0226C40F201651A
:10153000AA4342F4807222644068400505D5206CBD
:1015400020F4005040F480502064206CC00404D586
:10155000606C20F00600606400E0616484F83C1078
:10156000A16B2948274DC863A16B28480864A16B6B
:101570002748C86421686FF022000860206841682D
:1015800041F0806141602068816841F48071816030
:10159000216832464C31A06B00F056FB0246686869
:1015A0001C49C006206806D0884224D1816811F009
:1015B000405F13D01FE08842F8D0174B984203D108
:1015C000D1F80433DB06F1D0144B984213D1D1F893
:1015D000041301F01F011029E8D30CE0816841F0E9
:1015E0008041816007E0206C40F010002064606C56
:1015F00040F0010060641046F8BD00002C0000209F
:1016000040420F000023014061090008E50900087D
:10161000CF090008002001400021014000220140C4
:1016200090F83C1001290CD0012180F83C10016891
:101630008A6822F001028A6001688968C90702D0BD
:1016400007E002207047016C21F4885141F001014C
:101650000164002180F83C100846704710B504462C
:10166000002094F83C1001290CD0012184F83C1092
:1016700021688A6822F001028A6021688A68D2079C
:1016800002D01DE0022010BD8A6822F480728A60B8
:10169000A16B91F83520022A07D1084600F03FF9E6
:1016A00018B1216C41F04001216421684A6822F0A0
:1016B00080624A60216C21F4885141F0010121646B
:1016C000002184F83C1010BD70477047704770B51A
:1016D00000B3F9B14379012B1ED0012646710223D4
:1016E000037105682C6802F0100340F6FE729A4000
:1016F0009443D1E900210A439A4022432A600168B9
:101700000A68C0249C40A2430A600671002141710E
:10171000084670BD012070BD022070BD7047704743
:10172000704770B5040003D02079002510B105E0A2
:10173000012070BD6571204600F008F8022020717C
:10174000256101202071002070BD000070B586B0B9
:10175000054614216846FEF7AEFD1F4928688842F9
:1017600037D11E480026016841F000510160006831
:1017700000F00050059019481038016841F001014F
:1017800001600068694600F001000590102000909B
:101790000320CDE90106124800F0A0FA124C1148CE
:1017A00020604FF0606060604020C4E902060001E4
:1017B0002061400060618000A0614011C4E907061B
:1017C0002046666200F0D6F908B1FFF748FBAC602E
:1017D000A56306B070BD00000074004040380240B0
:1017E00000000240886002406C0300202DE9F041B7
:1017F0000400069817460D461BD0617901291BD0BD
:101800000126667102212171C5B1E2682949D163BF
:10181000E26829491164E2682849D16421680A68AC
:1018200042F080520A6040B32268042828D01C325B
:1018300027E00120BDE8F0810220FBE7A2682049F3
:10184000D163A2681F491164A2681F49D16421684D
:101850000A6842F480520A6020B12268042804D049
:10186000103203E02268083200E00C322068016880
:1018700041F400510160A06809E02268143200E0E0
:1018800018322068016841F000510160E068394673
:1018900000F0DAF90021617120B1216941F0040101
:1018A0002161C7E721680A6805F010039E403243B2
:1018B0000A60BFE7B50B0008FF0B0008DD0B00084E
:1018C000A50B0008F50B0008C50B000870B5040057
:1018D0001BD02068036801F010024FF4805595403A
:1018E000AB43036020680368012505FA02F29343C5
:1018F000036061B1E06800F012F82068016821F02F
:10190000005101602571002070BD012070BDA068EC
:1019100000F005F82068016821F40051F1E72DE995
:10192000F0410446876D00F0D7FA064694F835007A
:101930000025022806D08020606584F834500120FC
:10194000BDE8F0812068016821F01601016020687F
:10195000416921F080014161206C08B9A06C20B17F
:101960002068016821F0080101602068016821F009
:10197000010101600CE000F0AFFA801B052807D9D7
:1019800020206065032084F8350084F83450D7E7C0
:1019900020680068C007EED194F85C103F208840B2
:1019A000B860012084F8350084F834500020C7E77F
:1019B00090F83510022903D080214165012070473D
:1019C000052180F835100068016821F001010160EF
:1019D000002070472DE9F84304464FF00009CDF888
:1019E000009063484FF41651A56D0068B0FBF1F705
:1019F0002E6894F85C10082000FA01F131420FD0F3
:101A000021680A6852070BD50A6822F004020A60AE
:101A100094F85C108840A860606D40F0010060653B
:101A200094F85C104FF0010808FA01F0304208D039
:101A300021684969090604D5A860606D40F002007C
:101A4000606594F85C1004208840304208D021681A
:101A50000968890704D5A860606D40F004006065DE
:101A600094F85C1010208840304218D02168096832
:101A7000090714D5A86020680168490304D50068E7
:101A8000000308D5A16C07E00168C90503D401680B
:101A900021F008010160216C09B12046884794F8C3
:101AA0005C1020208840304231D021680968C90686
:101AB0002DD5A86094F8350005282068016806D067
:101AC000490347D5006800031DD4616C1CE021F078
:101AD000160101602068416921F080014161206C9C
:101AE00008B9A06C20B12068016821F008010160EC
:101AF00094F85C103F208840A86084F8358084F812
:101B00003490216D1FE0E16B09B120468847606D7C
:101B100000282BD0606DC00714D0052084F8350054
:101B20002068016821F0010101600098401C0090CC
:101B3000B84203D820680068C007F6D184F8358021
:101B400084F83490E16C002910D001B02046BDE843
:101B5000F04308470168C905D5D4016821F0100198
:101B6000016084F8358084F83490CCE7BDE8F883D0
:101B70002C0000202DE9F041044600F0ADF90646A6
:101B80005CB1022084F83500002584F834502068C8
:101B9000016821F0010101600DE00120BDE8F08144
:101BA00000F09AF9801B052805D9202060650320E4
:101BB00084F83500F2E720680068C007F0D1226899
:101BC000116820480140D4E901031843D4E90336E1
:101BD0003343184363691843A3691843E3691843FF
:101BE000236A18430843616A042903D1D4E90B131B
:101BF00019430843106020684069666A20F00701B5
:101C000030460E43012704280CD1A06A0643E06A3F
:101C100040B12046FFF7E4F820B14020606584F829
:101C20003570BAE7206846612046FFF7C5F894F89A
:101C30005C203F2191408160656584F8357000200B
:101C4000ACE700003F8010F02DE9F0410446866DBE
:101C500090F83400002501280DD0012084F83400CC
:101C600094F835700020012F07D084F83400022545
:101C70002846BDE8F0810220FBE7022784F8357092
:101C800060652046FFF7D6F894F85C103F20884046
:101C9000B0602068016841F016010160206C20B13D
:101CA0002068016841F0080101602068016841F086
:101CB00001010160DCE7000070B5044600F00CF99A
:101CC0000546601C02D004480078044400F004F982
:101CD000401BA042FAD370BD200000202DE9F84F30
:101CE000DFF8BCA10022012503264FF00F090AF1FD
:101CF000040BAAF1040E00BF0B6805FA02F423409E
:101D0000A34270D10F7907F00307012F01D0022FF2
:101D100016D187684FEA420806FA08FC27EA0C0742
:101D2000D1F80CC00CFA08FC4CEA070CC0F808C04B
:101D30004768A7430C79C4F3001494403C434460C3
:101D40000C79E443A4070AD0C4684FEA420C06FAAF
:101D50000CF7BC438F6807FA0CF72743C7600C7970
:101D600004F00304022C12D1D40800EB840CDCF83C
:101D700020405707FF0E09FA07F824EA0804D1F8B3
:101D8000108008FA07F848EA0408CCF820800468B4
:101D90004FEA420C06FA0CF7BC430F7907F0030731
:101DA00007FA0CF7274307604C6814F4403F70D0E3
:101DB0003C4C276847F480472760246822F00307DB
:101DC00004F480440094384C07EB040CDCF8084819
:101DD00097074FEA177809FA08F7BC43334FB84220
:101DE00002D1002724E054E0314FB84201D101274D
:101DF0001EE0304FB84201D1022719E02E4FB84201
:101E000001D1032714E02D4FB84201D104270FE080
:101E10002B4FB84201D105270AE02A4FB84201D121
:101E2000062705E0284FB84201D1072700E0082720
:101E300007FA08F72743CCF80878DAF80040574645
:101E4000D1F804C09C435FEACC2C00D51C433C6015
:101E5000DBF800405F46D1F804C09C435FEA8C2C5D
:101E600000D51C433C60DEF800407746D1F804C042
:101E70009C435FEA8C3C00D51C433C60084F083F04
:101E80003C68D1F804C09C435FEACC3C00D51C43BD
:101E90003C60521C102AFFF42FAFBDE8F88F000001
:101EA000083C01404438024000300140000002403C
:101EB0000004024000080240000C024000100240F2
:101EC0000014024000180240001C02400AB1816167
:101ED00070470904FBE70000014880687047000074
:101EE0002000002070B5040025D094F83D000025A6
:101EF00020B984F83C50204600F0B8F8242084F83B
:101F00003D002068016821F001010160206801683E
:101F100041F4004101602068016821F40041016042
:101F200000F00EFA4D4A6168914201D84C4900E038
:101F30004C49884201D2012070BD4B492368B0FB57
:101F4000F1F15E6826F03F060E435E6063689342DF
:101F500006D94FF4967359434FF47A73B1FBF3F1FA
:101F60002368491C1E6A26F03F06314319626168E6
:101F7000914210D84900401EB0FBF1F2521CC2F34E
:101F80000B02042A01D2042022E0B0FBF1F0401C35
:101F9000C0F30B001CE0A268F2B301EBC10303EB3A
:101FA0000116431EB3FBF6F35B1C43F480431B0591
:101FB00049D092B301EBC10202EB0111401EB0FB0C
:101FC000F1F0401CC0F30B0040F4804040F40040AE
:101FD0002168CA694CF6FF739A431043C861D4E97B
:101FE000071001432068026822F0C002114301601B
:101FF000D4E9030101432068826848F2FF339A4321
:1020000011438160D4E9050108432168CA6822F0C0
:10201000FF021043C86001E00EE016E0206801688E
:1020200041F0010101602564202084F83D00256312
:1020300084F83E50002070BD01EB4106431EB3FB07
:10204000F6F35B1CB3E70120C2E701EB4101401E40
:10205000B0FBF1F0401CC0F30B00B7E7A086010015
:1020600080841E0000093D0040420F0010B586B07C
:10207000044614216846FEF71EF914492068884278
:1020800021D113480021026842F002020260006878
:1020900000F0020005904FF4406000901220CDE95E
:1020A0000101032003900420049069460948FFF7CA
:1020B00015FE07481030016841F480010160006896
:1020C00000F48000059006B010BD000000580040EC
:1020D000303802400004024002488168027811440E
:1020E00081607047200000200B4810B5016841F462
:1020F00000710160016841F480610160016841F490
:1021000080710160032000F06FF80F2000F006F8E6
:1021100000F024F8002010BD003C024070B50D4DC9
:1021200004464FF47A712878B1FBF0F00A49096847
:10213000B1FBF0F000F00CFB48B9102C07D20022E4
:102140002146501E00F030F800206C6070BD012068
:1021500070BD0000200000202C0000200A4808B5B7
:10216000016841F480410160006800F48040009003
:102170000548001F016841F080510160006800F0CF
:102180008050009008BD000044380240002809DB60
:1021900000F01F02012191404009800000F1E02081
:1021A000C0F8001170470000F0B40E4B1B680C46DD
:1021B000C3F30223C3F10705042D00D90425191D1B
:1021C000072901D2002300E0DB1E012606FA05F1F3
:1021D000491E214099409E40761E16403143F0BC76
:1021E00002F0B1BD0CED00E0064900F007020868FE
:1021F0004FF6FF03184040EA0220034A10430860EC
:10220000704700000CED00E00000FA052DE9F047F2
:102210000E46050065D0DFF81481D8F80000F7B24B
:1022200000F00700B04207D288F80070D8F800002C
:1022300000F00700B04254D128683D4C810712D508
:10224000400703D5206840F4E0502060287800075C
:1022500003D5206840F4604020602068A96820F021
:10226000F000084320602878C0072DD03049686806
:102270000839012812D0022813D0032811D0096888
:10228000890700292DDA216821F00301014321602B
:10229000FFF722FE814641F2883A0EE00968890381
:1022A000EFE709688901ECE7FFF716FEA0EB0901EB
:1022B000514502D90320BDE8F0872068696800F025
:1022C0000C00B0EB810FEFD1D8F80010404601F0C0
:1022D0000701B14207D90770006800F00700B0425B
:1022E00001D00120E7E72878400705D52068E96894
:1022F00020F4E050084320602878000706D52068C5
:10230000296920F4604040EAC100206000F038F8FC
:102310002168084AC1F30311515CC84006490860AE
:1023200006480068FFF7FAFE0020C4E7003C0240C0
:1023300008380240647D00082C00002024000020A2
:102340000448054900680968044AC1F38221515CC8
:10235000C84070472C00002008380240747D0008F7
:102360000448054900680968044AC1F34231515CD8
:10237000C84070472C00002008380240747D0008D7
:10238000154810B5006810F00C02144813D0144919
:10239000042A0FD0082A0ED10F4C241F226823686C
:1023A00002F03F025B0207D52068C0F38810A0FB53
:1023B000010106E0084610BD2168C1F38811A1FBA8
:1023C00000010023FDF7FEFE2168C1F30141491C15
:1023D0004900B0FBF1F010BD083802400024F400C1
:1023E00040787D012DE9F84F04006ED02078DFF8A9
:1023F0004C93C007A9F104054AD009F10400016813
:10240000C1F38101012908D00068C0F381000228CE
:102410000AD1D9F80000400206D52868800337D5D4
:1024200060680028E1D033E06068B0F5803F10D0EC
:10243000B0F5A02F286810D020F4803028602868DC
:1024400020F4802028606068A8B1FFF745FD0646AB
:102450000DE0286840F48030F4E740F480202860E4
:10246000F7E700BFFFF738FD801B642873D82868A2
:102470008003F7D50CE0FFF72FFD064605E000BF0F
:10248000FFF72AFD801B6428F0D828688003F7D462
:102490002078DFF8AC8280074FF0000A3ED5A748CD
:1024A000001D016811F00C0F08D00068C0F3810016
:1024B00002280BD1D9F80000400207D42868800711
:1024C00016D5E068012800D112E033E1E068B8B128
:1024D0000120C8F80000FFF7FFFC064605E000BF3A
:1024E000FFF7FAFC801B0228C0D828688007F7D5C0
:1024F0002868216920F0F80040EAC10028600DE05A
:10250000C8F800A0FFF7E8FC064604E0FFF7E4FC8B
:10251000801B02281FD828688007F7D4207800077E
:1025200022D5864F87486169703771B101210160FA
:10253000FFF7D2FC064604E0FFF7CEFC801B022822
:1025400009D838688007F7D50EE0C0F800A0FFF77B
:10255000C3FC064605E082E0FFF7BEFC801B0228B4
:102560007DD838688007F7D42078400768D5DFF831
:10257000CCB100270BF13C0BDBF80000C0000BD402
:10258000DBF8001041F08051CBF80010DBF80000C0
:10259000012700F0805000906B4E3068C00510D4C9
:1025A000306840F480703060FFF796FC009005E0E2
:1025B000FFF792FC0099401A022850D83068C005F5
:1025C000F6D55E4EA0686C3601280FD0052830681D
:1025D00010D020F001003060306820F0040030603E
:1025E000A068B8B1FFF778FC00900FE0306840F0C9
:1025F0000100F4E740F004003060F7E7FFF76CFCFF
:102600000099411A41F28830814266D830688007CB
:10261000F4D50EE0FFF760FC009007E0FFF75CFCEC
:102620000099411A41F28830814256D830688007BB
:10263000F4D42FB1DBF8001021F08051CBF800105A
:10264000A069C8B33D49091D0968C1F38101022988
:102650004AD00228504607D0C8F8600000E03CE0AD
:10266000FFF73AFC04463BE04746C8F86000FFF736
:1026700033FC064605E000BFFFF72EFC801B022856
:102680002BD828688001F7D4D4E907010843A16A50
:102690002E4A490802EB0141626A41EA821108436D
:1026A00094F82C1040EA0161C9F800100120386646
:1026B000FFF712FC044606E03EE000BFFFF70CFC0B
:1026C000001B022809D828688001F7D534E000BF34
:1026D000FFF702FC001B022802D90320BDE8F88F97
:1026E00028688001F4D427E00128F7D0D9F8000049
:1026F000E26900F4800191421CD1226A00F03F019E
:10270000914217D147F6C071626A0140B1EB821F56
:1027100010D1A26A4FF0FF3300F4403103EB5202B4
:10272000B1EB024F06D194F82C1000F07060B0EBC2
:10273000016F01D00120D1E70020CFE7043802402B
:1027400000004742800E4742007000400000FFFF3B
:1027500010B5401EB0F1807F01D3012010BD4FF0B5
:10276000E02460610F21601702F0EDFA0020A06103
:1027700007202061002010BD70B590F83C20012A90
:1027800032D0012480F83C40022280F83D200368CA
:102790005A689D6822F070060A6832435A60134BEB
:1027A00002689A4214D0B2F1804F11D0104B9A4275
:1027B0000ED0104B9A420BD00F4B9A4208D00F4BC1
:1027C0009A4205D00E4B9A4202D00E4B9A4204D147
:1027D000496825F080031943916080F83D4000214D
:1027E00080F83C10084670BD022070BD000001401A
:1027F0000004004000080040000C004000040140BC
:10280000004001400018004010B5040003D094F8C7
:102810003D0010B107E0012010BD002084F83C000D
:10282000204600F01FF8022084F83D00211D20689A
:1028300001F0FAFC012084F8460084F83E0084F898
:102840003F0084F8400084F8410084F8420084F896
:10285000430084F8440084F8450084F83D000020DB
:1028600010BD000008B50C4A01680C48914207D120
:10287000016841F002010160006800F0020009E017
:10288000074A914207D1016841F0100101600068D8
:1028900000F01000009008BD0004004040380240E5
:1028A0000010004090F83D10012901D00120704730
:1028B000022180F83D1000681149884214D0B0F11F
:1028C000804F11D00F4988420ED00F4988420BD05B
:1028D0000E49884208D00E49884205D00D498842E9
:1028E00002D00D49884204D1816801F00701062910
:1028F00003D0016841F00101016000207047000031
:10290000000001400004004000080040000C0040AE
:1029100000040140004001400018004001680A6ABC
:1029200041F211131A4207D10A6A9B101A4203D1CD
:102930000A6822F001020A60012180F83D1000209F
:10294000704770B5044690F83C000025012817D068
:10295000012684F83C60022084F83D0020688268EB
:1029600022F0770222F47F4282600868502838D033
:102970000DDC20284FD005DC90B3102811D14AE09F
:10298000022070BD302846D040280AD13BE06028A4
:102990002FD070280DD0B0F5805F03D0B0F5005F68
:1029A00012D0012584F83D60002084F83C002846C0
:1029B00070BDCB68D1E90121206801F0AAFC206834
:1029C000816841F0770109E0CB68D1E901212068F5
:1029D00001F09FFC2068816841F480418160E1E75B
:1029E00019E0CA684968206801F068FD5021206834
:1029F00006E0CA684968206801F071FD602120681E
:102A000001F091FCCEE7CA684968206801F056FDE4
:102A100040212068F4E7226801461046F0E70000F4
:102A200010B586B0044614216846FDF744FC2068C2
:102A3000B0F1804F15D10C480021026842F001022C
:102A40000260006800F00100059020200090022044
:102A5000CDE901010120CDE9031069460348FFF7E4
:102A60003DF906B010BD00003038024000000240C1
:102A700070B5044690F83C0000260D4601280FD0A2
:102A8000012084F83C006AB1042A1DD0082A2FD006
:102A90000C2A3FD00126002084F83C00304670BD4F
:102AA000022070BD206801F047FC2068816941F078
:102AB000080181612068816921F004018161206839
:102AC00081692A69114311E0206801F065FC2068E2
:102AD000816941F4006181612068816921F480612C
:102AE0008161206881692A6941EA02218161D2E716
:102AF000206801F087FC2068C16941F00801C161CC
:102B00002068C16921F00401C1612068C1692A6996
:102B1000114311E0206801F0A9FC2068C16941F46B
:102B20000061C1612068C16921F48061C1612068D0
:102B3000C1692A6941EA0221C161ACE710B504000C
:102B400003D094F83D0010B107E0012010BD002033
:102B500084F83C00204600F01FF8022084F83D0075
:102B6000211D206801F060FB012084F8460084F8F4
:102B70003E0084F83F0084F8400084F8410084F867
:102B8000420084F8430084F8440084F8450084F847
:102B90003D00002010BD000008B50068B0F1804F76
:102BA00008D10548016841F001010160006800F0AA
:102BB0000100009008BD00004038024010B50446F6
:102BC000022249B104290ED0082913D094F84100FB
:102BD000012816D0012010BD94F83E000128F9D13B
:102BE00084F83E200FE094F83F000128F2D184F8E9
:102BF0003F2008E094F840000128EBD184F8402001
:102C000001E084F841200122206801F075FB16499B
:102C10002068164A884201D0904203D1436C43F4A5
:102C2000004343642068884213D0B0F1804F10D035
:102C30000F4988420DD00F4988420AD00E49884278
:102C400007D0904205D00D49884202D00C498842F5
:102C500004D1816801F00701062903D0016841F021
:102C600001010160002010BD00000140000401408E
:102C70000004004000080040000C004000400140FB
:102C80000018004038B5044690F84200202801D0D2
:102C9000022038BD51B14AB1012020630020606399
:102CA000204601F05FFE216B012901D0012038BDD3
:102CB00021680A684968009121680C3151E8002FA9
:102CC00042F0100241E80023002BF5D138BD00008E
:102CD0002DE9F0410C460068104988421BD1104F85
:102CE00046158CB1B4420FD8A7F2022522463946C8
:102CF000A81CFDF7B9FA2C80B44205D22819C4F5F6
:102D00000071801CFDF7D7FA32463946BDE8F04124
:102D10000448FFF7B7BFBDE8F08100000010014094
:102D20005A0A0020F804002070470000F8B5016836
:102D300004460868CA684B6910F00F0F4FF0000591
:102D400059D003F0010602F49077374365D0C107EC
:102D500005D0D10503D5616C41F0010161644107E3
:102D600005D5D90703D0616C41F002016164810788
:102D700005D5D90703D0616C41F0040161640107F6
:102D800007D502F02001314303D0616C41F0080106
:102D90006164616C00293AD0800604D5900602D5A2
:102DA000204601F0F8FC20684069616CC0F3801097
:102DB000090700D460B3204601F0B8FC20684069E0
:102DC000400621D52068143050E8001F21F0400152
:102DD00040E80012002AF5D1E06BA8B17249016504
:102DE000E06BFEF7E5FD002811D0E06B016D01B04E
:102DF000BDE8F040084783060FD593060DD5204661
:102E0000BDE8F84001F0C7BC2046FFF78DFFF8BDD4
:102E10002046FFF789FF6564F8BD266B2023012E4D
:102E20007ED1C6067CD5D6067AD50868486800905B
:102E300048694FF0020640064DD5E26B10684068C5
:102E40004FF480770004000C3AD0A18D814237D92D
:102E5000E085D069B8422DD020680C3050E8001FC2
:102E600021F4807140E80012002AF5D12068143066
:102E700050E8001F21F0010140E80012002AF5D1BE
:102E80002068143050E8001F21F0400140E8001293
:102E9000002AF5D184F84230256320680C3050E8D0
:102EA000001F21F0100140E80012002AF5D1E06B6C
:102EB000FEF735FD6663A08DE18D401A81B206E014
:102EC000A18D8142A8D1D069B842A5D166632046C0
:102ED000FFF7FEFEF8BDA08DE18D401A81B2E08DB6
:102EE0000028F7D00029F5D020680C3050E8002FDA
:102EF00022F4907240E80027002FF5D120681430AA
:102F000050E8002F22F0010240E80027002FF5D101
:102F100084F84230256320680C3050E8002F00E030
:102F200006E022F0100240E80023002BF3D1CDE7A9
:102F300005062BD5150629D594F841002128C9D1BD
:102F4000A068B0F5805F01D12069B0B1206A411C52
:102F50002162216800784860E08C401E0004000C6B
:102F6000E084B7D12068C16821F08001C160206889
:102F7000C16841F04001C160F8BD206A0088C0F31B
:102F800008004860206A801C2062E5E74006F3D50F
:102F90005006F1D5CA68204622F04002CA6084F883
:102FA000413000F077F9F8BD3146000870B50400F3
:102FB00004D094F84100002510B106E0012070BD56
:102FC00084F84050204600F023F8242084F8410083
:102FD0002068C16821F40051C160204601F03CFC2A
:102FE0002068016921F4904101612068416921F064
:102FF0002A0141612068C16841F40051C1606564E3
:10300000202084F8410084F842006563002070BDF0
:103010002DE9F04186B0064614216846FDF74BF9CC
:10302000DFF80CC131684348022203230727424DD1
:103030000024614553D13F491431D1F800C04CF010
:10304000100CC1F800C0096801F010010591016879
:1030500041F0010101600068694600F0010005903F
:1030600058028DE81500CDE903372846FEF736FEF5
:10307000334D32484FF000672860C5E901744FF4C2
:103080008068C5E903486C61AC61EC612C6228463C
:103090006C62FEF76FFD08B1FDF7E1FEF563AE630C
:1030A000274D264860357830E5E802074020A5E83E
:1030B0001101234845F814496030AC61EC612C6281
:1030C0006C62FEF757FD08B1FDF7C9FEB56300223B
:1030D00011462520AE63FFF767F8252023E0194E3F
:1030E000B14222D1134910310E6846F400360E6009
:1030F000096801F400310591016841F001010160A6
:103100000068694600F0010005900C208DE815006C
:10311000CDE903372846FEF7E1FD002211462620BF
:10312000FFF742F82620FFF731F806B0BDE8F0813E
:10313000001001403038024000000240406402406C
:10314000880500200044004090F84230202B01D038
:103150000220704721B11AB10023036301F052BC71
:10316000012070470068124988421FD172B6114889
:10317000017811488288B2F5806F0AD24388821D97
:1031800099544188491CC1F3090141808188491C37
:103190008180808862B6042803D306490120C91EB5
:1031A0008870012203490548FFF7CEBF7047000031
:1031B00000440040CF0000205A0C002040050020B1
:1031C00070472DE9F843044690F8410098461646AA
:1031D0000D46202802D00220BDE8F88385B17EB1DB
:1031E00000206064212084F84100FEF775FEA6846B
:1031F0008146E684A0682027B0F5805F02D003E016
:103200000120E9E7206910B12E4600250EE00026D6
:103210000CE08021204601F010FCA8B9C6B116F8D8
:10322000010B21684860E08C401EE084E08C4B4636
:103230004FF00002CDF800800028EAD14FF04001A5
:10324000204601F0FAFB40B184F841700320C3E747
:1032500035F8020BC0F30800E3E784F84170002062
:10326000BAE790F84130202B01D00220704779B1A5
:1032700072B101628284C28400214164212180F8FC
:1032800041100068C16841F08001C16000207047B2
:10329000012070470068064B0021064A984201D180
:1032A00011707047044B9842FBD151707047000079
:1032B00000100140CC0000200044004070B5050023
:1032C0000C464FF0FF3606D02CB10846FCF7FEFF47
:1032D000B0F57B7F01D9304670BD22462946BDE856
:1032E000704001A001F078B925732E7478743D22E6
:1032F00025732200FEE70000304810B58188006881
:1033000089B20022FEF7E2FD2C48012218308188A4
:10331000006889B2FEF7DAFD284800221030818863
:10332000006889B2FEF7D2FD24480022203081884F
:10333000006889B2FEF7CAFD204800222830818843
:10334000006889B2FEF7C2FD1C4800223030818837
:10335000006889B2FEF7BAFD18480022383081882B
:10336000006889B2FEF7B2FD14480022403081881F
:10337000006889B2FEF7AAFD104800222038818833
:10338000006889B2FEF7A2FD0C4800221838818837
:10339000006889B2FEF79AFD08480022103881883B
:1033A000006889B2FEF792FD04480838002281883F
:1033B0000068BDE8104089B2FEF788BD58000020C3
:1033C00010B50D4C0022A08881B22068FEF77EFD6A
:1033D000012003F03DFDA088012281B22068FEF7A4
:1033E00075FD1E2003F034FDA088002281B2206804
:1033F000BDE81040FEF76ABD600000201CB528A0A3
:103400000068009027A000680190FFF775FFFFF7A4
:10341000D7FF6A460321012001F056FB032101AAD0
:10342000084601F051FB204CA08981B2032001F035
:10343000FBFB208881B2002001F0F6FBA08881B25E
:10344000012001F0F1FB208981B2022001F0ECFBA8
:10345000164C0020216801F0C9FB0120616801F0D1
:10346000C5FB0220A16801F0C1FB0320E16801F067
:10347000BDFB1034A08981B2032001F0A1FB20889C
:1034800081B2002001F09CFBA08881B2012001F0F4
:1034900097FB208981B2022001F092FB1CBD000045
:1034A000D30000000003000048060020A000002018
:1034B00070B5164C002220212046FEF707FD0022A1
:1034C00040212046FEF702FD114D00224FF400512D
:1034D0002846FEF7FBFC002201212846FEF7F6FCF9
:1034E000002208212046FEF7F1FC00221021204690
:1034F000FEF7ECFC012202212846FEF7E7FC2046FD
:10350000BDE8704001220421FEF7E0BC001002403B
:10351000000802407FB500241648009401940294EC
:103520001349039401604FF48031C0E90114046130
:10353000047680F820400903C1620125C561491065
:10354000C460816280F830404561FDF73CFE08B1FF
:10355000FDF785FC0720CDE9000569460294054882
:10356000FDF766FD002801D0FDF779FC7FBD000066
:1035700000200140180100207FB500241548009468
:10358000019402941249039401604FF48031C0E920
:1035900001140461047680F820400903C16201250A
:1035A000C5614910C460816280F830404561FDF713
:1035B0000AFE08B1FDF753FC0095CDE901546946B8
:1035C0000448FDF735FD002801D0FDF748FC7FBD1C
:1035D00000210140600100201CB500200D49009031
:1035E00001900B4808600846FEF79BF808B1FDF70C
:1035F00036FC042000900220019000226946054814
:10360000FEF765F8002801D0FDF729FC1CBD00007D
:1036100000740040580300201D4808B5016841F4BB
:1036200080010160016801F480010091016841F4AA
:10363000001101600068002200F4001000901146A3
:103640001020FEF7B1FD1020FEF7A0FD002211466C
:103650003820FEF7A9FD3820FEF798FD002211461C
:103660003A20FEF7A1FD3A20FEF790FD0022114618
:103670003B20FEF799FD3B20FEF788FD0022114616
:103680004620FEF791FDBDE808404620FEF77EBDCE
:10369000303802402DE9F04F87B014216846FCF71E
:1036A0000AFE3F480024016841F0100101600168F2
:1036B00001F010010591016841F004010160016809
:1036C00001F004010591016841F080010160016889
:1036D00001F080010591016841F00101016001687C
:1036E00001F001010591016841F0020101600168EA
:1036F00001F002010591016841F0080101600068D4
:10370000DFF8A08000F00800059000227E214046EE
:10371000FEF7DCFBDFF8909042F213060022314600
:103720004846FEF7D3FBDFF884A040F2FB370022C7
:1037300039465046FEF7CAFBDFF874B00022F91E86
:103740005846FEF7C3FB01224FF440415846FEF7AE
:10375000BDFB7E2000900125CDE90154694640461D
:103760000394FEF7BBFA0096CDE90154694648463A
:103770000394FEF7B3FA0097CDE901546946504629
:103780000394FEF7ABFA4CF2F8300090CDE9015407
:10379000694658460394FEF7A1FA07B0BDE8F08FDA
:1037A000303802400010024000080240000402408D
:1037B000000C02400D4810B50B4901600C494160F6
:1037C00000214FF480428160C0E9031241618161B0
:1037D000C1610162FEF786FB002803D0BDE81040FE
:1037E000FDF73DBB10BD000000580040CC03002099
:1037F000A086010010B58AB0002407941C216846F9
:103800000894FCF758FD16484FF08041C0E90014B9
:1038100040F25721C0E9024104618461FFF78EF94B
:1038200008B1FDF71CFB079407A90D480894FEF7A3
:10383000A3FF08B1FDF713FB602000904FF49670D2
:10384000CDE901040022694605480494FFF710F908
:1038500008B1FDF704FB0248FFF7E2F80AB010BD1B
:103860002004002010B586B000241748009401946D
:103870000294039404941349059401600921C0E95A
:10388000011440F2A311C0E903148461FEF7BCFFE8
:1038900008B1FDF7E4FA4FF48050009069460A48F9
:1038A000FFF74FF808B1FDF7DAFA2020CDE904045C
:1038B00004A90548FEF760FF002801D0FDF7CFFA04
:1038C00006B010BD00040040680400201CB50024B0
:1038D0000E4800940C490194C0E900145321C0E93A
:1038E00002418461FEF790FF08B1FDF7B8FA20208D
:1038F000CDE9000469460548FEF73EFF002801D0E7
:10390000FDF7ADFA1CBD000000100040B00400201F
:103910000C4810B50A4901604FF4E13141600021C3
:1039200081600C22C160C0E904128161C161FFF7AE
:103930003DFB002803D0BDE81040FDF790BA10BD54
:1039400000100140F80400200C4810B50A4901603D
:103950004FF4E1314160002181600C22C160C0E977
:1039600004128161C161FFF721FB002803D0BDE88B
:103970001040FDF774BA10BD00440040400500201F
:10398000FEE7FEE7F0B500281FD004291DD302781A
:10399000552A1AD1461816F8012CFF2A15D12E4A9D
:1039A0002C4B0429157803D000240122891E12E033
:1039B000002D0AD0596809B142780A70022D04D34B
:1039C000D968002901D080780860F0BD875C521C5E
:1039D0003C44E4B292B28A42F8DB16F8022CA242CE
:1039E000F3D10122002431E08A42EEDA13F8346088
:1039F000012E04D0022E0AD0032E25D112E003EBB3
:103A0000C407865C7F68521C92B23E701CE0961C14
:103A10008E42DADC024403EBC40712887F6852BA94
:103A20003A8010E0161D8E42CFDC0244178892F8CF
:103A300002C07FBA3F04D27847EA0C27174303EB52
:103A4000C40252681760B2B2641CE4B2AC42CBD379
:103A5000F0BD000058060020C800002070B500F03E
:103A6000B5FD010052D02B4C6288C2F5807080B247
:103A7000814200D30146284E89B3B01800F082FD80
:103A8000618808443EE0002580B204E0715D55295C
:103A900004D06D1CADB28542F8D30BE055B1421B8A
:103AA00071191D48FCF7E0FB6088401B80B2608004
:103AB00004282BD30320628804E0315CFF290FD057
:103AC000401C80B29042F8D3B2F5807F1ED1FF2215
:103AD000711C1148FCF7C8FBFF206080D3E712E09F
:103AE0000028F1D0401C85B229460B48FFF74AFF59
:103AF0006088A8420BD3421B71190748FCF7B4FB3E
:103B00006088401B608060880428BCD270BD0020A3
:103B1000608070BDC80000205807002010B50C461A
:103B200000280BD0002C09D0202C00D920240146DD
:103B3000E2000348FCF798FB0248047010BD000047
:103B400058060020C80000207047000010B50C4641
:103B5000FCF75CFD9FED051B53EC112BFCF764FC9F
:103B6000FCF780FD6070000A207010BD012FC116A7
:103B70006CC1464070B500282CD0174A0024254659
:103B80004FF48033611C4143B2FBF1F1491E99426D
:103B900001D20D4602E0641C9C42F3D3601C691CF8
:103BA000484300EE100A0D480D4EF8EE400A00EEB4
:103BB000102AB8EE400A80EE201A80ED031A306811
:103BC000002807D00748FDF749FD30688462306857
:103BD000C562F56070BD000000BD0105D800002081
:103BE000680400201801002002494FF4006003F02F
:103BF00073B9000008E600200949B0F57A7F01D8C2
:103C000008887047C822A0F57A70B0FBF2F080B245
:103C10004FF4FA72904200D9104631F81000704704
:103C2000341E0020012807D0022807D0032807D01F
:103C3000042807D004A0704705A0704706A070476D
:103C400008A070470AA07047554E4B4E4F574E0084
:103C50004C4F5750415353004849474850415353E4
:103C60000000000042414E44504153530000000008
:103C700042414E4453544F50000000002DE9F041A2
:103C80000D0007464FF0000605D0002418E0384626
:103C9000FDF79CFB10B10020BDE8F08114213846EF
:103CA000FDF73EFB0028384602D0FDF7B9FCF2E7ED
:103CB000FDF786FA06443846FDF7B2FC641CA4B250
:103CC000AC42E4D3B6FBF5F080B2E5E72DE9F04F66
:103CD0002DED088B050083B04FF0000004460290E4
:103CE0004FF6FF79019026D0D448FEF7DBFD40F275
:103CF000FF31002000F064FF0021084600F094FF2F
:103D0000FCF7F4FD0120FCF719FEDFF834B30026C0
:103D1000ABF6BE3AC820A6FB007007F57A774AF8E2
:103D200026703946002000F061FFFCF7DFFDB7F593
:103D30007A7F06D009E0002003B0BDEC088BBDE817
:103D4000F08F4FF4FA60FDF7B7FF6420FDF7B4FF82
:103D50004021BC48FFF792FFDFF8EC82402128F8B1
:103D60001600BA48FFF78AFF2BF8160038F816003D
:103D7000A04202D90446CDE90167484500D28146F8
:103D8000761CB6B24FF4FA784645C3D90CB340F26C
:103D9000F511AFA000F082FFB6A000F07FFF002673
:103DA0009FEDBC8ADFEDBC8AA74830F8160000EE14
:103DB000100AF8EE400AB0EE680A00EE880A10EE2B
:103DC000100AFCF768FC41EC100B464505D1A8A091
:103DD00004E0B2A000F062FFADE7B9A000905AF88D
:103DE000261053EC102BB7A000F058FF761CB6B28B
:103DF0004645D9D9B7A000F051FFB7A000F04EFF5B
:103E000000269FEDBC8A30465946DFEDBB8A9FED08
:103E1000BB9ADFEDBB9A9FEDBBAA00BF31F8102023
:103E200000EE102AB8EE400A20EE280A20EE090A19
:103E300039EEC00A20EE0A0AB4EEC80AF1EE10FA12
:103E400002DDB0EE408A0646401C80B24045E5D90E
:103E50009FEDAD0A0020F0EE00AA00BF31F810205F
:103E6000B04200EE902AF8EE600A60EEA80A60EE1A
:103E7000890A79EEE00A60EE8A0A01D958EE2A0A28
:103E8000401C80B2404530EE200AE7D9DFED9F0AA2
:103E90005FF0000780EE20BA3BF81700B74200EE53
:103EA000100AB8EE400A20EE280A20EE090A39EE80
:103EB000C00A20EE0A0A01D918EE2A0A30EE4B0A8F
:103EC00010EE100AFCF7E7FB41EC100B474501D15F
:103ED00067A000E07AA000905AF8271053EC102B4E
:103EE00078A000F0DBFE7F1CBFB24745D4D979A093
:103EF00000F0D4FE86A000F0D1FE534A0023012634
:103F00001188B2F8E803B2F8F421322C7ED300EE27
:103F1000104AF8EE400A9FED830A20EE801A00EE68
:103F2000901AF8EE601ADFED800AB4EEE11AF1EEB5
:103F300010FA10D201EE104AB8EE411A61EE201AC2
:103F400001EE100AB8EE411AF4EEC11AF1EE10FAC1
:103F500001DD6E706AE001EE104AB8EE411A21EE02
:103F6000201A00EE901AF8EE600AB4EEE01AF1EEB4
:103F700010FA10DD00EE904AF8EE600A60EE800A5A
:103F800000EE100AB8EE400AF4EEC00AF1EE10FAA4
:103F900001D2022047E0019FB6EE000ABF1FB7F52D
:103FA000F57F1FD200EE904AF8EE600A20EE801AEC
:103FB00000EE901AF8EE600AB4EEE01AF1EE10FA94
:103FC00010DD00EE904AF8EE600A20EE801A00EE56
:103FD000900AF8EE600AB4EEE01AF1EE10FA01DD94
:103FE000032020E000EE901AF8EE600A20EE801A1E
:103FF00000EE902AF8EE600AB4EEE01AF1EE10FA44
:1040000013DD00EE900AF8EE600A00E00DE060EECD
:10401000800A00EE102AB8EE400AF4EEC00AF1EE73
:1040200010FA02DD0420687000E06B702E700298B8
:10403000A8602C83A5F81A9001207DE66804002072
:104040001E22002018010020341E002060010020E4
:104050005B53574545505D207461626C6520626515
:1040600067696E2C20706F696E74733D25750D0A3B
:1040700000000000416D706C6974756465205072B9
:104080006F66696C652028567070206D56293A0D50
:104090000A5B00004D154C3EDC6828405B535745D9
:1040A00045505D206661696C3A207065616B206CDB
:1040B0006576656C206973207A65726F0D0A000061
:1040C0002C0000005B256C752C252E32665D257357
:1040D000000000005D0D0A00506861736520507299
:1040E0006F66696C65202844656772656573293A57
:1040F0000D0A5B0000C079C433335340000080399F
:10410000713DEA3F0000C842000000000080FA4311
:104110005B53574545505D207461626C6520656E48
:10412000640D0A003333333F9A99993E704700007B
:1041300070B54FF48071104C4D00012810D002284A
:1041400010D0032810D0042814D101222046FDF7F6
:10415000BDFE002229462046BDE87040FDF7B6BEF0
:104160000022F3E7002200E001222046FDF7AEFE28
:104170000122EFE770BD0000000C0240FDF7ACBF6C
:1041800030B593B030216846FCF795F814210CA89F
:10419000FCF791F81E480025016841F0805101604C
:1041A000006800F0805011901A48016841F4804185
:1041B00001600068022400F480401190012000900A
:1041C000000401908001CDE90640192008904FF4C9
:1041D000A870CDE9090404200B906846FEF702F9A7
:1041E00008B172B6FEE70CA90F2081E831004FF448
:1041F000A0500F904FF48050109005210CA8FEF7AE
:1042000005F8002801D072B6FEE713B030BD0000FB
:1042100040380240007000400248016841F47001DB
:104220000160704788ED00E0F0B50268274B284D2B
:10423000284E294F294C4FF0804C984209D06045B8
:1042400007D0A84205D0B04203D0B84201D0A04266
:1042500004D122F0700E4A6842EA0E0298421BD046
:10426000604519D0A84217D0B04215D0B84213D03B
:10427000A04211D01A4DA8420ED01A4DA8420BD020
:10428000194DA84208D0194DA84205D0184DA84292
:1042900002D0184DA84203D122F44075CA682A43BF
:1042A0004D6922F080022A438D68C5620D688562DF
:1042B000984201D0A04201D109690163016841F02F
:1042C00004010160012141610260F0BD0000014074
:1042D0000004004000080040000C004000040140C1
:1042E00000400140004401400048014000180040E7
:1042F000001C00400020004010B501F01F03012108
:10430000046A99408C430462016A9A401143016235
:1043100010BD10B5846842EA032224F47F440A43A6
:104320002243826010BD826822F070020A4342F08C
:104330000701816070470000F0B5036A026A22F04D
:104340000102026242688469124E24F073050C680F
:104350002C4323F002058B682B430D4DA84201D05E
:10436000B04205D123F00807CB683B4323F0040398
:10437000A84201D0B04205D14D6922F440721543E4
:104380008A692A4342608461496841630362F0BDDF
:104390000000014000040140F0B5026A036A23F006
:1043A00010030362436884690D6824F4E64444EA18
:1043B00005248D6822F0200242EA05120F4D104EAE
:1043C000A84201D0B04206D1CF6822F0800242EA72
:1043D000071222F04002A84201D0B04207D14D6935
:1043E00023F4406343EA85038D6943EA8503436010
:1043F0008461496881630262F0BD000000000140F1
:1044000000040140F0B5026A036A23F4807303627A
:104410004368C46922F4007224F073050C68124EDC
:104420002C438D6842EA05220E4DA84201D0B042CD
:1044300006D1CF6822F4006242EA072222F48062A9
:10444000A84201D0B04207D14D6923F4405343EA5A
:1044500005138D6943EA05134360C4614968C1636C
:104460000262F0BD000001400004014030B5046A62
:10447000026A22F4805202624268C3690D6823F422
:10448000E64343EA05238D6824F4005444EA0534E6
:10449000084DA84202D0084DA84204D14D6922F42B
:1044A000804242EA85124260C36149680164046245
:1044B00030BD0000000001400004014010B5036A57
:1044C000046A24F001040462846924F0F00444EADC
:1044D000021423F00A020A438461026210BD10B57F
:1044E000036A046A24F010040462846923F0A003C0
:1044F00024F4704444EA023243EA01118261016209
:1045000010BD00002DE9F041144E3078052802D08E
:104510000020BDE8F081124C032012A725782070FE
:10452000FFF706FE12A115A0FEF7C8FE1448FFF71C
:10453000CDFB20B112484078FFF774FB074639469F
:104540000EA0FEF7BBFE28462570FFF7F1FDFCF735
:1045500001FC0020307070600120DAE7C00000200C
:10456000000000205343414E5F4641494C0000008B
:104570005343414E4E494E4700000000743900003D
:10458000FC00002070B5040007D031B172B60E4AAD
:104590009088884203D2908802E0002070BD0846CF
:1045A0000023951D08E011884E5D491CE654C1F3B7
:1045B00009015B1C11809BB28342F4D39188091AD4
:1045C000918062B670BD00005A0C002001488088BE
:1045D000704700005A0C00200FB470B5104D687879
:1045E00020B14FF0FF3070BC5DF814FB05AB40F21A
:1045F000FD310C48049A00F061FB041EF3DD09480C
:1046000009A1204409880180FF2181700120687080
:10461000E01C82B203490548FEF723FE2046E2E78C
:10462000CC00002060120020FFFFFF0040050020AA
:1046300010B5806B0021C185FEF776FB10BD70B50B
:10464000846B2068406994F84110C0F3C0100025C5
:10465000212904D118B1E584204600F08EF82068A5
:10466000406994F84210C0F38010222904D118B197
:10467000E585204600F05AF8606C40F01000606458
:104680002046FEF751FB70BD10B50146806B0968EE
:1046900009684FF00002C9052ED4C28501680C31AB
:1046A00051E8003F23F4807341E80034002CF5D139
:1046B0000168143151E8003F23F0010341E8003460
:1046C000002CF5D10168143151E8003F23F040037C
:1046D00041E80034002CF5D1202180F84210016B14
:1046E000012909D101680C3151E8003F23F0100382
:1046F00041E80034002CF5D14263016B012902D05E
:10470000FEF730FD10BD818DFEF7E2FA10BD10B549
:10471000806B01214163016B012902D0FEF750FD3E
:1047200010BD818D4908FEF7D3FA10BD01680C3128
:1047300051E8002F22F4907241E80023002BF5D1BC
:104740000168143151E8002F22F0010241E80023F2
:10475000002BF5D1016B012909D101680C3151E819
:10476000002F22F0100241E80023002BF5D1202178
:1047700080F8421000210163704701680C3151E854
:10478000002F22F0C00241E80023002BF5D12021A8
:1047900080F84110704708B590F84210222901D0E6
:1047A000022008BD82684FF480539A4201D101690A
:1047B00021B1816A9A421BD04AB10AE00268816A3B
:1047C0005268C2F308020A80816A891C08E0026903
:1047D00072B10268526802F07F020A70816A491C55
:1047E0008162C18D491E0904090CC18503D01BE0FB
:1047F00002685268F1E70168CA6822F02002CA60C4
:104800000168CA6822F48072CA6001684A6922F0AD
:1048100001024A61202180F8421000214163026BAD
:10482000012A03D0FEF79EFC002008BD0163016849
:104830000C3151E8002F22F0100241E80023002B38
:10484000F5D101680A68D20602D50A684968009164
:10485000818DFEF73DFAE7E770B50446006801690F
:10486000E26821F44051114301612169A068E269C5
:1048700008436169114308432168CA6849F20C631F
:104880009A430243CA6020684169A26921F44071D9
:104890001143416131492068884202D03049884241
:1048A00002D1FDF75DFD01E0FDF74AFDE26900235D
:1048B000192164253226B2F5004F626828D0A0FB8A
:1048C0000101930F9200FBF77DFC0146B0FBF5F070
:1048D0006FF01802504301EB800006EB0010B0FBB4
:1048E000F5F000F0F002B1FBF5F002EB0012B1FBC5
:1048F000F5F06FF01803584301EB800006EB001051
:10490000B0FBF5F000F00F0021681044886070BD26
:10491000A0FB010192185B41FBF754FC0146B0FB80
:10492000F5F00201B1FBF5F06FF01803584301EB0D
:10493000800006EBC000B0FBF5F000F0F80002EBE1
:104940004002B1FBF5F0584301EB800006EBC000DC
:10495000B0FBF5F000F00700D6E7000000100140C2
:104960000014014038B58162044682850020134658
:104970006064222284F84220E56B1F4AEA63E56BFB
:104980001E4A2A64E56B1E4AEA64E26B10650A4619
:104990002168E06B091DFDF757F930B11020606404
:1049A000202084F84200012038BD2068016840685A
:1049B0000090206948B120680C3050E8001F41F495
:1049C000807140E80012002AF5D12068143050E8C8
:1049D000001F41F0010140E80012002AF5D12068D3
:1049E000143050E8001F41F0400140E80012002A56
:1049F000F5D1002038BD0000894600080F470008A7
:104A00003F46000881628285C285002141642221DF
:104A100080F84210016921B10168CA6842F48072CD
:104A2000CA6001684A6942F001024A610068C168CF
:104A300041F02001C160002070472DE9F8439846FD
:104A400017460D460446089E24E0701C22D0FDF750
:104A500043FAA0EB0800B0421AD8CEB12068C16872
:104A6000490717D5802D15D0402D13D00168C943B3
:104A700009070FD401680025406800902046FFF721
:104A800055FE0820606484F840500120BDE8F8839A
:104A90000320FBE72068006835EA000004D000200E
:104AA000B842D2D00020F1E70120F9E70148FEF733
:104AB0003DB90000F80400200148FEF737B90000B6
:104AC00040050020FEE700002DE9F05F3B4C054665
:104AD0008946A0889346002681B232462068FDF7B9
:104AE000F5F904F1080A0022BAF80410DAF8000017
:104AF00089B2FDF7EBF9A4F13008A088002281B259
:104B00002068FDF7E3F92806B8F80410D8F800008B
:104B100089B201D5012200E00022FDF7D7F9A08873
:104B2000012281B22068FDF7D1F96806050E022046
:104B300002F08EF9761CF6B2082EDED3A088002291
:104B400081B22068FDF7C2F900252BE01BF8057043
:104B50000026A088002281B22068FDF7B7F9380648
:104B6000B8F80410D8F8000089B201D5012200E09D
:104B70000022FDF7ABF9A088012281B22068FDF781
:104B8000A5F97806070E022002F062F9761CF6B24B
:104B9000082EDED3A088002281B22068FDF796F9A6
:104BA0006D1CEDB24D45D1D3BAF80410DAF800000F
:104BB000BDE8F05F89B20122FDF788B968000020E6
:104BC00008B50A460346B1F5806F00D37222002073
:104BD000009069461046FBF79FFF1846FBF7D6FF8B
:104BE0006A4603210620FFF76FFF08BD38B504466B
:104BF0000B4A481E904200D30A4900200090084604
:104C0000FBF704FD41EC100B6846FCF7B1F92046B8
:104C1000FBF7BCFF04216A460846FFF755FF38BD85
:104C20000065CD1D52BF010038B50A460446B1F5F6
:104C3000B47F00D300220020009069461046FEF7A2
:104C400085FF2046FBF7A2FF6A4602210520FFF7F9
:104C50003BFF38BD0C4910B5002008800B49087097
:104C600048700B490880488088804FF40072A1F595
:104C700000710848FEF706F804490122BDE810401B
:104C8000C91C0548FEF760BA58080020CC00002077
:104C90005A0C0020F8040020400500200FB4054BFA
:104CA00010B503A9044A029800F034FF10BC5DF867
:104CB00014FB0000B96E0008F40000207CB50C0065
:104CC0001D461646014601D0601E00E00020CDE9D9
:104CD0000010064B6A462946304600F01BFF002CA8
:104CE00002D0009A002111707CBD00001B620008F8
:104CF00003B401984100009850EAC12018BF042075
:104D00004A0D18BF40F0010040F2FF72B2EB515F54
:104D100008BF40F00200012808BF052002B070471C
:104D20004100080218BF04200A0E18BF40F001001D
:104D30004FF07F4232EA010108BF40F00200012833
:104D400008BF052070470907090E002804DB00F1A1
:104D5000E02080F80014704700F00F0000F1E02020
:104D600080F8141D7047000010B52F499FED2C1BD3
:104D70002DED020B84B0059820F000408842D8BF8A
:104D80009DED040B2DDD2949884209D1049840B9D5
:104D90004FF0010000F0F6FD00F006FD06B010BD7A
:104DA00005DB9DED040B00F0F3FC06B010BD68467A
:104DB0009DED040B00F004F910F0030004BF9DED1D
:104DC000021B9DED000B0CD001280ED09DED021BA7
:104DD0009DED000B022817D0012000F041FC06B029
:104DE00010BD00F009FB06B010BD9DED021B9DED4E
:104DF000000B012000F034FC51EC100B81F000415D
:104E000006B041EC100B10BD00F0F6FA51EC100B9F
:104E100081F0004106B041EC100B10BD0000000015
:104E20000000000000000000FB21E93F0000F07FCF
:104E300000B510EE101A2DED028B81B0524A684673
:104E4000B2EB410F2ED94FF0E640B0EB410F94BFCB
:104E500000204FF0FF3000900098B0EE408A00280C
:104E60006ADB10F0010F4BD068EE080A9FED471A7D
:104E70009FED470A00EE810A9FED461A10F0020FDF
:104E800000EE801AB7EE000A00EE810A02BF01B000
:104E9000BDEC028B00BD00BF01B0B1EE400ABDEC1D
:104EA000028B00BD3C4B21F00042934241D911F0EE
:104EB000004FDFED3A0A20EE201ADFED390A19BF64
:104EC00031EE601A71EE200A31EE201A71EE600A9E
:104ED000BDEEE01A11EE100A9FED321A00F0030049
:104EE00000EEC10A9FED301A009000EEC10A9FED5E
:104EF0002F1A00EEC10A9FED2E1A00EEC10AABE791
:104F000028EE080A9FED2B1ADFED2B0A10F0020F96
:104F100040EE410A9FED291A00EE201A61EE000AC8
:104F2000B0EE480A08EE200AB6D101B0BDEC028B03
:104F300000BD00F06DFC8FE718EE100A4000B0F1E4
:104F40007F4F0DD218EE100AFFF7EAFE042808BFC3
:104F500000F056FCB0EE480A01B0BDEC028B00BD7B
:104F600009D1012000F00EFD01B0BDEC028B5DF80F
:104F700004EB00F03DBC01B0B0EE480ABDEC028B82
:104F80005DF804EB00F030BCB61F927EB93AB2BABD
:104F9000CA9F2A3DDDFFFFBE490E494683F9223FE5
:104FA0000000004B0000C93F00A0FD390020A233E3
:104FB0001A61342C336D4C39DA82083CA0AA2ABE1F
:104FC0002DE9F14F04462DED020B2DED088B8AB033
:104FD0009FEDE70B80ED020B139EE74826F000459E
:104FE00085420ADC9DED120B002084ED000B0AB017
:104FF000BDEC088B03B0BDE8F08FE0489FEDE0AB5F
:105000009FEDE1BBA84247DDE14F9FEDE39B9FEDA4
:10501000E48B9DED120B53EC1A2B51EC100B002E70
:105020001CDDFBF7FBF941EC100BBD4208D053EC43
:105030001B2B51EC100BFBF7F1F9C4E900010BE05D
:1050400053EC192B51EC100BFBF7E8F953EC182B30
:10505000FBF7E4F9C4E900010120C8E7FBF73DF9DB
:1050600041EC100BBD4208D053EC1B2B51EC100B44
:10507000FBF733F9C4E900010BE053EC192B51ECB9
:10508000100BFBF72AF953EC182BFBF726F9C4E9B0
:1050900000014FF0FF30AAE7C348A84279DB9DED3D
:1050A000120B51EC100B01F0FBFE41EC180B9FEDC5
:1050B000C00B53EC102BFBF7B7F99FEDBF1B53EC64
:1050C000112BFBF70AF9FBF7AEFA0746FBF78DFA4F
:1050D00041EC190B53EC1A2BFBF7A6F953EC182BE8
:1050E000FBF79FF941EC180B53EC1B2B51EC190B00
:1050F000FBF79AF9DFF8C8A241EC100B4FEA1558FC
:105100000125FA4453EC102B51EC180BFBF786F9F0
:10511000032DC4E900013DD0C1F30A5005EB451150
:10512000A8EB00001139814234DA0AEB051BB0EE1E
:1051300048AA9BED000BF0EE68AA53EC102B51EC43
:10514000190BFBF771F941EC1B0B51EC1A0B53ECEB
:105150001B2BFBF763F941EC180B51EC1A0B53ECCA
:10516000182BFBF75BF953EC1B2BFBF757F99BED67
:10517000020B41EC1A0B53EC102B51EC190BFBF703
:1051800053F953EC1A2BFBF749F941EC100B6D1C4A
:10519000B8E70EE0002EA8BF3846BFF628AF94ED62
:1051A000000B51EC100B81F00041C4E90001784282
:1051B0001DE7C6F3130040F4801EC6F30A50A0F2A8
:1051C000F530471100F01F05C5F12000DDF848B0AB
:1051D00008900020069007900520EC467949002DA4
:1051E00007EB0002794408BF51F8221009D051F8AA
:1051F000223001EB8201AB404A68089922FA01F1A2
:105200001943A1FB0E26A1FB0B131A449A4234BF8B
:105210000123002303EB06080CEB8003D3E901A66E
:105220000E448E4234BF0121002192448A4411B1C0
:10523000924502D903E0924501D2012100E000210C
:10524000C3E901A641444CF82010011EA0F1010061
:10525000C4DC029800F10050850F0298DDE9036775
:105260008000DDF81480FBF7C0F941EC1A0B3046E2
:10527000FBF7CCF99FED541B53EC112BFBF7D4F843
:1052800041EC1B0B3846FBF7C1F99FED511B53EC6A
:10529000112BFBF7C9F841EC180B4046FBF7B6F9A8
:1052A0009FED4D1B53EC112BFBF7BEF841EC190B96
:1052B00051EC180B53EC192BFBF70FF853EC1B2B8D
:1052C000FBF70BF853EC1A2BFBF707F8CDE90801B5
:1052D000002008909DED080B53EC1A2B51EC100B9D
:1052E000FBF79CF853EC1B2BFBF798F853EC182BAF
:1052F000FBF794F853EC192BFBF793F89FED381B51
:1053000053EC112BFBF790F89FED370B41EC180B8A
:1053100053EC102B9DED080B51EC100BFBF784F8B0
:1053200053EC182BFAF7D9FF9FED310B41EC180B1A
:1053300053EC102B9DED080B51EC100BFBF774F8A0
:1053400053EC182BFAF7C9FF41EC100B139810F02F
:10535000004F06D06D4251EC100B81F0004141EC42
:10536000100B284684ED000B41E600000000000011
:105370000000000000000000FB21E93F7CD9024052
:1053800000004054FB21F93F3163621A61B4D03D03
:10539000FB21F93F000000000000601A61B4D03D1D
:1053A0007370032E8A19A33BFB21394100000000D2
:1053B00083C8C96D305FE43F000000000000E03F9B
:1053C0007A8A0000C8890000000000000000103E3A
:1053D000000000000000103C000000000000103A37
:1053E000182D4454FB21F93D3326A611460B113CE0
:1053F00000000054FB21F93D10B52DED040B2DEDFF
:10540000088B82B0B0EE419AF0EE619A0B9820F0D2
:1054100000449FED4BABB4F1795F11DA9DED0A0BBF
:1054200051EC100BFBF7FFF8002801BFB0EE4A0A61
:10543000F0EE6A0A02B0BDEC088B04BF04B010BDE8
:105440009DED0A0B53EC102B51EC100BFAF7ECFF0F
:1054500041EC180B3C480621B0EE480AF0EE680A11
:10546000784400F081F853EC182B51EC100BFAF74C
:10547000DBFF9DED0A0B41EC1B0B53EC192B51ECA0
:10548000100BFAF7D1FF41EC190B53EC1B2B51EC2D
:10549000180BFAF7C9FF53EC192BFAF7BFFF9FED72
:1054A0002C0B41EC190B53EC102B51EC180BFAF7A9
:1054B000BBFF41EC100B2848844210DA53EC192B47
:1054C00051EC100BFAF7AAFF53EC1A2BFAF7A9FFCD
:1054D00041EC100B02B0BDEC088B04B010BD1F48AE
:1054E000A042BCBF9FED1E1B8DED001B06DBA4F58B
:1054F00000100190002000909DED001B51EC100B5E
:1055000053EC112BFAF78AFF9DED000B41EC180BC1
:1055100053EC102B51EC1A0BFAF780FF41EC1A0BED
:1055200053EC192B51EC180BFAF778FF53EC1A2BAC
:10553000FAF777FF41EC100BCCE700000000000009
:10554000000000000000F03FEC86000000000000BA
:10555000000000000000E03F3333D33F0000E93F8C
:10556000000000000000D23F70B504462DED028B14
:105570004D1E00EBC500B0EE408AF0EE608A90ED63
:10558000000B35F0060017D053EC182B51EC100B24
:10559000FAF74AFF41EC100B6D1E04EBC50090EDCD
:1055A000001B51EC100B53EC112BFAF796FE41EC5B
:1055B000100B35F00600E7D1022D36D0042D1CD09B
:1055C000062D1CBFBDEC028B70BD53EC182B51ECAB
:1055D000100BFAF729FF94ED0A1B53EC112BFAF785
:1055E0007CFE53EC182BFAF71FFF94ED081B53ECCD
:1055F000112BFAF772FE41EC100B53EC182B51EC07
:10560000100BFAF711FF94ED061B53EC112BFAF770
:1056100064FE53EC182BFAF707FF94ED040B53ECE0
:10562000102BFAF75AFE41EC100B53EC182B51ECEF
:10563000100BFAF7F9FE94ED021B53EC112BFAF75D
:105640004CFE53EC182BFAF7EFFE94ED001B53ECD5
:10565000112BFAF742FEBDEC028B41EC100B70BD32
:1056600031B504462DED040B2DED0A8BB0EE41BA99
:10567000F0EE61BA0B989DED0A0B20F00040B0F1FE
:10568000795F0DDA51EC100BFFF732FB042808BFED
:1056900000F09AF89DED0A0BBDEC0A8B05B030BD09
:1056A00053EC102B51EC100BFAF7BEFE41EC180B2B
:1056B0009DED0A0B53EC182B51EC100BFAF7B4FECE
:1056C00041EC190B2C48B0EE480AF0EE680A0521AF
:1056D0007844FFF749FF9FED2ACBB0EE40AAF0EEE9
:1056E00060AA9CB353EC1C2B51EC190BFAF79CFEEF
:1056F00041EC1C0B53EC1A2B51EC190BFAF794FEEE
:105700009FED210B41EC190B53EC102B51EC1B0BB3
:10571000FAF78AFE53EC192BFAF780FE53EC182B9C
:10572000FAF782FE53EC1B2BFAF778FE53EC1C2B96
:10573000FAF774FE9DED0A1B53EC112BFAF771FE7C
:10574000BDEC0A8B05B041EC100B30BDFFE753EC0C
:105750001A2B51EC180BFAF767FE53EC1C2BFAF7D7
:10576000BCFD53EC192BFAF75FFE9DED0A1B53ECC1
:10577000112BFAF7B2FDE3E794850000000000006A
:10578000495555555555C5BF000000000000E03F84
:1057900010B553EC102B51EC100BFAF79EFD41ECB9
:1057A000100B10BD000000009FED050B10B553EC71
:1057B000102B51EC100BFAF7A9FE41EC100B10BDA9
:1057C00000000000000000009FED050B10B553EC39
:1057D000102B51EC100BFAF727FE41EC100B10BD0B
:1057E000000000000000001030EE000A70470000CA
:1057F000DFED020A80EEA00A704700000000000002
:105800009FED020A20EE000A704700000000001021
:105810002DE9F0014FF07F42B2EB410F9FBF4FF0F7
:10582000FF310160BDE8F00170474FF0004242EAED
:105830000123C1F3C752783A551112F01F0C434CA3
:10584000CCF120067C44C1F3C752A2F178024FEAA2
:10585000621204EB820254F8254008BFD2E90156D7
:1058600012D0556804FA0CF425FA06F73C43976801
:1058700005FA0CF527FA06F8D26807FA0CFCF24094
:1058800045EA08054CEA0206A4FB034CA5FB0352BB
:10589000A6FB03631D449D4234BF01260026131955
:1058A000334416B1934202D903E0934201D201225C
:1058B00000E00022624402F1200C9206DC0C42EA75
:1058C000443200EE102A5B03DFED210AF8EEC01A25
:1058D00000EE103A4FEA9C1C11F0004FB8EE400A5F
:1058E000C0F800C020EE201A00EE105ADFED190AB1
:1058F000B8EE400A20EE200A71EE810A70EE800AAE
:1059000010EE902A02F500626FF30B0200EE902A6F
:1059100070EEE11A31EEC11ADFED101A30EE411AC5
:105920009FED0D0A20EE800A01EE210A9FED0C1A70
:1059300000EE810A04BFBDE8F0017047CCF1805150
:105940000160BDE8F001B1EE400A7047008400003C
:10595000000000360000802C22AAFD29DB0FC92F91
:105960000000C92F02E008C8121F08C1002AFAD19E
:1059700070477047002001E001C1121F002AFBD1CF
:10598000704700000149086070470000F8000020DF
:105990002DE9FF5F82B00021DDE90430020DDDF862
:1059A00040B0034318D044F61050A2F2FF324243F5
:1059B0001514119801281FD0A5EB0B00401C5FEABD
:1059C000000A4FF000064E4FDFF83891B0465046BF
:1059D00015D5CAF1000413E0119801244AA3012847
:1059E00001D16FEA0B010298119AC0E90031C0E9B8
:1059F000024206B0BDE8F09FCBF10000DFE70446AD
:105A00000021404A491842EB0450CDE9001012E051
:105A1000E00707D032463B4640464946FAF704FDC8
:105A20008046894632463B4610461946FAF7FCFC4A
:105A300006460F466410002CEAD1DDE90401DDE9D9
:105A40000023BAF1000F06DAFAF7EEFC42464B46A5
:105A5000FAF7EAFC05E0FAF759FD42464B46FAF739
:105A600055FD04460E460022284BFAF727FE03D8C0
:105A70004FF0FF30014607E00022254B204631461B
:105A8000FAF72BFCFAF708FF102409E0002C0ADBD8
:105A90000A220023FAF796FB039B30321A55641E44
:105AA00050EA0102F2D1641C039AC4F111031444B8
:105AB000119A012A03D0012208430DD10AE00843BC
:105AC00004D000204FF0110B119072E7A3EB0B05EF
:105AD0006D1E0DE05B4504DD4FF0000205F1010590
