:020000040800F2
:10000000E81800209D0100085B310008D52A00088F
:1000100059310008850900086D45000800000000FE
:10002000000000000000000000000000F93B000894
:10003000A90A00080000000019330008393C000834
:10004000B7010008B7010008B7010008B7010008B0
:10005000B7010008B7010008B7010008B7010008A0
:10006000B7010008B7010008B7010008B701000890
:10007000B7010008B7010008B7010008B701000880
:10008000C9090008B7010008B7010008B701000856
:10009000B7010008B7010008B7010008B701000860
:1000A000B7010008B7010008B7010008B701000850
:1000B000B7010008B7010008B7010008B701000840
:1000C000B7010008B7010008B7010008B701000830
:1000D000B70100085545000861450008B701000850
:1000E000B7010008B7010008B7010008B701000810
:1000F000B7010008B7010008B7010008B701000800
:10010000B7010008B7010008B7010008B7010008EF
:10011000B7010008B7010008B7010008B7010008DF
:10012000D5090008B7010008E1090008ED09000839
:10013000B7010008B7010008B7010008B7010008BF
:10014000B7010008B7010008B7010008B7010008AF
:10015000B7010008B7010008F9090008B701000855
:10016000B7010008B7010008B7010008B70100088F
:10017000B7010008B7010008B7010008000000003F
:10018000B7010008B7010008DFF80CD000F006FB4B
:1001900000480047F5590008E81800200648804745
:1001A00006480047FEE7FEE7FEE7FEE7FEE7FEE75C
:1001B000FEE7FEE7FEE7FEE7D53C00088901000800
:1001C0002DE9F05F0546002092469B46884606468C
:1001D000814640241BE0284641464746224600F01F
:1001E00057FA53465A46C01A914110D31146184641
:1001F000224600F016F82D1A67EB01084F462246FA
:100200000120002100F00DF817EB00094E41201EDF
:10021000A4F10104DFDC484631462A464346BDE8E6
:10022000F09F202A04DB203A00FA02F100207047F8
:100230009140C2F1200320FA03F319439040704724
:10024000202A06DBCB17203A41FA02F043EAE0739A
:1002500006E041FA02F3D040C2F120029140084387
:100260001946704710B5431A934209D2831888186B
:1002700003E010F8011D03F8011D521EF9D210BD54
:1002800040EA01039B0703D009E008C9121F08C018
:10029000042AFAD203E011F8013B00F8013B521E98
:1002A000F9D210BDD2B201E000F8012B491EFBD2F9
:1002B00070470022F6E710B513460A460446194671
:1002C000FFF7F0FF204610BD421C10F8011B00296B
:1002D000FBD1801A70472DE9FE4F804681EA03006A
:1002E000C00F0C46009021F0004123F00045B8EB10
:1002F0000200A94105D24046214690461C460B46C5
:10030000024623F00040104347D0270DC7F30A00F0
:10031000C3F30A510290401A019040286BDAC3F3EC
:10032000130040F4801B0098924620B10023D2EBCA
:10033000030A63EB0B0B01985946C0F1400250468B
:10034000FFF76FFF06460D4650465946019AFFF7E4
:1003500077FF10EB08006141002487EA115284EA1C
:10036000E7731A4340D0009A62B3019A012A4FEA18
:10037000075215DC001B61EB02014FF0004202EA5C
:100380000752CDE90042001C41F5801132462B4650
:1003900000F09DF903B0BDE8F08F40462146F9E733
:1003A000001B61EB0201001C41F5801300185B414A
:1003B0002018A2F5001747EB030140EAD570B619E3
:1003C0006D4111E06D084FEA360645EAC0754FEA07
:1003D0000752001B61EB0201001C41F58011490826
:1003E0004FEA30000019514132462B4603B0BDE8B8
:1003F000F04F00F05DB90098012240000023D0EBDF
:10040000020263EBE073009821464FEAE074B8EB18
:10041000000061EB0401E9E783F000435BE781F052
:10042000004158E72DE9FE4F81EA030404F000443F
:1004300021F0004100944FF0000B23F0004350EAFC
:1004400001045ED052EA03045BD0C3F30A54C1F343
:100450000A552C44A4F2F3340194A0FB0254C1F3D6
:10046000130141F48011C3F3130343F4801301FB20
:10047000024400FB034E840A970A44EA815447EA87
:100480008357A4FB076802958D0A05FB07854FEA91
:10049000932C04FB0C542705029D4FEA065847EAAB
:1004A0001637B5EB08056EEB070C870E920E47EA80
:1004B000811742EA8312A7FB0201B6EB0B0164EB42
:1004C00000042B0D43EA0C335E1844EB1C50DA4653
:1004D0005146E7FB0201C5F313044FEA0B3343EA2D
:1004E00014534FEA0432019C43EA0603A4F10C04BE
:1004F0000294009CCDE900B400F0E9F803B0BDE837
:10050000F08F00200146F9E72DE9F04D81EA030460
:1005100004F0004B21F0004514464FF0000A23F090
:10052000004150EA050220D054EA01021DD0C5F373
:100530000A570246C5F31303C1F31300C1F30A5669
:1005400040F4801543F48013A7EB0608101BD64631
:1005500008F2FD3873EB050002D308F1010801E051
:1005600092185B41B8F1000F03DA00200146BDE8A4
:10057000F08D00204FF48011064684460EE0171BD4
:1005800073EB050705D3121B63EB050306434CEA27
:10059000010C49084FEA300092185B4150EA01070C
:1005A000EDD152EA030012D082EA040083EA050189
:1005B000084305D0101BAB4106D20122002306E000
:1005C00000224FF0004302E06FF0010253101AEBDB
:1005D00006004CEB085110EB0A0041EB0B01BDE8A3
:1005E000F04D00F065B80EB540F2334102910021A4
:1005F000CDE900110A460B4600F069F803B000BDD2
:10060000C1F30A5210B5C1F3130140F2FF3341F4B4
:1006100080119A4201DA002010BD40F233439A4221
:10062000A2F2334203DC524200F032F810BD904097
:1006300010BD000030B5041E71F1000404DB4FF062
:100640000044404264EB0101141E73F1000405DB19
:100650001C464FF00043524263EB0403994208BF2B
:10066000904230BD30B50B460146002020220124C7
:1006700009E021FA02F59D4205D303FA02F5491B70
:1006800004FA02F52844151EA2F10102F1DC30BD86
:10069000202A04DB203A21FA02F00021704721FAD7
:1006A00002F3D040C2F1200291400843194670473E
:1006B00010B5141E73F1000408DA401C41F100016A
:1006C00092185B411A4301D120F0010010BD2DE9C1
:1006D000F04D92469B4611B1B1FA81F202E0B0FAB8
:1006E00080F220329046FFF79CFD04460F4640EA18
:1006F0000A0041EA0B0153465A46084313D01146FB
:1007000053EA010019D0C8F140025046FFF7C0FF7C
:1007100005460E46504659464246FFF782FD0843BD
:1007200005D0012004E020463946BDE8F08D0020C8
:10073000054346EAE0762C4337430A986305E40A0A
:10074000A0EB08000022FD0A44EA47540A3002D513
:1007500000200146E9E7010510196941DDE9084576
:1007600000196941BDE8F04DA2E7C1F30A52C1F397
:10077000130140F2FF3341F480119A4202DA002063
:100780000146704740F233439A42A2F2334202DC00
:100790005242FFF77DBFFFF744BD0000064C074DF6
:1007A00006E0E06840F0010394E807009847103441
:1007B000AC42F6D3FFF7ECFCB8660008D866000838
:1007C00010B5094C0122A08881B2206800F07CFF9E
:1007D000012005F0BBF8A088002281B22068BDE8A6
:1007E000104000F071BF00006C000020464910B5B9
:1007F0004A6822F440324A604A6843681A434A60B1
:1008000001684A6822F480724A6001684A68036994
:1008100042EA03224A6001684A6822F040724A6054
:1008200001684A6883681A434A6001688A6822F44A
:1008300000628A6001688A68C3681A438A60816AB4
:100840006FF07062D14201688A6822F070628A603B
:1008500001688A680CD0836A1A438A6001688A68D2
:1008600022F040528A6001688A68C36A1A4301E034
:1008700022F040528A6001688A6822F002028A608F
:1008800001688A68037E42EA43028A6090F8201079
:10089000002901684A680FD042F400624A6001688A
:1008A0004A6822F460424A6001684A68174C436A09
:1008B00004EB43331A4301E022F400624A6001680A
:1008C000CA6A22F47002CA620168CA6A838B104C39
:1008D00004EB03531A43CA6201688A6822F4007267
:1008E0008A6001688A6890F8303042EA43228A6060
:1008F00001688A6822F480628A6001688A684069B7
:1009000042EA8020886010BD0023014000E0FFFF24
:100910000000F0FF8870102242EA1020487000208A
:10092000087070477047000010B500280BD000F029
:100930000DF80549086081B2002003F095FEBDE87E
:100940001040FFF73DBF10BDC40000200C4910B59A
:100950004860142801D8002010BD1438C10D400291
:1009600040F25642801841F1000152000023FFF787
:1009700027FCB0F5806FEFD340F2FF3010BD0000D0
:10098000C4000020FEE70000042805D203490A182D
:100990000121002003F0ECBD70470000280000207A
:1009A00010B54CF25031002003F074FE40F2FF31DC
:1009B000002003F059FE0021084603F089FEBDE83F
:1009C0001040FFF7FDBE0000014800F001BC000030
:1009D0007C020020014800F0FBBB0000A8010020C1
:1009E000014800F0F5BB000098040020014800F029
:1009F000EFBB000008020020014800F0E9BB000046
:100A0000F804002001681823CAB2103AB2FBF3F2CE
:100A1000054B6FF30901032A9B5CC36500D9091DCF
:100A200081650846704700003866000810B5014629
:100A300000208B698A6A4FF0C07453B1B3F5005F30
:100A400015D072B1012A0CD0022A0AD0032A09D18A
:100A500004E01AB1012A06D0022A03D1C96AC901E9
:100A600000D5012010BDC96AA142FAD010BD002AEC
:100A7000F7D0012AF2D0022AF3D0032AF3D010BD16
:100A800030B50468256825F4802525600468636016
:100A90008368402B036803D099600068C26030BD52
:100AA0009A600068C16030BD704772B6FEE7000012
:100AB00010B5044651EC100BFFF7A2FDFFF793FDB4
:100AC0009FED071B53EC112BFFF7ACFCFFF798FDD4
:100AD000E070010AA170010C6170000E207010BD61
:100AE00095D626E80B2E21401FB501208DF8000079
:100AF0000648019003208DF8080004480221001DDB
:100B00000390684602F0F2FB1FBD0000B400002015
:100B1000A0F1640240F655339A4220D2B1F57A7FB3
:100B20001DD3B1F5FA6F1AD864223238B0FBF2F057
:100B300080B21E2800D31D20A1F57A7189B232310E
:100B4000B1FBF2F189B20B2900D30A2100EB40027C
:100B500002EBC000084480B2B0F5A57F01D30020AD
:100B60007047024901EBC000C0887047E85B00088D
:100B700078B50024009490F83C20012A19D0012275
:100B800080F83C200A6807230568092A13D9EE6813
:100B90000A3A02EB420293409E43EE600B788A6869
:100BA0000A3B03EB43039A400368DD682A43DA609B
:100BB00010E0022078BD2E6902EB420293409E4372
:100BC0002E610B788A6803EB43039A4003681D6922
:100BD0002A431A614A681F23072A13D205686E6BDD
:100BE000521E02EB820293409E436E630B790A8889
:100BF0005B1E92B203EB83039A4003685D6B2A434A
:100C00005A6327E005680D2A12D22E6BD21F02EB21
:100C1000820293409E432E630B790A88DB1F92B2B7
:100C200003EB83039A4003681D6B2A431A6311E0A8
:100C3000EE6A0D3A02EB820293409E43EE620B791C
:100C40000A880D3B92B203EB83039A400368DD6A86
:100C50002A43DA62164B0568144A9D4206D10D6894
:100C6000122D03D1556845F48005556005689D42F5
:100C700018D10B68102B01D0112B13D1536843F4FA
:100C800000035360096810290CD10A490A4A09680F
:100C9000B1FBF2F101EB8101490000E0491E009136
:100CA0000029FBD180F83C40002078BD00230140A2
:100CB000002001402000002040420F000068C06C6E
:100CC000704770B504004FF0000503D0206C00267B
:100CD00010B107E0012070BD204600F01DF86664E9
:100CE00084F83C60206CC00610D4206C20F488503E
:100CF00040F0020020642046FFF778FD6664206C17
:100D000020F0020040F00100206400E0012584F89A
:100D10003C60284670BD00002DE9F04387B00646D0
:100D200014216846FFF7C5FA3748DFF8D8C01438F1
:100D30003568002434490323344A07154FF400680A
:100D40004FF40059654529D10D6845F480750D6053
:100D5000096801F480710591016841F001010160A9
:100D60000068694600F00100059001208DE8190037
:100D7000104600F0B1FB274D254805F10C0CC5E9E4
:100D80000004AC608CE89003EC612C6228466C6235
:100D900030E0B563AE6307B0BDE8F083DFF878C03C
:100DA0006545F8D10D6845F400750D60096801F4DA
:100DB00000710591016841F0010101600068694618
:100DC00000F00100059002208DE81900104600F0A7
:100DD00083FB104D0E486035483028604FF000709E
:100DE000C5E9010405F10C0C28468CE89003EC6180
:100DF0002C626C6200F0BCFA0028CAD0FFF755FEE6
:100E0000C7E70000002001404438024000000240D3
:100E100010640240A8010020002101402DE9F041AA
:100E2000044600680D4681684FF0000749050BD560
:100E30008068C00508D5206C40F02000206484F84C
:100E40003C700120BDE8F08100F044FC064613E050
:100E5000681C11D025B100F03DFC801BA8420BD9C5
:100E600020680068800707D4206C40F004002064EC
:100E700084F83C700320E5E7206800688007E7D528
:100E800021686FF012000860206C40F4007020644C
:100E90002068816811F0405F13D1217E89B9C16A51
:100EA00011F4700F02D0806840050AD4206C20F441
:100EB00080702064206CC00403D4206C40F00100DA
:100EC00020640020BEE7000018B50021009190F8D2
:100ED0003C20012A07D0012280F83C200268936858
:100EE000DB0702D011E0022018BD936843F0010334
:100EF00093602E4A2E4B1268B2FBF3F202EB4202D1
:100F000000E0521E0092002AFBD102689368DB07C2
:100F100042D0036C40F20164A34343F48073036442
:100F200053685B0505D5036C23F4005343F48053E9
:100F30000364036CDB0404D5436C23F006034364B1
:100F400000E0416480F83C101A496FF022031360FE
:100F500049680068CA06184906D0884224D18168C9
:100F600011F0405F13D01FE08842F8D0134A90423E
:100F700003D1D1F80423D206F1D0114A904213D103
:100F8000D1F8041301F01F011029E8D30CE08168A7
:100F900041F08041816007E0016C41F01001016483
:100FA000416C41F001014164002018BD2000002087
:100FB00040420F0000230140002001400021014079
:100FC0000022014090F83C1001290CD0012180F84A
:100FD0003C1001688A6822F001028A600168896811
:100FE000C90702D007E002207047016C21F4885144
:100FF00041F001010164002180F83C10084670476F
:1010000070B500B3F9B14379012B1ED001264671AA
:101010000223037105682C6802F0100340F6FE728B
:101020009A409443D1E900210A439A4022432A601E
:1010300001680A68C0249C40A2430A60067100212E
:101040004171084670BD012070BD022070BD70B5B1
:10105000040003D02079002510B105E0012070BD07
:101060006571204600F008F80220207125610120FA
:101070002071002070BD000070B586B005461421B7
:101080006846FFF716F91F492868884237D11E487D
:101090000026016841F000510160006800F0005036
:1010A000059019481038016841F00101016000689D
:1010B000694600F001000590102000900320CDE962
:1010C0000106124800F008FA124C114820604FF057
:1010D000606060604020C4E90206000120614000B9
:1010E00060618000A0614011C4E907062046666285
:1010F00000F03EF908B1FFF7D8FCAC60A56306B07C
:1011000070BD000000740040403802400000024002
:10111000886002407C0200202DE9F0410446876D82
:1011200000F0D8FA064694F835000025022806D0CB
:101130008020606584F834500120BDE8F08120688B
:10114000016821F0160101602068416921F08001E9
:101150004161206C08B9A06C20B12068016821F0C1
:10116000080101602068016821F0010101600CE0C4
:1011700000F0B0FA801B052807D920206065032005
:1011800084F8350084F83450D7E720680068C00739
:10119000EED194F85C103F208840B860012084F8BC
:1011A000350084F834500020C7E790F83510022944
:1011B00003D08021416501207047052180F835105A
:1011C0000068016821F00101016000207047000003
:1011D0002DE9F84304464FF00009CDF8009063482C
:1011E0004FF41651A56D0068B0FBF1F72E6894F826
:1011F0005C10082000FA01F131420FD021680A6822
:1012000052070BD50A6822F004020A6094F85C10B9
:101210008840A860606D40F00100606594F85C1043
:101220004FF0010808FA01F0304208D021684969FE
:10123000090604D5A860606D40F00200606594F86E
:101240005C1004208840304208D021680968890772
:1012500004D5A860606D40F00400606594F85C10EF
:1012600010208840304218D021680968090714D539
:10127000A86020680168490304D50068000308D508
:10128000A16C07E00168C90503D4016821F00801D9
:101290000160216C09B12046884794F85C10202039
:1012A0008840304231D021680968C9062DD5A86030
:1012B00094F8350005282068016806D0490347D511
:1012C000006800031DD4616C1CE021F01601016070
:1012D0002068416921F080014161206C08B9A06C4F
:1012E00020B12068016821F00801016094F85C10C9
:1012F0003F208840A86084F8358084F83490216DC0
:101300001FE0E16B09B120468847606D00282BD0B3
:10131000606DC00714D0052084F83500206801688E
:1013200021F0010101600098401C0090B84203D8F0
:1013300020680068C007F6D184F8358084F83490BE
:10134000E16C002910D001B02046BDE8F043084709
:101350000168C905D5D4016821F01001016084F845
:10136000358084F83490CCE7BDE8F8832000002075
:101370002DE9F041044600F0ADF906465CB10220CB
:1013800084F83500002584F834502068016821F085
:10139000010101600DE00120BDE8F08100F09AF943
:1013A000801B052805D920206065032084F83500BE
:1013B000F2E720680068C007F0D122681168204871
:1013C0000140D4E901031843D4E9033633431843F9
:1013D00063691843A3691843E3691843236A1843F0
:1013E0000843616A042903D1D4E90B131943084364
:1013F000106020684069666A20F0070130460E439D
:10140000012704280CD1A06A0643E06A40B12046B7
:10141000FFF70CFB20B14020606584F83570BAE717
:10142000206846612046FFF7EDFA94F85C203F21E2
:1014300091408160656584F835700020ACE700005C
:101440003F8010F02DE9F0410446866D90F834009D
:10145000002501280DD0012084F8340094F835705F
:101460000020012F07D084F8340002252846BDE86B
:10147000F0810220FBE7022784F835706065204682
:10148000FFF7FEFA94F85C103F208840B0602068B7
:10149000016841F016010160206C20B120680168EC
:1014A00041F0080101602068016841F0010101601C
:1014B000DCE7000070B5044600F00CF90546601C3E
:1014C00002D004480078044400F004F9401BA04214
:1014D000FAD370BD140000202DE9F84FDFF8BCA14D
:1014E0000022012503264FF00F090AF1040BAAF18F
:1014F000040E00BF0B6805FA02F42340A34270D12A
:101500000F7907F00307012F01D0022F16D187684A
:101510004FEA420806FA08FC27EA0C07D1F80CC08B
:101520000CFA08FC4CEA070CC0F808C04768A7434F
:101530000C79C4F3001494403C4344600C79E443B8
:10154000A4070AD0C4684FEA420C06FA0CF7BC4361
:101550008F6807FA0CF72743C7600C7904F003047F
:10156000022C12D1D40800EB840CDCF82040570781
:10157000FF0E09FA07F824EA0804D1F8108008FAE7
:1015800007F848EA0408CCF8208004684FEA420CC7
:1015900006FA0CF7BC430F7907F0030707FA0CF7BC
:1015A000274307604C6814F4403F70D03C4C2768D8
:1015B00047F480472760246822F0030704F480443E
:1015C0000094384C07EB040CDCF8084897074FEA06
:1015D000177809FA08F7BC43334FB84202D1002705
:1015E00024E054E0314FB84201D101271EE0304FD2
:1015F000B84201D1022719E02E4FB84201D103278A
:1016000014E02D4FB84201D104270FE02B4FB84210
:1016100001D105270AE02A4FB84201D1062705E08B
:10162000284FB84201D1072700E0082707FA08F73A
:101630002743CCF80878DAF800405746D1F804C0C0
:101640009C435FEACC2C00D51C433C60DBF8004097
:101650005F46D1F804C09C435FEA8C2C00D51C4344
:101660003C60DEF800407746D1F804C09C435FEA56
:101670008C3C00D51C433C60084F083F3C68D1F8C7
:1016800004C09C435FEACC3C00D51C433C60521C28
:10169000102AFFF42FAFBDE8F88F0000083C01408E
:1016A0004438024000300140000002400004024083
:1016B00000080240000C02400010024000140240EA
:1016C00000180240001C02400AB181617047090401
:1016D000FBE700000148806870470000140000200C
:1016E00070B5040025D094F83D00002520B984F899
:1016F0003C50204600F0B8F8242084F83D002068D3
:10170000016821F0010101602068016841F4004195
:1017100001602068016821F40041016000F00EFAC8
:101720004D4A6168914201D84C4900E04C498842D9
:1017300001D2012070BD4B492368B0FBF1F15E6816
:1017400026F03F060E435E606368934206D94FF46D
:10175000967359434FF47A73B1FBF3F12368491C34
:101760001E6A26F03F06314319626168914210D823
:101770004900401EB0FBF1F2521CC2F30B02042AD6
:1017800001D2042022E0B0FBF1F0401CC0F30B00BA
:101790001CE0A268F2B301EBC10303EB0116431E88
:1017A000B3FBF6F35B1C43F480431B0549D092B3B3
:1017B00001EBC10202EB0111401EB0FBF1F0401C35
:1017C000C0F30B0040F4804040F400402168CA6937
:1017D0004CF6FF739A431043C861D4E907100143E4
:1017E0002068026822F0C00211430160D4E90301BD
:1017F00001432068826848F2FF339A4311438160B5
:10180000D4E9050108432168CA6822F0FF021043A9
:10181000C86001E00EE016E02068016841F00101B7
:1018200001602564202084F83D00256384F83E5043
:10183000002070BD01EB4106431EB3FBF6F35B1CB9
:10184000B3E70120C2E701EB4101401EB0FBF1F01C
:10185000401CC0F30B00B7E7A086010080841E0087
:1018600000093D0040420F0010B586B00446142127
:101870006846FEF71EFD14492068884221D11348AE
:101880000021026842F002020260006800F00200DB
:1018900005904FF4406000901220CDE90101032033
:1018A00003900420049069460948FFF715FE074895
:1018B0001030016841F480010160006800F480008C
:1018C000059006B010BD00000058004030380240BE
:1018D0000004024002488168027811448160704728
:1018E000140000200B4810B5016841F4007101603C
:1018F000016841F480610160016841F48071016018
:10190000032000F06FF80F2000F006F800F024F834
:10191000002010BD003C024070B50D4D04464FF450
:101920007A712878B1FBF0F00A490968B1FBF0F050
:1019300000F00CFB48B9102C07D200222146501EA3
:1019400000F030F800206C6070BD012070BD000018
:1019500014000020200000200A4808B5016841F466
:1019600080410160006800F4804000900548001F3D
:10197000016841F080510160006800F080500090E3
:1019800008BD000044380240002809DB00F01F02B7
:10199000012191404009800000F1E020C0F80011D1
:1019A00070470000F0B40E4B1B680C46C3F30223D3
:1019B000C3F10705042D00D90425191D072901D2FB
:1019C000002300E0DB1E012606FA05F1491E214036
:1019D00099409E40761E16403143F0BC02F0EBBEAB
:1019E0000CED00E0064900F0070208684FF6FF031F
:1019F000184040EA0220034A104308607047000084
:101A00000CED00E00000FA052DE9F0470E46050058
:101A100065D0DFF81481D8F80000F7B200F00700B5
:101A2000B04207D288F80070D8F8000000F0070034
:101A3000B04254D128683D4C810712D5400703D5E8
:101A4000206840F4E05020602878000703D5206823
:101A500040F4604020602068A96820F0F00008434E
:101A600020602878C0072DD03049686808390128DF
:101A700012D0022813D0032811D009688907002941
:101A80002DDA216821F0030101432160FFF722FED6
:101A9000814641F2883A0EE009688903EFE7096858
:101AA0008901ECE7FFF716FEA0EB0901514502D9C9
:101AB0000320BDE8F0872068696800F00C00B0EBF7
:101AC000810FEFD1D8F80010404601F00701B14274
:101AD00007D90770006800F00700B04201D001206C
:101AE000E7E72878400705D52068E96820F4E0504A
:101AF000084320602878000706D52068296920F46B
:101B0000604040EAC100206000F038F82168084ACF
:101B1000C1F30311515CC8400649086006480068DB
:101B2000FFF7FAFE0020C4E7003C024008380240FC
:101B300040660008200000201800002004480549E5
:101B400000680968044AC1F38221515CC8407047AB
:101B5000200000200838024050660008044805496B
:101B600000680968044AC1F34231515CC8407047BB
:101B7000200000200838024050660008154810B5C3
:101B8000006810F00C02144813D01449042A0FD036
:101B9000082A0ED10F4C241F2268236802F03F024E
:101BA0005B0207D52068C0F38810A0FB010106E0A6
:101BB000084610BD2168C1F38811A1FB0001002374
:101BC000FEF7FEFA2168C1F30141491C4900B0FB50
:101BD000F1F010BD083802400024F40040787D0187
:101BE0002DE9F84F04006ED02078DFF84C93C00741
:101BF000A9F104054AD009F104000168C1F381018B
:101C0000012908D00068C0F3810002280AD1D9F860
:101C10000000400206D52868800337D56068002898
:101C2000E1D033E06068B0F5803F10D0B0F5A02F70
:101C3000286810D020F480302860286820F48020A4
:101C400028606068A8B1FFF745FD06460DE02868EA
:101C500040F48030F4E740F480202860F7E700BFCC
:101C6000FFF738FD801B642873D828688003F7D5F8
:101C70000CE0FFF72FFD064605E000BFFFF72AFD49
:101C8000801B6428F0D828688003F7D42078DFF818
:101C9000AC8280074FF0000A3ED5A748001D0168BE
:101CA00011F00C0F08D00068C0F3810002280BD19E
:101CB000D9F80000400207D42868800716D5E068EC
:101CC000012800D112E033E1E068B8B10120C8F882
:101CD0000000FFF7FFFC064605E000BFFFF7FAFC37
:101CE000801B0228C0D828688007F7D5286821699A
:101CF00020F0F80040EAC10028600DE0C8F800A01C
:101D0000FFF7E8FC064604E0FFF7E4FC801B02282E
:101D10001FD828688007F7D42078000722D5864F7F
:101D200087486169703771B101210160FFF7D2FC0A
:101D3000064604E0FFF7CEFC801B022809D838686D
:101D40008007F7D50EE0C0F800A0FFF7C3FC0646F9
:101D500005E082E0FFF7BEFC801B02287DD83868D2
:101D60008007F7D42078400768D5DFF8CCB100278A
:101D70000BF13C0BDBF80000C0000BD4DBF80010CB
:101D800041F08051CBF80010DBF80000012700F093
:101D9000805000906B4E3068C00510D4306840F41D
:101DA00080703060FFF796FC009005E0FFF792FC32
:101DB0000099401A022850D83068C005F6D55E4E0A
:101DC000A0686C3601280FD00528306810D020F0AC
:101DD00001003060306820F004003060A068B8B1C5
:101DE000FFF778FC00900FE0306840F00100F4E766
:101DF00040F004003060F7E7FFF76CFC0099411AEF
:101E000041F28830814266D830688007F4D50EE010
:101E1000FFF760FC009007E0FFF75CFC0099411AB7
:101E200041F28830814256D830688007F4D42FB10F
:101E3000DBF8001021F08051CBF80010A069C8B386
:101E40003D49091D0968C1F3810102294AD00228D0
:101E5000504607D0C8F8600000E03CE0FFF73AFCCD
:101E600004463BE04746C8F86000FFF733FC0646EF
:101E700005E000BFFFF72EFC801B02282BD8286846
:101E80008001F7D4D4E907010843A16A2E4A490822
:101E900002EB0141626A41EA8211084394F82C1076
:101EA00040EA0161C9F8001001203866FFF712FC12
:101EB000044606E03EE000BFFFF70CFC001B0228D2
:101EC00009D828688001F7D534E000BFFFF702FC8D
:101ED000001B022802D90320BDE8F88F2868800182
:101EE000F4D427E00128F7D0D9F80000E26900F423
:101EF000800191421CD1226A00F03F01914217D12A
:101F000047F6C071626A0140B1EB821F10D1A26A2C
:101F10004FF0FF3300F4403103EB5202B1EB024FBC
:101F200006D194F82C1000F07060B0EB016F01D076
:101F30000120D1E70020CFE70438024000004742EB
:101F4000800E4742007000400000FFFF10B5401EA9
:101F5000B0F1807F01D3012010BD4FF0E02460611B
:101F60000F21601702F027FC0020A06107202061EC
:101F7000002010BD70B590F83C20012A32D0012419
:101F800080F83C40022280F83D2003685A689D6832
:101F900022F070060A6832435A60134B02689A4274
:101FA00014D0B2F1804F11D0104B9A420ED0104B8A
:101FB0009A420BD00F4B9A4208D00F4B9A4205D051
:101FC0000E4B9A4202D00E4B9A4204D1496825F03A
:101FD00080031943916080F83D40002180F83C1057
:101FE000084670BD022070BD0000014000040040A2
:101FF00000080040000C0040000401400040014087
:102000000018004010B5040003D094F83D0010B152
:1020100007E0012010BD002084F83C00204600F0BD
:102020001FF8022084F83D00211D206801F05AFEAF
:10203000012084F8460084F83E0084F83F0084F8CC
:10204000400084F8410084F8420084F8430084F89A
:10205000440084F8450084F83D00002010BD0000D5
:1020600008B50C4A01680C48914207D1016841F05B
:1020700002010160006800F0020009E0074A914295
:1020800007D1016841F010010160006800F0100004
:10209000009008BD0004004040380240001000409D
:1020A00090F83D10012901D001207047022180F8ED
:1020B0003D1000681149884214D0B0F1804F11D012
:1020C0000F4988420ED00F4988420BD00E498842F2
:1020D00008D00E49884205D00D49884202D00D49EA
:1020E000884204D1816801F00701062903D0016804
:1020F00041F0010101600020704700000000014034
:102100000004004000080040000C004000040140B2
:10211000004001400018004070B5044690F83C00B3
:102120000025012817D0012684F83C60022084F89D
:102130003D002068826822F0770222F47F428260AC
:102140000868502838D00DDC20284FD005DC90B32B
:10215000102811D14AE0022070BD302846D0402816
:102160000AD13BE060282FD070280DD0B0F5805FF9
:1021700003D0B0F5005F12D0012584F83D60002047
:1021800084F83C00284670BDCB68D1E90121206865
:1021900001F01DFE2068816841F0770109E0CB68FD
:1021A000D1E90121206801F012FE2068816841F424
:1021B00080418160E1E719E0CA684968206801F060
:1021C000DBFE5021206806E0CA684968206801F0FB
:1021D000E4FE6021206801F004FECEE7CA68496889
:1021E000206801F0C9FE40212068F4E7226801461A
:1021F0001046F0E710B586B0044614216846FEF795
:1022000058F82068B0F1804F15D10C4800210268C1
:1022100042F001020260006800F0010005902020F9
:1022200000900220CDE901010120CDE903106946AB
:102230000348FFF751F906B010BD000030380240E6
:102240000000024070B5044690F83C0000260D46A0
:1022500001280FD0012084F83C006AB1042A1DD067
:10226000082A2FD00C2A3FD00126002084F83C00F9
:10227000304670BD022070BD206801F0BBFD2068B3
:10228000816941F0080181612068816921F00401C0
:102290008161206881692A69114311E0206801F099
:1022A000D9FD2068816941F40061816120688169FC
:1022B00021F480618161206881692A6941EA0221F3
:1022C0008161D2E7206801F0FBFD2068C16941F01F
:1022D0000801C1612068C16921F00401C161206861
:1022E000C1692A69114311E0206801F01DFE2068D0
:1022F000C16941F40061C1612068C16921F4806154
:10230000C1612068C1692A6941EA0221C161ACE763
:1023100010B5040003D094F83D0010B107E001208F
:1023200010BD002084F83C00204600F01FF8022079
:1023300084F83D00211D206801F0D4FC012084F8C0
:10234000460084F83E0084F83F0084F8400084F89A
:10235000410084F8420084F8430084F8440084F883
:10236000450084F83D00002010BD000008B500685D
:10237000B0F1804F08D10548016841F001010160CA
:10238000006800F00100009008BD000040380240E5
:1023900010B50446022249B104290ED0082913D0F1
:1023A00094F84100012816D0012010BD94F83E0099
:1023B0000128F9D184F83E200FE094F83F0001286D
:1023C000F2D184F83F2008E094F840000128EBD1D6
:1023D00084F8402001E084F841200122206801F0C7
:1023E000E9FC16492068164A884201D0904203D180
:1023F000436C43F4004343642068884213D0B0F137
:10240000804F10D00F4988420DD00F4988420AD022
:102410000E49884207D0904205D00D49884202D02B
:102420000C49884204D1816801F00701062903D0D4
:10243000016841F001010160002010BD0000014071
:10244000000401400004004000080040000C00406F
:10245000004001400018004038B5044690F84200A2
:10246000202801D0022038BD51B14AB1012020639B
:1024700000206063204601F0C9FF216B012901D0D3
:10248000012038BD21680A684968009121680C3133
:1024900051E8002F42F0100241E80023002BF5D153
:1024A00038BD00002DE9F0410C4600681049884213
:1024B0001BD1104F46158CB1B4420FD8A7F202259C
:1024C00022463946A81CFDF7CDFE2C80B44205D229
:1024D0002819C4F50071801CFDF7EBFE3246394621
:1024E000BDE8F0410448FFF7B7BFBDE8F081000048
:1024F000001001406A090020080400207047000015
:10250000F8B5016804460868CA684B6910F00F0FF7
:102510004FF0000559D003F0010602F490773743DD
:1025200065D0C10705D0D10503D5616C41F001012B
:102530006164410705D5D90703D0616C41F0020100
:102540006164810705D5D90703D0616C41F00401AE
:102550006164010707D502F02001314303D0616CAB
:1025600041F008016164616C00293AD0800604D50D
:10257000900602D5204601F062FE20684069616C39
:10258000C0F38010090700D460B3204601F022FE9A
:1025900020684069400621D52068143050E8001FAB
:1025A00021F0400140E80012002AF5D1E06BA8B10B
:1025B00072490165E06BFEF7F8FD002811D0E06B71
:1025C000016D01B0BDE8F040084783060FD59306C2
:1025D0000DD52046BDE8F84001F031BE2046FFF79A
:1025E0008DFFF8BD2046FFF789FF6564F8BD266BB7
:1025F0002023012E7ED1C6067CD5D6067AD5086862
:102600004868009048694FF0020640064DD5E26BDD
:10261000106840684FF480770004000C3AD0A18D18
:10262000814237D9E085D069B8422DD020680C307E
:1026300050E8001F21F4807140E80012002AF5D113
:102640002068143050E8001F21F0010140E800121A
:10265000002AF5D12068143050E8001F21F0400115
:1026600040E80012002AF5D184F842302563206842
:102670000C3050E8001F21F0100140E80012002A41
:10268000F5D1E06BFEF748FD6663A08DE18D401A41
:1026900081B206E0A18D8142A8D1D069B842A5D10E
:1026A00066632046FFF7FEFEF8BDA08DE18D401A5F
:1026B00081B2E08D0028F7D00029F5D020680C30D9
:1026C00050E8002F22F4907240E80027002FF5D147
:1026D0002068143050E8002F22F0010240E8002763
:1026E000002FF5D184F84230256320680C3050E883
:1026F000002F00E006E022F0100240E80023002B4B
:10270000F3D1CDE705062BD5150629D594F8410060
:102710002128C9D1A068B0F5805F01D12069B0B18E
:10272000206A411C2162216800784860E08C401ECC
:102730000004000CE084B7D12068C16821F080015A
:10274000C1602068C16841F04001C160F8BD206AE5
:102750000088C0F308004860206A801C2062E5E71A
:102760004006F3D55006F1D5CA68204622F0400253
:10277000CA6084F8413000F07DF9F8BDD940000806
:1027800070B5040004D094F84100002510B106E0B3
:10279000012070BD84F84050204600F023F824202A
:1027A00084F841002068C16821F40051C1602046CE
:1027B00001F0A6FD2068016921F4904101612068C3
:1027C000416921F02A0141612068C16841F400514A
:1027D000C1606564202084F8410084F8420065638C
:1027E000002070BD2DE9F04186B0064614216846F0
:1027F000FDF75FFDDFF80CC1316843480222032377
:102800000727424D0024614553D13F491431D1F887
:1028100000C04CF0100CC1F800C0096801F01001B4
:102820000591016841F0010101600068694600F00E
:102830000100059058028DE81500CDE903372846C0
:10284000FEF74AFE334D32484FF000672860C5E975
:1028500001744FF48068C5E903486C61AC61EC61B8
:102860002C6228466C62FEF783FD08B1FEF71DF965
:10287000F563AE63274D264860357830E5E80207FA
:102880004020A5E81101234845F814496030AC61A7
:10289000EC612C626C62FEF76BFD08B1FEF705F986
:1028A000B563002211462520AE63FFF77BF8252093
:1028B00023E0194EB14222D1134910310E6846F47B
:1028C00000360E60096801F400310591016841F09D
:1028D000010101600068694600F0010005900C20CC
:1028E0008DE81500CDE903372846FEF7F5FD0022F7
:1028F00011462620FFF756F82620FFF745F806B0C8
:10290000BDE8F08100100140303802400000024074
:1029100040640240980400200044004090F8423097
:10292000202B01D00220704721B11AB1002303638C
:1029300001F0BCBD0120704730B4006814498842E2
:1029400023D172B613480178134883884FF4FA7282
:1029500093420CD24488831DE1544188491CB1FB49
:10296000F2F302FB131141808188491C8180808829
:1029700062B6042803D307490120C91E887030BC01
:10298000012204490548FFF7C9BF30BC7047000069
:1029900000440040C30000206A0B002050040020C7
:1029A00070472DE9F843044690F8410098461646D2
:1029B0000D46202802D00220BDE8F88385B17EB103
:1029C00000206064212084F84100FEF783FEA68485
:1029D0008146E684A0682027B0F5805F02D003E03E
:1029E0000120E9E7206910B12E4600250EE00026FF
:1029F0000CE08021204601F074FDA8B9C6B116F89C
:102A0000010B21684860E08C401EE084E08C4B465E
:102A10004FF00002CDF800800028EAD14FF04001CD
:102A2000204601F05EFD40B184F841700320C3E709
:102A300035F8020BC0F30800E3E784F8417000208A
:102A4000BAE790F84130202B01D00220704779B1CD
:102A500072B101628284C28400214164212180F824
:102A600041100068C16841F08001C16000207047DA
:102A7000012070470068064B0021064A984201D1A8
:102A800011707047044B9842FBD1517070470000A1
:102A900000100140C00000200044004070B5050057
:102AA0000C464FF0FF3605D024B10846FDF70CFC6C
:102AB0006C2801D9304670BD22462946BDE87040D9
:102AC00001A001F0DDBA000025732E7478743D2258
:102AD00025732200FEE70000304810B581880068A9
:102AE00089B20022FEF7F0FD2C48012218308188BF
:102AF000006889B2FEF7E8FD28480022103081887E
:102B0000006889B2FEF7E0FD244800222030818869
:102B1000006889B2FEF7D8FD20480022283081885D
:102B2000006889B2FEF7D0FD1C4800223030818851
:102B3000006889B2FEF7C8FD184800223830818845
:102B4000006889B2FEF7C0FD144800224030818839
:102B5000006889B2FEF7B8FD10480022203881884D
:102B6000006889B2FEF7B0FD0C4800221838818851
:102B7000006889B2FEF7A8FD084800221038818855
:102B8000006889B2FEF7A0FD044808380022818859
:102B90000068BDE8104089B2FEF796BD4C000020E9
:102BA00010B50D4C0022A08881B22068FEF78CFD84
:102BB000012002F0CBFEA088012281B22068FEF73E
:102BC00083FD1E2002F0C2FEA088002281B2206890
:102BD000BDE81040FEF778BD540000201CB528A0C9
:102BE0000068009027A000680190FFF775FFFFF7CD
:102BF000D7FF6A460321012001F0BAFC032101AA94
:102C0000084601F0B5FC204CA08981B2032001F0F8
:102C10005FFD208881B2002001F05AFDA08881B2BA
:102C2000012001F055FD208981B2022001F050FD04
:102C3000164C0020216801F02DFD0120616801F093
:102C400029FD0220A16801F025FD0320E16801F0C3
:102C500021FD1034A08981B2032001F005FD2088F8
:102C600081B2002001F000FDA08881B2012001F0B6
:102C7000FBFC208981B2022001F0F6FC1CBD0000A3
:102C8000D30000000003000058050020940000203D
:102C900070B5164C002220212046FEF715FD0022BB
:102CA00040212046FEF710FD114D00224FF4005147
:102CB0002846FEF709FD002201212846FEF704FD03
:102CC000002208212046FEF7FFFC002210212046AA
:102CD000FEF7FAFC012202212846FEF7F5FC204609
:102CE000BDE8704001220421FEF7EEBC0010024056
:102CF000000802407FB50024154800940194029416
:102D00001249039401604FF48031C0E90114046159
:102D1000047680F820400903C1620125C56149108D
:102D2000C460816280F830404561FDF7CAFF08B198
:102D3000FDF7BBFECDE90045694605480294FDF765
:102D400017FF002801D0FDF7B0FE7FBD0020014035
:102D5000180100207FB500241548009401940294C6
:102D60001249039401604FF48031C0E901140461F9
:102D7000047680F820400903C1620125C56149102D
:102D8000C460816280F830404561FDF79AFF08B168
:102D9000FDF78BFE0095CDE9015469460448FDF727
:102DA000E7FE002801D0FDF780FE7FBD0021014035
:102DB000600100201CB500240C4900940A480194CD
:102DC00008600846FEF743F908B1FDF76EFE0420DF
:102DD000CDE90004002269460448FEF711F90028F5
:102DE00001D0FDF762FE1CBD0074004068020020A7
:102DF0001D4808B5016841F480010160016801F4D3
:102E000080010091016841F4001101600068002216
:102E100000F40010009011461020FEF7C3FD1020B2
:102E2000FEF7B2FD002211463820FEF7BBFD382028
:102E3000FEF7AAFD002211463A20FEF7B3FD3A2024
:102E4000FEF7A2FD002211463B20FEF7ABFD3B2022
:102E5000FEF79AFD002211464620FEF7A3FDBDE8CD
:102E600008404620FEF790BD303802402DE9F04F73
:102E700087B014216846FDF71CFA3F48002401681A
:102E800041F010010160016801F010010591016835
:102E900041F004010160016801F00401059101683D
:102EA00041F080010160016801F080010591016835
:102EB00041F001010160016801F001010591016823
:102EC00041F002010160016801F002010591016811
:102ED00041F0080101600068DFF8A08000F0080000
:102EE000059000227E214046FEF7EEFBDFF8909031
:102EF00042F21306002231464846FEF7E5FBDFF8B2
:102F000084A040F2FB37002239465046FEF7DCFB36
:102F1000DFF874B00022F91E5846FEF7D5FB0122F7
:102F20004FF440415846FEF7CFFB7E20009001252C
:102F3000CDE90154694640460394FEF7CDFA009668
:102F4000CDE90154694648460394FEF7C5FA009757
:102F5000CDE90154694650460394FEF7BDFA4CF2A0
:102F6000F8300090CDE90154694658460394FEF7C5
:102F7000B3FA07B0BDE8F08F3038024000100240CD
:102F80000008024000040240000C02400D4810B549
:102F90000B4901600C49416000214FF4804281607F
:102FA000C0E9031241618161C1610162FEF798FBD2
:102FB000002803D0BDE81040FDF777BD10BD00002C
:102FC00000580040DC020020A086010010B58AB045
:102FD000002407941C2168460894FDF76AF91648F6
:102FE0004FF08041C0E9001440F25721C0E902418E
:102FF00004618461FFF78CF908B1FDF756FD079471
:1030000007A90D480894FEF7B5FF08B1FDF74DFD7F
:10301000602000904FF49670CDE9010400226946CB
:1030200005480494FFF70EF908B1FDF73EFD02488C
:10303000FFF7E0F80AB010BD3003002010B586B0ED
:1030400000241748009401940294039404941349B3
:10305000059401600921C0E9011440F2A311C0E9FF
:1030600003148461FEF7CEFF08B1FDF71EFD4FF497
:103070008050009069460A48FFF74EF808B1FDF706
:1030800014FD2020CDE9040404A90548FEF772FFD1
:10309000002801D0FDF709FD06B010BD0004004076
:1030A000780300201CB500240E4800940C490194BC
:1030B000C0E900145321C0E902418461FEF7A2FF78
:1030C00008B1FDF7F2FC2020CDE90004694605486F
:1030D000FEF750FF002801D0FDF7E7FC1CBD000003
:1030E00000100040C00300200C4810B50A490160E0
:1030F0004FF4E1314160002181600C22C160C0E9E0
:1031000004128161C161FFF73BFB002803D0BDE8D9
:103110001040FDF7CABC10BD00100140080400209B
:103120000C4810B50A4901604FF4E13141600021BB
:1031300081600C22C160C0E904128161C161FFF7A6
:103140001FFB002803D0BDE81040FDF7AEBC10BD4A
:103150000044004050040020FEE7FEE7F0B50028E0
:103160001FD004291DD30278552A1AD1461816F803
:10317000012CFF2A15D12C4A2A4B0429157803D09B
:1031800000240122891E12E0002D0AD0596809B1DD
:1031900042780A70022D04D3D968002901D08078C2
:1031A0000860F0BD875C521C3C44E4B292B28A4293
:1031B000F8DB16F8022CA242F3D1012200242EE003
:1031C0008A42EEDA13F83460012E04D0022E0AD0BF
:1031D000032E22D112E003EBC407865C7F68521CE9
:1031E00092B23E7019E0961C8E42DADC024403EB88
:1031F000C40712887F6852BA3A800DE0161D8E42CD
:10320000CFDC02441768D2783FBA27F0FF07174394
:1032100003EBC40252681760B2B2641CE4B2AC4261
:10322000CED3F0BD68050020BC00002070B500F0D2
:1032300021FF010052D02B4C6288C2F5807080B211
:10324000814200D30146284E89B3B01800F0EAFE4F
:10325000618808443EE0002580B204E0715D552994
:1032600004D06D1CADB28542F8D30BE055B1421BC2
:1032700071191D48FCF7F6FF6088401B80B2608022
:1032800004282BD30320628804E0315CFF290FD08F
:10329000401C80B29042F8D3B2F5807F1ED1FF224D
:1032A000711C1148FCF7DEFFFF206080D3E712E0BD
:1032B0000028F1D0401C85B229460B48FFF74EFF8D
:1032C0006088A8420BD3421B71190748FCF7CAFF5C
:1032D0006088401B608060880428BCD270BD0020DC
:1032E000608070BDBC0000206806002010B50C4650
:1032F00000280BD0002C09D0202C00D92024014616
:10330000E2000348FCF7AEFF0248047010BD000065
:1033100068050020BC0000207047000010B50C4676
:10332000FDF761F99FED051B53EC112BFDF77AF8C2
:10333000FDF766F96070000A207010BD012FC116FC
:103340006CC146409DED011ADDED001A05200A29E9
:103350005ED301D84FEA9100B0EE002A824206D82F
:1033600060EE822AF4EEC02AF1EE10FA45D3091A73
:10337000491E914206D860EE022AF4EEE02AF1EEF0
:1033800010FA43D3824217D9914215D9F8EE613A27
:10339000DFED202A20EE223AB4EEE33AF1EE10FA05
:1033A0000AD260EEA22AF8EE611AF4EEE12AF1EEFA
:1033B00010FA01D203207047834215D9994213D9DC
:1033C000F8EE411A61EE821AF4EEC01AF1EE10FA2C
:1033D0000AD2B8EE411A21EE021AB4EEE01AF1EE6A
:1033E00010FA01D2042070479FED0B1A60EE811A8B
:1033F000F4EEC01AF1EE10FA01D20120704720EE6F
:10340000010AB4EEE00AF1EE10FA01D20220704790
:10341000002070476666E63F9A99993FF0B5DDE96E
:10342000056548E031F81270D418A4B200EE907A25
:1034300031F81470F8EE600A01EE107AF8EE411AD5
:10344000F4EEC00AF1EE10FA04DBF4EEC01AF1EE6D
:1034500010FA09D9F4EEC00AF1EE10FA2AD8F4EE07
:10346000C01AF1EE10FA25DB50F8221071EEE01AC6
:1034700050F8240001EE101A02EE100AF0EEE12AD4
:1034800012EE900AB8EE411AB8EE422A0C49884270
:1034900002DA85ED001A0BE030EE600A72EE410AA6
:1034A00020EE200AC0EE210A30EE810A85ED000AE6
:1034B0000120F0BD2246B242B4D10020F0BD000090
:1034C000BD3786352DE9FF4F4FF000072DED0A8BF4
:1034D000E1B09A465FEA000B3D46DFED7D8AF0EEF3
:1034E000689AB0EE689AB0EE688A0DD06C9858B1C0
:1034F0006D9848B1BAF1000F06D0789820B1754E9A
:103500003068C00707D008E0002061B0BDEC0A8B2E
:1035100004B0BDE8F08F02F01FFA706800240DF1CE
:10352000C0090DF5907860906B4800F075F906467B
:103530006A4800F071F929F8146028F8140005446D
:1035400064483744416860986E46081A4DF8240074
:10355000082002F023FA641CA4B2302CE4D300EE5D
:10356000107AB8EE400ADFED5E0A4746DFF8748154
:1035700080EE20BA00EE105A00244D46B8EE400A04
:10358000C0EE20AADFED58BA56F8240000EE100A6B
:10359000F8EE400A98ED000AB8EE401A80EE810A73
:1035A00000EE90BAF8EE600A60EEAB0A20EE80CA38
:1035B000B0EE4C0A01F038FAF0EE400AB0EE4C0AD8
:1035C000B0EE60AA01F098FB35F8140000EE900A06
:1035D00037F81400641CF8EE600AA4B2302C30EE08
:1035E000CB1A00EE900AF8EE600A41EE0A9A41EE1C
:1035F000008A70EEEA1A01EE8A9A01EE808AC3D33D
:1036000029EEA90A08EEA80A01F03EFC9FED37AAB0
:1036100060EE0AAA29EE090A08EE080A01F034FC55
:1036200020EE0AAAF0EE690AB0EE680A01F0D4F8BA
:10363000F0EE408AF0EE490AB0EE480A01F0CCF80C
:10364000F0EE400A2C4930EEE80ADFED290A20EEC0
:10365000208A9FED280A01E038EE408A18EE100A11
:103660008842F9DC254900BF18EE100A884202D9C9
:1036700038EE008AF8E7F6EE000A6C993AEEA00AF6
:10368000BCEEC00A10EE100A3AEE200A08806D99CE
:10369000BCEEC00A10EE100A08801AEE901A184804
:1036A00081420CDD1AEE101A814208DD8AEE2A0AE8
:1036B00001F062FAF3EE040A20EE200A01E09FED29
:1036C000110A8AED000A789880ED008A01201CE733
:1036D00000000000001000E0600100201801002040
:1036E0000000404220000020DB0FC940ABAA2A3D69
:1036F000E02E65420000B44300003443000034C3B0
:10370000BD3786350000F0C2012807D0022807D057
:10371000032807D0042807D004A0704705A07047ED
:1037200006A0704708A070470AA07047554E4B4E40
:103730004F574E004C4F575041535300484947484C
:10374000504153530000000042414E4450415353F6
:103750000000000042414E4453544F50000000000E
:103760002DE9F05F0E004FF0000183468946884640
:103770000D460C462AD00027BA4618E05846FDF7F9
:10378000A3FB18BB14215846FDF748FB18B1584657
:10379000FDF718FC1AE05846FDF790FA10EB0909FE
:1037A0004AEB08085846FDF70DFC7F1CBFB2B74234
:1037B000E4D33246002348464146FCF701FD8046EB
:1037C00000271FE05846FDF77FFB10B10020BDE841
:1037D000F09F14215846FDF721FB0028D7D1584609
:1037E000FDF76CFA81465846FDF7ECFBC14502D364
:1037F000A9EB080101E0A8EB09014D194AEB04040B
:103800007F1CBFB2B742DDD3324600232846214693
:10381000FCF7D6FC80B2DAE770B50546FDF754FB3D
:1038200008B1002070BD14212846FDF7F7FA0028E2
:10383000284602D0FDF7C6FBF3E7FDF73FFA84B256
:103840002846FDF7BFFB204670BD00002DE9F04F74
:103850004FF000082DED048B95B0050044464FF65F
:10386000FF779FEDDB8ACDF81C808DED0D8A8DED05
:103870000E8A8DED108AC346CDF82880CDF8488099
:10388000CDF8448060D0DFF84C930121D24889F80C
:1038900000100021A9F80410C9F80C10A9F80610AE
:1038A000A9F80810A9F80A1089ED088AC9F81010BB
:1038B000C9F81410C9F8181089ED078A89F80110A1
:1038C00089F80210C9F82410FEF7EAFB4FF41671CC
:1038D000002000F0C9FE0021084600F0F9FEFCF7C8
:1038E0006FFF4FF0050ACAF150000026CDF818000E
:1038F0004FF47A70A6FB0001B84900F57A790020F0
:1039000041F82690B3498E80C1F80C90494600F0EA
:10391000C1FEFCF755FF2020FDF7CCFDD6B14F2EA0
:1039200018D00020ADF83C00ADF820008DED0C8AD9
:103930008DED138A13A800900CAB08AA0FA9484676
:10394000FFF7C0FD58B130E0002015B0BDEC048B8E
:10395000BDE8F08F4FF47A70FDF7ACFDE1E7202170
:103960009F48FFF7FDFEADF83C0020219D48FFF782
:10397000F7FEBDF83C10ADF8200081B100EE100A52
:10398000F8EE400A00EE101AB8EE401A80EE810AF6
:1039900001F0F2F8F3EE040A20EE200A01E09FEDB8
:1039A000920A8DED0C0A8DED138A9048BDF83C10FB
:1039B00020F816108D49BDF82000A039564521F891
:1039C000160001F5A0719DED0C0A01EB860181ED59
:1039D000000A87499DED130A01EB860181ED000A7B
:1039E0007C49C88002D20A9A02440A92069AB242DC
:1039F00000D88344A04203D908810446B0464E81D2
:103A0000B84201D207460796761CB6B2502EFFF494
:103A10006FAFE4B30A98CDE9004700EE100A73488F
:103A20004246F8EE400A00EE10AA5021A038B8EE47
:103A3000400A079B80EE809A00EE10BAF8EE400A2A
:103A400000EE10AAB8EE400AC0EE808AB0EE490A35
:103A5000F0EE680AFFF776FC4FF0000985F8009059
:103A60005E4A6870C5F8049052F82830AB602C8329
:103A70006F83C5F81090574EC5F8149085ED038AF2
:103A80003361B0704F279FED5B0A0DA900E00CE099
:103A9000B6EE008A012810D04FF0FF33022822D062
:103AA000032831D004287DD08DE04A4900200870D9
:103AB0004FF47A70FDF7FEFC46E769EE008ACDE927
:103AC00000710123B0EE680A002213E09DED0D0A9B
:103AD000012030EE080ABCEEC00A85ED010A28700C
:103AE00086ED090A6EE068EE808ACDE90091B0EEBD
:103AF000680A4F223D493948A039FFF78FFCC6EDCF
:103B0000088A0028E2D15EE000EE904A3446B8F11F
:103B1000000FF8EE600A60EE808AC6ED088A0ED0CB
:103B20000EA9CDE900913149B0EE680A4246A039AC
:103B30002A48FFF773FC1290B8F14F0F0CD210A86F
:103B4000CDE900702949B0EE680A01234246A03948
:103B50002248FFF763FC1190129858B3119848B3AC
:103B60009DED100ADDED0E0AB4EEE00AF1EE10FA5A
:103B700029DD30EE601A70EE880A30EE080A012066
:103B8000FCEEE00ABCEEC00AC5ED040A85ED050AAC
:103B9000D5ED021AB8EE612AC2EE011AC5ED031A7C
:103BA000287000E007E0C4ED050A84ED060AC4EDC4
:103BB000071A607007E0079852F820100120A960EA
:103BC00028703161707086F800900120BDE6000019
:103BD00000000000CC00002078030020E40F00204B
:103BE00060010020180100200000F0C2C411002074
:103BF000A4130020F304353F7047000070B54FF464
:103C000080710C4C4D0001280CD0022810D10022EC
:103C10002046FDF759FD012229462046BDE87040A7
:103C2000FDF752BD00222046FDF74EFD0022F3E7CE
:103C300070BD0000000C0240FDF74CBE30B593B0E3
:103C400030216846FCF735FB14210CA8FCF731FB4A
:103C50001E480025016841F080510160006800F0B5
:103C6000805011901A48016841F480410160006859
:103C7000022400F480401190012000900004019083
:103C80008001CDE90640192008904FF4A870CDE9D5
:103C9000090404200B906846FDF7A2FF08B172B634
:103CA000FEE70CA90F2081E831004FF4A0500F90DF
:103CB0004FF48050109005210CA8FDF7A5FE0028B8
:103CC00001D072B6FEE713B030BD000040380240AC
:103CD000007000400248016841F4700101607047C3
:103CE00088ED00E0F0B50268274B284D284E294F9B
:103CF000294C4FF0804C984209D0604507D0A8422B
:103D000005D0B04203D0B84201D0A04204D122F085
:103D1000700E4A6842EA0E0298421BD0604519D0E4
:103D2000A84217D0B04215D0B84213D0A04211D04B
:103D30001A4DA8420ED01A4DA8420BD0194DA842D8
:103D400008D0194DA84205D0184DA84202D0184DF0
:103D5000A84203D122F44075CA682A434D6922F073
:103D600080022A438D68C5620D688562984201D041
:103D7000A04201D109690163016841F004010160B9
:103D8000012141610260F0BD0000014000040040DB
:103D900000080040000C00400004014000400140C9
:103DA000004401400048014000180040001C004051
:103DB0000020004010B501F01F030121046A994062
:103DC0008C430462016A9A401143016210BD10B530
:103DD000846842EA032224F47F440A432243826037
:103DE00010BD826822F070020A4342F00701816030
:103DF00070470000F0B5036A026A22F00102026215
:103E000042688469124E24F073050C682C4323F039
:103E100002058B682B430D4DA84201D0B04205D15D
:103E200023F00807CB683B4323F00403A84201D0EA
:103E3000B04205D14D6922F4407215438A692A4384
:103E400042608461496841630362F0BD0000014043
:103E500000040140F0B5026A036A23F01003036214
:103E6000436884690D6824F4E64444EA05248D68B7
:103E700022F0200242EA05120F4D104EA84201D056
:103E8000B04206D1CF6822F0800242EA071222F047
:103E90004002A84201D0B04207D14D6923F44063EB
:103EA00043EA85038D6943EA850343608461496879
:103EB00081630262F0BD0000000001400004014087
:103EC000F0B5026A036A23F4807303624368C4692D
:103ED00022F4007224F073050C68124E2C438D6896
:103EE00042EA05220E4DA84201D0B04206D1CF6869
:103EF00022F4006242EA072222F48062A84201D042
:103F0000B04207D14D6923F4405343EA05138D694C
:103F100043EA05134360C4614968C1630262F0BDAE
:103F2000000001400004014030B5046A026A22F436
:103F3000805202624268C3690D6823F4E64343EA93
:103F400005238D6824F4005444EA0534084DA84242
:103F500002D0084DA84204D14D6922F4804242EAC1
:103F600085124260C36149680164046230BD00008B
:103F7000000001400004014010B5036A046A24F007
:103F800001040462846924F0F00444EA021423F07A
:103F90000A020A438461026210BD10B5036A046A12
:103FA00024F010040462846923F0A00324F4704414
:103FB00044EA023243EA01118261016210BD00004D
:103FC00070B50F4D2878052801D0002070BD0DA4D4
:103FD0000FA112A0FEF762FD1148FFF737FC20B1D8
:103FE0000F484078FFF790FB044621460BA0FEF7F0
:103FF00055FDFCF7D5FC002028706860012070BDDD
:10400000B40000205343414E5F4641494C0000003C
:104010005343414E4E494E470000000074390000A2
:10402000FC000020F0B5040007D031B172B6104A90
:104030009088884203D2908802E00020F0BD0846B4
:104040000023911D4FF4FA760AE015886F5CE7545F
:104050006D1CB5FBF6F706FB17555B1C15809BB274
:104060008342F2D39188091A918062B6F0BD0000B4
:104070006A0B002001488088704700006A0B00200E
:104080000FB470B5104D687820B14FF0FF3070BCA0
:104090005DF814FB05AB7D210C48049A00F062FB2F
:1040A000041EF4DD09480AA1204409880180FF218B
:1040B000817001206870E01C82B204490548FEF757
:1040C000C0FC2046E3E70000C0000020640F002091
:1040D000FFFFFF005004002010B5806B0021C18558
:1040E000FEF70CFA10BD70B5846B2068406994F837
:1040F0004110C0F3C0100025212904D118B1E58476
:10410000204600F08EF82068406994F84210C0F311
:104110008010222904D118B1E585204600F05AF814
:10412000606C40F0100060642046FEF7E7F970BD57
:1041300010B50146806B096809684FF00002C90597
:104140002ED4C28501680C3151E8003F23F48073FE
:1041500041E80034002CF5D10168143151E8003FEA
:1041600023F0010341E80034002CF5D1016814313B
:1041700051E8003F23F0400341E80034002CF5D122
:10418000202180F84210016B012909D101680C310E
:1041900051E8003F23F0100341E80034002CF5D132
:1041A0004263016B012902D0FEF7C6FB10BD818D71
:1041B000FEF778F910BD10B5806B01214163016BEA
:1041C000012902D0FEF7ECFB10BD818D4908FEF7F6
:1041D00069F910BD01680C3151E8002F22F490728A
:1041E00041E80023002BF5D10168143151E8002F7C
:1041F00022F0010241E80023002BF5D1016B0129D7
:1042000009D101680C3151E8002F22F0100241E879
:104210000023002BF5D1202180F8421000210163FA
:10422000704701680C3151E8002F22F0C00241E8CC
:104230000023002BF5D1202180F84110704708B5EC
:1042400090F84210222901D0022008BD82684FF464
:1042500080539A4201D1016921B1816A9A421BD0EF
:104260004AB10AE00268816A5268C2F308020A8011
:10427000816A891C08E0026972B10268526802F022
:104280007F020A70816A491C8162C18D491E09043E
:10429000090CC18503D01BE002685268F1E7016890
:1042A000CA6822F02002CA600168CA6822F48072DB
:1042B000CA6001684A6922F001024A61202180F83F
:1042C000421000214163026B012A03D0FEF734FB48
:1042D000002008BD016301680C3151E8002F22F075
:1042E000100241E80023002BF5D101680A68D206CC
:1042F00002D50A6849680091818DFEF7D3F8E7E797
:1043000070B5044600680169E26821F44051114328
:1043100001612169A068E2690843616911430843AA
:104320002168CA6849F20C639A430243CA60206854
:104330004169A26921F4407111434161314920680A
:10434000884202D03049884202D1FDF707FC01E0E3
:10435000FDF7F4FBE2690023192164253226B2F54A
:10436000004F626828D0A0FB0101930F9200FBF779
:1043700027FF0146B0FBF5F06FF01802504301EB48
:10438000800006EB0010B0FBF5F000F0F002B1FB8E
:10439000F5F002EB0012B1FBF5F06FF01803584393
:1043A00001EB800006EB0010B0FBF5F000F00F0011
:1043B00021681044886070BDA0FB010192185B4128
:1043C000FBF7FEFE0146B0FBF5F00201B1FBF5F094
:1043D0006FF01803584301EB800006EBC000B0FB00
:1043E000F5F000F0F80002EB4002B1FBF5F05843A5
:1043F00001EB800006EBC000B0FBF5F000F0070019
:10440000D6E70000001001400014014038B5816279
:1044100004468285002013466064222284F84220EC
:10442000E56B1F4AEA63E56B1E4A2A64E56B1E4A88
:10443000EA64E26B10650A462168E06B091DFDF72E
:1044400001F830B110206064202084F8420001207F
:1044500038BD2068016840680090206948B1206834
:104460000C3050E8001F41F4807140E80012002A2F
:10447000F5D12068143050E8001F41F0010140E8F8
:104480000012002AF5D12068143050E8001F41F0D6
:10449000400140E80012002AF5D1002038BD00009C
:1044A00031410008B7410008E74000088162828579
:1044B000C28500214164222180F84210016921B1A6
:1044C0000168CA6842F48072CA6001684A6942F0B1
:1044D00001024A610068C16841F02001C16000200A
:1044E00070472DE9F843984617460D460446089E46
:1044F00024E0701C22D0FDF7EDF8A0EB0800B042DC
:104500001AD8CEB12068C168490717D5802D15D0BB
:10451000402D13D00168C94309070FD40168002555
:10452000406800902046FFF755FE0820606484F83C
:1045300040500120BDE8F8830320FBE720680068B5
:1045400035EA000004D00020B842D2D00020F1E7C4
:104550000120F9E70148FDF7D3BF0000080400205F
:104560000148FDF7CDBF000050040020FEE7000029
:104570002DE9F05F3B4C05468946A088934600260E
:1045800081B232462068FDF79FF804F1080A002244
:10459000BAF80410DAF8000089B2FDF795F8A4F132
:1045A0003008A088002281B22068FDF78DF8280627
:1045B000B8F80410D8F8000089B201D5012200E053
:1045C0000022FDF781F8A088012281B22068FDF762
:1045D0007BF86806050E022001F0B8F9761CF6B2E9
:1045E000082EDED3A088002281B22068FDF76CF887
:1045F00000252BE01BF805700026A088002281B260
:104600002068FDF761F83806B8F80410D8F8000003
:1046100089B201D5012200E00022FDF755F8A088FB
:10462000012281B22068FDF74FF87806070E0220BC
:1046300001F08CF9761CF6B2082EDED3A088002299
:1046400081B22068FDF740F86D1CEDB24D45D1D325
:10465000BAF80410DAF80000BDE8F05F89B2012270
:10466000FDF732B85C00002008B50A460346B1F5F4
:10467000806F00D372220020009069461046FCF73C
:1046800049F91846FCF780F96A4603210620FFF72E
:104690006FFF08BD38B504460B4A481E904200D350
:1046A0000A49002000900846FBF79DFF41EC100BE3
:1046B0006846FCF7FDF92046FCF766F904216A46D6
:1046C0000846FFF755FF38BD0065CD1D52BF0100FC
:1046D00038B50A460446B1F5B47F00D30022002065
:1046E000009069461046FEF719FE2046FCF74CF98B
:1046F0006A4602210520FFF73BFF38BD0C4910B583
:10470000002008800B49087048700B4908804880D9
:1047100088804FF40072A1F500710848FDF79CFEF7
:1047200004490122BDE81040C91C0548FEF7F6B84F
:1047300068070020C00000206A0B00200804002049
:10474000500400200FB4054B10B503A9044A029889
:1047500000F05AFD10BC5DF814FB0000D5590008AC
:10476000F40000207CB5044600201D4616460029B2
:104770000BD0491ECDE90041044B6A46294630461C
:1047800000F042FD009A002111707CBD37590008ED
:104790004100080218BF04200A0E18BF40F00100B3
:1047A0004FF07F4232EA010108BF40F002000128C9
:1047B00008BF052070470907090E002804DB00F137
:1047C000E02080F80014704700F00F0000F1E020B6
:1047D00080F8141D7047000010EE100A10B510EE9E
:1047E000901A4FF0684202EB40032DED028BB3F1BB
:1047F000654F3CBF02EB4102B2F1654F7CD200BF76
:10480000C0F3C753C1F3C7529A1A1B2A09DD10F02F
:10481000004F14BF9FED6E0A9FED6E0ABDEC028B38
:1048200010BD12F11A0F1BDA11F0004F09D010F071
:10483000004F0CBF9FED680A9FED680ABDEC028B2C
:1048400010BD80EE208A18EE100AFFF7A1FF0428A1
:1048500008BF00F04FFBB0EE480ABDEC028B10BD64
:104860004200B2EB410F37D910F0004F19BFDFED16
:104870005C1A9FED5C1ADFED5C1A9FED5C1AB0EEDE
:10488000602A0A46F1EE400A80F00041B0EE420A8A
:1048900010460A1A5200B2F1807F34D2484010F01C
:1048A000004FDFED532A9FED533A1DBFBEEE002AA5
:1048B00071EEE21A31EE431AB6EE002A04BF71EE31
:1048C000A21A31EE031AF0EE402A42EE602A40EEC0
:1048D000020A82EEA02A18E011F0004F04BF9FEDFB
:1048E000461AF0EE411AD4D010F0004F1CBFDFED95
:1048F000431A9FED431A00E026E004BFDFED411AA2
:104900009FED411AC5E780EE202A22EE020ADFED74
:104910003F0ADFED3F2ABDEC028B40EE202ADFED9F
:104920003D0A40EE220ADFED3C2A40EE202ADFED70
:104930003B0A40EE220A22EE000A00EE201A31EE77
:10494000020A30EE210A10BD4FF07F42B2EB400F59
:1049500028BFB2EB410F05D2BDEC028BBDE8104081
:1049600000F0BDBA40EA01035B0008BF41F0FF411F
:104970000BD0B2EB400F08BFB2EB410F08D120F0D3
:10498000804000EE100A21F0804100EE901A37E7D7
:10499000B2EB400F12BF5FEA410240F0FF4001F06E
:1049A00000413FF42DAF4A0092EA40033FF528AFA3
:1049B000002AACBF9FED1A1A9FED1A1A20EE010AC9
:1049C00060EE810A10EE100A10EE901A18E700004F
:1049D000DB0FC9BFDB0FC93FDB0F4940DB0F49C00D
:1049E0000000C9BF22AAFDB90000C93F22AAFD39B3
:1049F0000060ED3EC30ACE3700000000000049C051
:104A000022AA7DBA0000494022AA7D3A2DAD65BD9B
:104A10008FB8D53D0FB511BE61C84C3EA8AAAABE3D
:104A20000000804F0000802F10EE101A08B5444A95
:104A30006846B2EB410F28D94FF0E640B0EB410F8A
:104A400094BF00204FF0FF3000900098002861DBF9
:104A500060EE000A10F0010F45D010F0020FDFEDFC
:104A6000391A9FED391A00EEE11ADFED381A40EEDF
:104A7000811A21EEA01AF0EE400A40EE010A08BFAA
:104A8000F1EE600AB0EE600A08BD314B21F0004241
:104A900093423CD911F0004FDFED2E0A20EE201A90
:104AA000DFED2D0A19BF31EE601A71EE200A31EEEA
:104AB000201A71EE600ABDEEE01A11EE100A9FEDA9
:104AC000271A00F0030000EEC10A9FED251A00909E
:104AD00000EEC10A9FED231A00EEC10A9FED221AD3
:104AE00000EEC10AB1E79FED211A9FED210A10F0F7
:104AF000020F00EE810A9FED1F1A00EE801AB7EE3A
:104B0000000A00EE810A18BFB1EE400A08BD00F0AD
:104B1000F9F99AE710EE100A4000B0F17F4F3CBF60
:104B2000B7EE000A08BD07D14FF0010000F0A4FA6B
:104B3000BDE8084000F0D6B9BDE8084000F0CCB9A7
:104B4000B61F927E336D4C39DA82083CA0AA2ABE89
:104B5000490E494683F9223F0000004B0000C93F3F
:104B600000A0FD390020A2331A61342CB93AB2BA40
:104B7000CA9F2A3DDDFFFFBE10EE100A10B5A0F55A
:104B800000014FF0000CB1F1FE4F6CD200F5002196
:104B90006FF07E0202EBE153C1F302524FF07E51FF
:104BA00001EB025100EE901AA0EBC3500CEB030195
:104BB00000EE100A51EA020036D030EE601A30EEF4
:104BC000200AC1EE000A20EEA00A60EE801A9FEDD6
:104BD0003D2A9FED3D1A3D48DFED3F2A00EE021AC7
:104BE000784400EB82009FED3A2A21EE810A01EE23
:104BF000101AD0ED001A3748B8EEC11A784400EB0D
:104C0000820041EE021A01EE101A90ED002AB8EE71
:104C1000C11A01EE222A9FED311A32EE000A00EE8F
:104C2000810A31EE800A10BDF7EE000A9FED2D1AC1
:104C300070EE600A9FED2A0A00EE801A9FED2A0AA4
:104C400060EEA01A00EE810A9FED281A00EE801A8D
:104C500021EE810A9FED261A00EE810AB5EE0B1AAD
:104C600000EE810A10BD4FF07F41B1EB400F03D23F
:104C7000BDE8104000F030B9B0F1FF4F08BF10BDE3
:104C8000B5EEC00AF1EE10FA06D2012000F0F4F9F8
:104C9000BDE8104000F026B9B5EEC00AF1EE10FAFA
:104CA00007D1022000F0E8F900F00CF9B1EE400A5B
:104CB00010BDDFED100A6FF0160C20EE200A10EE8A
:104CC000100A63E7DE02323E3B3D943E741A000058
:104CD00000209A3E781A0000FC849A36D95B5E3F29
:104CE000924FA93D7279DEBD2D3E143ED85B5EBE6B
:104CF000157B4B3C0000004B00B510EE101A2DED5B
:104D0000028B81B0524A6846B2EB410F2ED94FF068
:104D1000E640B0EB410F94BF00204FF0FF30009011
:104D20000098B0EE408A00286ADB10F0010F4BD0EB
:104D300068EE080A9FED471A9FED470A00EE810AC8
:104D40009FED461A10F0020F00EE801AB7EE000A2F
:104D500000EE810A02BF01B0BDEC028B00BD00BFB6
:104D600001B0B1EE400ABDEC028B00BD3C4B21F01E
:104D70000042934241D911F0004FDFED3A0A20EE94
:104D8000201ADFED390A19BF31EE601A71EE200AE0
:104D900031EE201A71EE600ABDEEE01A11EE100A33
:104DA0009FED321A00F0030000EEC10A9FED301AA9
:104DB000009000EEC10A9FED2F1A00EEC10A9FED90
:104DC0002E1A00EEC10AABE728EE080A9FED2B1A57
:104DD000DFED2B0A10F0020F40EE410A9FED291A79
:104DE00000EE201A61EE000AB0EE480A08EE200A32
:104DF000B6D101B0BDEC028B00BD00F083F88FE7A7
:104E000018EE100A4000B0F17F4F0DD218EE100AD4
:104E1000FFF7BEFC042808BF00F06CF8B0EE480AAB
:104E200001B0BDEC028B00BD09D1012000F024F9D6
:104E300001B0BDEC028B5DF804EB00F053B801B09B
:104E4000B0EE480ABDEC028B5DF804EB00F044B80C
:104E5000B61F927EB93AB2BACA9F2A3DDDFFFFBEA5
:104E6000490E494683F9223F0000004B0000C93F2C
:104E700000A0FD390020A2331A61342C336D4C3967
:104E8000DA82083CA0AA2ABE10B52DED028BB1EE45
:104E9000C08A18EE100A20F00040C0F1FF40C00F99
:104EA0000AD010EE100A20F00040C0F1FF40C00F01
:104EB00004BF012000F0E0F8B0EE480ABDEC028B20
:104EC00010BD0000DFED030AB7EE001A81EE200AE4
:104ED000704700000000000030EE000A704730EE1E
:104EE000200A7047DFED020A80EEA00A704700003A
:104EF000000000009FED020A20EE000A704700004B
:104F0000000000102DE9F0014FF07F42B2EB410F9D
:104F10009FBF4FF0FF310160BDE8F00170474FF0D7
:104F2000004242EA0123C1F3C752783A551112F008
:104F30001F0C434CCCF120067C44C1F3C752A2F1B4
:104F400078024FEA621204EB820254F8254008BF4F
:104F5000D2E9015612D0556804FA0CF425FA06F786
:104F60003C43976805FA0CF527FA06F8D26807FA69
:104F70000CFCF24045EA08054CEA0206A4FB034C8F
:104F8000A5FB0352A6FB03631D449D4234BF0126CB
:104F900000261319334416B1934202D903E0934219
:104FA00001D2012200E00022624402F1200C9206AC
:104FB000DC0C42EA443200EE102A5B03DFED210AEA
:104FC000F8EEC01A00EE103A4FEA9C1C11F0004FA8
:104FD000B8EE400AC0F800C020EE201A00EE105AC9
:104FE000DFED190AB8EE400A20EE200A71EE810AC0
:104FF00070EE800A10EE902A02F500626FF30B0249
:1050000000EE902A70EEE11A31EEC11ADFED101AAF
:1050100030EE411A9FED0D0A20EE800A01EE210AC2
:105020009FED0C1A00EE810A04BFBDE8F001704745
:10503000CCF180510160BDE8F001B1EE400A70474B
:105040005C170000000000360000802C22AAFD2919
:10505000DB0FC92F0000C92F02E008C8121F08C1CA
:10506000002AFAD170477047002001E001C1121FE9
:10507000002AFBD17047000001490860704700001A
:10508000F80000202DE9FF5F82B00021DDE9043047
:10509000020DDDF840B0034318D044F61050A2F2E0
:1050A000FF3242431514119801281FD0A5EB0B00C5
:1050B000401C5FEA000A4FF000064E4FDFF83891BF
:1050C000B046504615D5CAF1000413E011980124EA
:1050D0004AA3012801D16FEA0B010298119AC0E995
:1050E0000031C0E9024206B0BDE8F09FCBF10000FC
:1050F000DFE704460021404A491842EB0450CDE95D
:10510000001012E0E00707D032463B4640464946D1
:10511000FBF788F98046894632463B4610461946D9
:10512000FBF780F906460F466410002CEAD1DDE952
:105130000401DDE90023BAF1000F06DAFBF772F98A
:1051400042464B46FBF76EF905E0FBF7DDF94246B8
:105150004B46FBF7D9F904460E460022284BFBF7D5
:1051600069FA03D84FF0FF30014607E00022254BD3
:1051700020463146FBF7AFF8FBF7F7FA102409E0B9
:10518000002C0ADB0A220023FBF71AF8039B3032BB
:105190001A55641E50EA0102F2D1641C039AC4F14C
:1051A00011031444119A012A03D0012208430DD19E
:1051B0000AE0084304D000204FF0110B119072E771
:1051C000A3EB0B056D1E0DE05B4504DD4FF0000207
:1051D00005F1010504E003DA4FF00002A5F1010535
:1051E000002AECD002981199C0E90231C0E90045CB
:1051F00079E70000000014400000F03F300000009C
:105200000000F0430000E03F2DE9FF4F95B09B46C2
:105210008946064600250FE2252877D10024274637
:10522000F84A0121059400E0044316F8013F203BB1
:1052300001FA03F01042F7D130782A2811D06FF02C
:105240002F033078A0F13002092A16D8059A44F0CD
:10525000020402EB820203EB42021044761C05902A
:10526000EFE759F8042B0592002A03DA504244F480
:105270000054059044F00204761C30782E2816D194
:1052800016F8010F44F004042A280DD06FF02F0205
:105290003078A0F13003092B09D807EB870302EB24
:1052A0004303C718761CF3E759F8047B761C307863
:1052B0006C280FD006DC4C2817D068280DD06A283F
:1052C00014D104E0742810D07A280FD10DE044F4F2
:1052D00000140AE044F4801401E044F440147278AD
:1052E000824202D104F58014761C761C3078662840
:1052F0000BD013DC582877D009DC002875D045285E
:10530000F6D04628F4D047281AD19DE118E063284A
:1053100035D0642879D0652812D195E1702873D0F2
:1053200008DC6728F1D069286FD06E280DD06F286F
:1053300006D1B5E073282CD0752875D0782874D0A4
:105340005A46179990476D1C75E1C4F30250022824
:1053500009D003280DD0D9F8001004280DD00D6015
:1053600009F1040967E1D9F80010EA17C1E9005210
:10537000F6E7D9F800100D80F2E70D70F0E719F8A4
:10538000041B8DF8001000208DF80100EA46012072
:1053900003E059F804AB4FF0FF3061074FF0000114
:1053A00002D40DE008F101018846B9420FDA8045C8
:1053B000F8DB1AF808100029F4D108E008F101011F
:1053C00088468142FADB1AF808100029F6D10598C0
:1053D0005B46A0EB080721463846179A00F094FA7E
:1053E000284400EB080507E04DE029E10DE01AF83C
:1053F000010B5A4617999047B8F10108F7D25B465E
:1054000021463846179A13E142E00A220092C4F37B
:1054100002524FF0000A022A08D059F804CB032A9E
:105420004FEAEC710AD00DE029E02AE009F107010A
:1054300021F00702F2E802C1914609E00FFA8CFC64
:105440004FEAEC71042A03D14FFA8CFC4FEAEC715D
:10545000002907DA0A460021DCF1000C61EB0201A9
:105460002D2202E0220504D52B228DF804200122F2
:1054700003E0E20701D02022F7E7904659E00A2135
:1054800002E010220DE010214FF0000A00910BE025
:1054900010224FF0000A44F004040827009203E0B1
:1054A00008224FF0000A0092C4F30252022A05D0EB
:1054B00059F804CB0021032A08D009E009F10701BB
:1054C00021F00702F2E802C1914605E01FFA8CFCC8
:1054D000042A01D10CF0FF0C4FF00008220728D558
:1054E000702806D0009B83F0100353EA0A0305D00E
:1054F0000EE040228DF80420012208E05CEA01025F
:1055000006D030228DF804208DF805000222904646
:10551000009B83F0080353EA0A030AD15CEA010204
:1055200001D1620705D530228DF804204FF0010823
:105530007F1E582804D034A003900EA802900DE0DE
:1055400036A0F9E753466046009AFAF739FE8446DA
:105550000398825C0298401E029002705CEA01008F
:10556000F0D1029806A9081A00F1200A600702D5B6
:1055700024F4803400E00127574502DDA7EB0A0040
:1055800000E0002000EB0A01009005984144401A19
:105590000590E00306D45B462146179A059800F073
:1055A000B3F90544002706E001A85A46C05D1799E3
:1055B00090476D1C7F1C4745F6DBE0030CD55B462E
:1055C0002146179A059800F09FF9054404E0302021
:1055D0005A46179990476D1C0099481E0090002963
:1055E000F5DC08E0029802995A460078491C0291BD
:1055F000179990476D1CBAF10001AAF1010AF1DC7C
:1056000065E1000009280100303132333435363786
:1056100038396162636465660000000030313233FE
:10562000343536373839414243444546000000009E
:1056300000F058F90544761C307800287FF4ECAD72
:1056400019B02846BDE8F08F620700D4062709F19B
:10565000070222F0070CFCE80223E14603F00048B1
:105660005FEA080C02D00FF2702C0DE05FEA045CD8
:1056700002D50FF2682C07E05FEAC47C02D00FF27B
:10568000602C01E0AFF2700C4FF0FF3823F00043C4
:10569000CDF850C065280CD006DC452809D0462836
:1056A0001DD047283DD13DE0662818D067287ED11F
:1056B00038E00021112F01DB112000E0781CCDE93A
:1056C000000106A90EA8FFF7DDFCDDE90F010E9A27
:1056D00003910021009207F1010A04914DE04FF07F
:1056E00000400097CDE9011006A90EA8FFF7CAFCFB
:1056F000DDE90F0203920E9B11990022DDF80CA048
:105700000093049211B9791C00EB010AB7EB0A006F
:1057100004D4C0F1FF3007F1010A0490AAEB07009E
:10572000019044E0012F00DA01270021112F01DD53
:10573000112000E03846CDE9000106A90EA8FFF7C8
:10574000A1FCDDE90F010E9A039100210491009262
:10575000BA4621070CD40399514500DA8A46BAF1BA
:10576000010F05DD009AAAF10101515C302908D032
:10577000B84202DA10F1040F06DA0121CDE9011076
:1057800015E0AAF10101E9E7002805DC04990144CC
:105790000491AAEB000102E0411C514500DD8A465C
:1057A0000499401A401C01904FF0004002902007DD
:1057B00004D40198504501DBCDF8048000208DF819
:1057C0004F0002980DF14F07B0F1004F25D02B206C
:1057D0000E9002984FF0020800280CDA4042029026
:1057E0002D200E9007E00A210298FAF73BFF303196
:1057F000029007F8011DB8F10001A8F10108F2DCE0
:1058000002980028EFD1791E0E980870307800F0C9
:10581000200040F0450007F8020D12A8C01B00F15F
:1058200007081498007800B1012000EB0A010198E4
:1058300001EBE07105984144401A401E0590E003D9
:1058400006D45B462146179A059800F05DF805449A
:105850001498007818B15A46179990476D1CE003C8
:1058600024D55B462146179A059800F04DF805446B
:105870001CE00498002807DBDDE90301884203DD12
:105880000098405C179901E0179930205A469047DC
:10589000049805F10105401C04900198401E0190F8
:1058A00004D12E205A46179990476D1CBAF1000179
:1058B000AAF1010ADDDC05E017F8010B5A46179939
:1058C00090476D1CB8F10001A8F10108F4DC5B46BB
:1058D0002146179A0598ABE62D0000002B0000002A
:1058E000200000002DE9F041044600251E46174621
:1058F000880404D405E039462020B0476D1C641E9E
:10590000F9D52846BDE8F0812DE9F041044600258F
:105910001E469046C80301D5302700E020278804A2
:1059200004D505E041463846B0476D1C641EF9D5E4
:105930002846BDE8F0814A68002A06D00A68531C50
:105940000B6010704868401E4860704700EB4000D4
:105950008000401EFDD270470B48016841F0807105
:1059600001600A4800214160016841F001010160C5
:10597000074808490068B0FBF1F1074800290160B9
:1059800001D1012101607047FCED00E0001000E052
:105990002000002040420F00240000200B4A10B5D8
:1059A000034610680A4C00F001004042216808429A
:1059B00001D1FFF7D1FF506821684B4300E000BFE1
:1059C0005168091A9942FAD310BD0000001000E096
:1059D0002400002038B504468DF800004FF0FF3356
:1059E000012269460248FCF7DCFF204638BD000072
:1059F00008040020FBF776FFFEF720F9FDF736FAE2
:105A0000FDF7F6F9FDF770FBFDF78AFBFDF772F97C
:105A1000FDF7A0F9FDF712FBFDF7B8FAFDF7CAF99B
:105A2000FDF740FBFDF7D2FAFFF796FF0021604833
:105A3000FCF7AEFC5FA0FEF785FEFDF729F9FDF748
:105A4000CDF8FAF7ADFF664D4CF25037AF602878CD
:105A5000FEF7D4F8FEF752FEFBF746F8FAF762FFBE
:105A6000604C00262878FEF7C9F8FDF7DFFBFEF74B
:105A7000A7FA0028F6D12878012802D0022834D0CD
:105A80003AE02078042804D001281ED0022827D02C
:105A900032E0606810F0FF0F03D0C0B2012802D0DE
:105AA00010E0022036E04FF47A7841460020FEF7FD
:105AB000F1FD40F251110020FEF7D6FDFAF780FE0D
:105AC000C5F8088026706660CCE761680029F9D0C7
:105AD0000020FEF7DFFDFAF773FE6068A860F1E7CB
